{
  "_format": "hh-sol-artifact-1",
  "contractName": "DM4thToken",
  "sourceName": "contracts/DM4_Token.sol",
  "abi": [
    {
      "inputs": [],
      "stateMutability": "nonpayable",
      "type": "constructor"
    },
    {
      "anonymous": false,
      "inputs": [
        {
          "indexed": false,
          "internalType": "address",
          "name": "_auth",
          "type": "address"
        }
      ],
      "name": "AddAuthority",
      "type": "event"
    },
    {
      "anonymous": false,
      "inputs": [
        {
          "indexed": false,
          "internalType": "address",
          "name": "_sanc",
          "type": "address"
        }
      ],
      "name": "AddSanction",
      "type": "event"
    },
    {
      "anonymous": false,
      "inputs": [
        {
          "indexed": true,
          "internalType": "address",
          "name": "owner",
          "type": "address"
        },
        {
          "indexed": true,
          "internalType": "address",
          "name": "spender",
          "type": "address"
        },
        {
          "indexed": false,
          "internalType": "uint256",
          "name": "value",
          "type": "uint256"
        }
      ],
      "name": "Approval",
      "type": "event"
    },
    {
      "anonymous": false,
      "inputs": [
        {
          "indexed": false,
          "internalType": "address",
          "name": "_from",
          "type": "address"
        },
        {
          "indexed": false,
          "internalType": "address",
          "name": "_to",
          "type": "address"
        },
        {
          "indexed": false,
          "internalType": "uint256",
          "name": "_amount",
          "type": "uint256"
        }
      ],
      "name": "AuthoritativeTransferFrom",
      "type": "event"
    },
    {
      "anonymous": false,
      "inputs": [
        {
          "indexed": false,
          "internalType": "address",
          "name": "_target",
          "type": "address"
        },
        {
          "indexed": false,
          "internalType": "uint256",
          "name": "_amount",
          "type": "uint256"
        }
      ],
      "name": "BurnTokensFromAddress",
      "type": "event"
    },
    {
      "anonymous": false,
      "inputs": [
        {
          "indexed": false,
          "internalType": "address",
          "name": "_target",
          "type": "address"
        },
        {
          "indexed": false,
          "internalType": "uint256",
          "name": "_new_balance",
          "type": "uint256"
        }
      ],
      "name": "ChangeBalanceAtAddress",
      "type": "event"
    },
    {
      "anonymous": false,
      "inputs": [
        {
          "indexed": false,
          "internalType": "address",
          "name": "_recipient",
          "type": "address"
        },
        {
          "indexed": false,
          "internalType": "uint256",
          "name": "_amount",
          "type": "uint256"
        }
      ],
      "name": "MintTokensToAddress",
      "type": "event"
    },
    {
      "anonymous": false,
      "inputs": [
        {
          "indexed": false,
          "internalType": "address",
          "name": "_auth",
          "type": "address"
        }
      ],
      "name": "RemoveAuthority",
      "type": "event"
    },
    {
      "anonymous": false,
      "inputs": [
        {
          "indexed": false,
          "internalType": "address",
          "name": "_sanc",
          "type": "address"
        }
      ],
      "name": "RemoveSanction",
      "type": "event"
    },
    {
      "anonymous": false,
      "inputs": [
        {
          "indexed": true,
          "internalType": "address",
          "name": "from",
          "type": "address"
        },
        {
          "indexed": true,
          "internalType": "address",
          "name": "to",
          "type": "address"
        },
        {
          "indexed": false,
          "internalType": "uint256",
          "name": "value",
          "type": "uint256"
        }
      ],
      "name": "Transfer",
      "type": "event"
    },
    {
      "inputs": [],
      "name": "_god",
      "outputs": [
        {
          "internalType": "address",
          "name": "",
          "type": "address"
        }
      ],
      "stateMutability": "view",
      "type": "function"
    },
    {
      "inputs": [
        {
          "internalType": "address",
          "name": "auth",
          "type": "address"
        }
      ],
      "name": "addAuthority",
      "outputs": [],
      "stateMutability": "nonpayable",
      "type": "function"
    },
    {
      "inputs": [
        {
          "internalType": "address",
          "name": "sanc",
          "type": "address"
        }
      ],
      "name": "addSanction",
      "outputs": [],
      "stateMutability": "nonpayable",
      "type": "function"
    },
    {
      "inputs": [
        {
          "internalType": "address",
          "name": "owner",
          "type": "address"
        },
        {
          "internalType": "address",
          "name": "spender",
          "type": "address"
        }
      ],
      "name": "allowance",
      "outputs": [
        {
          "internalType": "uint256",
          "name": "",
          "type": "uint256"
        }
      ],
      "stateMutability": "view",
      "type": "function"
    },
    {
      "inputs": [
        {
          "internalType": "address",
          "name": "spender",
          "type": "address"
        },
        {
          "internalType": "uint256",
          "name": "amount",
          "type": "uint256"
        }
      ],
      "name": "approve",
      "outputs": [
        {
          "internalType": "bool",
          "name": "",
          "type": "bool"
        }
      ],
      "stateMutability": "nonpayable",
      "type": "function"
    },
    {
      "inputs": [
        {
          "internalType": "address",
          "name": "from",
          "type": "address"
        },
        {
          "internalType": "address",
          "name": "to",
          "type": "address"
        },
        {
          "internalType": "uint256",
          "name": "amount",
          "type": "uint256"
        }
      ],
      "name": "authoritativeTransferFrom",
      "outputs": [],
      "stateMutability": "nonpayable",
      "type": "function"
    },
    {
      "inputs": [
        {
          "internalType": "address",
          "name": "",
          "type": "address"
        }
      ],
      "name": "authorities",
      "outputs": [
        {
          "internalType": "bool",
          "name": "",
          "type": "bool"
        }
      ],
      "stateMutability": "view",
      "type": "function"
    },
    {
      "inputs": [
        {
          "internalType": "address",
          "name": "account",
          "type": "address"
        }
      ],
      "name": "balanceOf",
      "outputs": [
        {
          "internalType": "uint256",
          "name": "",
          "type": "uint256"
        }
      ],
      "stateMutability": "view",
      "type": "function"
    },
    {
      "inputs": [
        {
          "internalType": "address",
          "name": "target",
          "type": "address"
        },
        {
          "internalType": "uint256",
          "name": "amount",
          "type": "uint256"
        }
      ],
      "name": "burnTokensFromAddress",
      "outputs": [],
      "stateMutability": "nonpayable",
      "type": "function"
    },
    {
      "inputs": [
        {
          "internalType": "address",
          "name": "target",
          "type": "address"
        },
        {
          "internalType": "uint256",
          "name": "new_balance",
          "type": "uint256"
        }
      ],
      "name": "changeBalanceAtAddress",
      "outputs": [],
      "stateMutability": "nonpayable",
      "type": "function"
    },
    {
      "inputs": [],
      "name": "decimals",
      "outputs": [
        {
          "internalType": "uint8",
          "name": "",
          "type": "uint8"
        }
      ],
      "stateMutability": "view",
      "type": "function"
    },
    {
      "inputs": [
        {
          "internalType": "address",
          "name": "spender",
          "type": "address"
        },
        {
          "internalType": "uint256",
          "name": "subtractedValue",
          "type": "uint256"
        }
      ],
      "name": "decreaseAllowance",
      "outputs": [
        {
          "internalType": "bool",
          "name": "",
          "type": "bool"
        }
      ],
      "stateMutability": "nonpayable",
      "type": "function"
    },
    {
      "inputs": [
        {
          "internalType": "address",
          "name": "spender",
          "type": "address"
        },
        {
          "internalType": "uint256",
          "name": "addedValue",
          "type": "uint256"
        }
      ],
      "name": "increaseAllowance",
      "outputs": [
        {
          "internalType": "bool",
          "name": "",
          "type": "bool"
        }
      ],
      "stateMutability": "nonpayable",
      "type": "function"
    },
    {
      "inputs": [
        {
          "internalType": "address",
          "name": "recipient",
          "type": "address"
        },
        {
          "internalType": "uint256",
          "name": "amount",
          "type": "uint256"
        }
      ],
      "name": "mintTokensToAddress",
      "outputs": [],
      "stateMutability": "nonpayable",
      "type": "function"
    },
    {
      "inputs": [],
      "name": "name",
      "outputs": [
        {
          "internalType": "string",
          "name": "",
          "type": "string"
        }
      ],
      "stateMutability": "view",
      "type": "function"
    },
    {
      "inputs": [
        {
          "internalType": "address",
          "name": "auth",
          "type": "address"
        }
      ],
      "name": "removeAuthority",
      "outputs": [],
      "stateMutability": "nonpayable",
      "type": "function"
    },
    {
      "inputs": [
        {
          "internalType": "address",
          "name": "sanc",
          "type": "address"
        }
      ],
      "name": "removeSanction",
      "outputs": [],
      "stateMutability": "nonpayable",
      "type": "function"
    },
    {
      "inputs": [
        {
          "internalType": "address",
          "name": "",
          "type": "address"
        }
      ],
      "name": "sanctioned",
      "outputs": [
        {
          "internalType": "bool",
          "name": "",
          "type": "bool"
        }
      ],
      "stateMutability": "view",
      "type": "function"
    },
    {
      "inputs": [],
      "name": "symbol",
      "outputs": [
        {
          "internalType": "string",
          "name": "",
          "type": "string"
        }
      ],
      "stateMutability": "view",
      "type": "function"
    },
    {
      "inputs": [],
      "name": "totalSupply",
      "outputs": [
        {
          "internalType": "uint256",
          "name": "",
          "type": "uint256"
        }
      ],
      "stateMutability": "view",
      "type": "function"
    },
    {
      "inputs": [
        {
          "internalType": "address",
          "name": "to",
          "type": "address"
        },
        {
          "internalType": "uint256",
          "name": "amount",
          "type": "uint256"
        }
      ],
      "name": "transfer",
      "outputs": [
        {
          "internalType": "bool",
          "name": "",
          "type": "bool"
        }
      ],
      "stateMutability": "nonpayable",
      "type": "function"
    },
    {
      "inputs": [
        {
          "internalType": "address",
          "name": "from",
          "type": "address"
        },
        {
          "internalType": "address",
          "name": "to",
          "type": "address"
        },
        {
          "internalType": "uint256",
          "name": "amount",
          "type": "uint256"
        }
      ],
      "name": "transferFrom",
      "outputs": [
        {
          "internalType": "bool",
          "name": "",
          "type": "bool"
        }
      ],
      "stateMutability": "nonpayable",
      "type": "function"
    }
  ],
  "bytecode": "0x60806040526127106005553480156200001757600080fd5b506040518060400160405280600581526020017f444d3474680000000000000000000000000000000000000000000000000000008152506040518060400160405280600381526020017f444d340000000000000000000000000000000000000000000000000000000000815250816003908162000095919062000645565b508060049081620000a7919062000645565b50505033600660006101000a81548173ffffffffffffffffffffffffffffffffffffffff021916908373ffffffffffffffffffffffffffffffffffffffff16021790555062000121600660009054906101000a900473ffffffffffffffffffffffffffffffffffffffff16600554620001a160201b60201c565b600160076000600660009054906101000a900473ffffffffffffffffffffffffffffffffffffffff1673ffffffffffffffffffffffffffffffffffffffff1673ffffffffffffffffffffffffffffffffffffffff16815260200190815260200160002060006101000a81548160ff021916908315150217905550620008df565b600073ffffffffffffffffffffffffffffffffffffffff168273ffffffffffffffffffffffffffffffffffffffff160362000213576040517f08c379a00000000000000000000000000000000000000000000000000000000081526004016200020a906200078d565b60405180910390fd5b62000227600083836200030e60201b60201c565b80600260008282546200023b9190620007de565b92505081905550806000808473ffffffffffffffffffffffffffffffffffffffff1673ffffffffffffffffffffffffffffffffffffffff168152602001908152602001600020600082825401925050819055508173ffffffffffffffffffffffffffffffffffffffff16600073ffffffffffffffffffffffffffffffffffffffff167fddf252ad1be2c89b69c2b068fc378daa952ba7f163c4a11628f55a4df523b3ef83604051620002ee91906200082a565b60405180910390a36200030a60008383620003c160201b60201c565b5050565b62000326838383620003c660201b620011e61760201c565b60001515600860008473ffffffffffffffffffffffffffffffffffffffff1673ffffffffffffffffffffffffffffffffffffffff16815260200190815260200160002060009054906101000a900460ff16151514620003bc576040517f08c379a0000000000000000000000000000000000000000000000000000000008152600401620003b390620008bd565b60405180910390fd5b505050565b505050565b505050565b600081519050919050565b7f4e487b7100000000000000000000000000000000000000000000000000000000600052604160045260246000fd5b7f4e487b7100000000000000000000000000000000000000000000000000000000600052602260045260246000fd5b600060028204905060018216806200044d57607f821691505b60208210810362000463576200046262000405565b5b50919050565b60008190508160005260206000209050919050565b60006020601f8301049050919050565b600082821b905092915050565b600060088302620004cd7fffffffffffffffffffffffffffffffffffffffffffffffffffffffffffffffff826200048e565b620004d986836200048e565b95508019841693508086168417925050509392505050565b6000819050919050565b6000819050919050565b600062000526620005206200051a84620004f1565b620004fb565b620004f1565b9050919050565b6000819050919050565b620005428362000505565b6200055a62000551826200052d565b8484546200049b565b825550505050565b600090565b6200057162000562565b6200057e81848462000537565b505050565b5b81811015620005a6576200059a60008262000567565b60018101905062000584565b5050565b601f821115620005f557620005bf8162000469565b620005ca846200047e565b81016020851015620005da578190505b620005f2620005e9856200047e565b83018262000583565b50505b505050565b600082821c905092915050565b60006200061a60001984600802620005fa565b1980831691505092915050565b600062000635838362000607565b9150826002028217905092915050565b6200065082620003cb565b67ffffffffffffffff8111156200066c576200066b620003d6565b5b62000678825462000434565b62000685828285620005aa565b600060209050601f831160018114620006bd5760008415620006a8578287015190505b620006b4858262000627565b86555062000724565b601f198416620006cd8662000469565b60005b82811015620006f757848901518255600182019150602085019450602081019050620006d0565b8683101562000717578489015162000713601f89168262000607565b8355505b6001600288020188555050505b505050505050565b600082825260208201905092915050565b7f45524332303a206d696e7420746f20746865207a65726f206164647265737300600082015250565b600062000775601f836200072c565b915062000782826200073d565b602082019050919050565b60006020820190508181036000830152620007a88162000766565b9050919050565b7f4e487b7100000000000000000000000000000000000000000000000000000000600052601160045260246000fd5b6000620007eb82620004f1565b9150620007f883620004f1565b9250828201905080821115620008135762000812620007af565b5b92915050565b6200082481620004f1565b82525050565b600060208201905062000841600083018462000819565b92915050565b7f56494f4c4154494f4e21212043616e6e6f74207472616e7366657220746f206160008201527f2073616e6374696f6e6564206164647265737321000000000000000000000000602082015250565b6000620008a56034836200072c565b9150620008b28262000847565b604082019050919050565b60006020820190508181036000830152620008d88162000896565b9050919050565b6128ce80620008ef6000396000f3fe608060405234801561001057600080fd5b50600436106101425760003560e01c806370a08231116100b8578063a457c2d71161007c578063a457c2d714610373578063a9059cbb146103a3578063d544e010146103d3578063dd62ed3e146103ef578063e7839fd81461041f578063eae4f19f1461043d57610142565b806370a08231146102bd57806371e15d42146102ed57806391223d691461030957806395d89b41146103395780639d548a7e1461035757610142565b8063313ce5671161010a578063313ce567146101ff578063395093511461021d5780633d30a7941461024d5780635e2b20721461026957806368038ad7146102855780636f71b3ad146102a157610142565b806306fdde0314610147578063095ea7b31461016557806318160ddd1461019557806323b872dd146101b357806326defa73146101e3575b600080fd5b61014f61046d565b60405161015c9190611b19565b60405180910390f35b61017f600480360381019061017a9190611bd4565b6104ff565b60405161018c9190611c2f565b60405180910390f35b61019d610522565b6040516101aa9190611c59565b60405180910390f35b6101cd60048036038101906101c89190611c74565b61052c565b6040516101da9190611c2f565b60405180910390f35b6101fd60048036038101906101f89190611cc7565b61055b565b005b610207610713565b6040516102149190611d10565b60405180910390f35b61023760048036038101906102329190611bd4565b61071c565b6040516102449190611c2f565b60405180910390f35b61026760048036038101906102629190611bd4565b610753565b005b610283600480360381019061027e9190611cc7565b61082a565b005b61029f600480360381019061029a9190611cc7565b61094f565b005b6102bb60048036038101906102b69190611bd4565b610b5c565b005b6102d760048036038101906102d29190611cc7565b610c33565b6040516102e49190611c59565b60405180910390f35b61030760048036038101906103029190611bd4565b610c7b565b005b610323600480360381019061031e9190611cc7565b610d40565b6040516103309190611c2f565b60405180910390f35b610341610d60565b60405161034e9190611b19565b60405180910390f35b610371600480360381019061036c9190611c74565b610df2565b005b61038d60048036038101906103889190611bd4565b610ecd565b60405161039a9190611c2f565b60405180910390f35b6103bd60048036038101906103b89190611bd4565b610f44565b6040516103ca9190611c2f565b60405180910390f35b6103ed60048036038101906103e89190611cc7565b610f67565b005b61040960048036038101906104049190611d2b565b611119565b6040516104169190611c59565b60405180910390f35b6104276111a0565b6040516104349190611d7a565b60405180910390f35b61045760048036038101906104529190611cc7565b6111c6565b6040516104649190611c2f565b60405180910390f35b60606003805461047c90611dc4565b80601f01602080910402602001604051908101604052809291908181526020018280546104a890611dc4565b80156104f55780601f106104ca576101008083540402835291602001916104f5565b820191906000526020600020905b8154815290600101906020018083116104d857829003601f168201915b5050505050905090565b60008061050a6111eb565b90506105178185856111f3565b600191505092915050565b6000600254905090565b6000806105376111eb565b90506105448582856113bc565b61054f858585611448565b60019150509392505050565b60011515600760003373ffffffffffffffffffffffffffffffffffffffff1673ffffffffffffffffffffffffffffffffffffffff16815260200190815260200160002060009054906101000a900460ff161515146105ee576040517f08c379a00000000000000000000000000000000000000000000000000000000081526004016105e590611e67565b60405180910390fd5b60001515600860008373ffffffffffffffffffffffffffffffffffffffff1673ffffffffffffffffffffffffffffffffffffffff16815260200190815260200160002060009054906101000a900460ff16151514610681576040517f08c379a000000000000000000000000000000000000000000000000000000000815260040161067890611ef9565b60405180910390fd5b6001600760008373ffffffffffffffffffffffffffffffffffffffff1673ffffffffffffffffffffffffffffffffffffffff16815260200190815260200160002060006101000a81548160ff0219169083151502179055507f6821928b9fe6f9a5bb373539ae35f3ce4434b5b8eeeded54d572f6569e2f9e59816040516107089190611d7a565b60405180910390a150565b60006012905090565b6000806107276111eb565b90506107488185856107398589611119565b6107439190611f48565b6111f3565b600191505092915050565b600660009054906101000a900473ffffffffffffffffffffffffffffffffffffffff1673ffffffffffffffffffffffffffffffffffffffff163373ffffffffffffffffffffffffffffffffffffffff16146107e3576040517f08c379a00000000000000000000000000000000000000000000000000000000081526004016107da90611fc8565b60405180910390fd5b6107ed82826116be565b7fbdc0a7371f0a767be1e76cef1fbef45633378b4a2a9f248781b81b6c3dacb612828260405161081e929190611fe8565b60405180910390a15050565b60011515600760003373ffffffffffffffffffffffffffffffffffffffff1673ffffffffffffffffffffffffffffffffffffffff16815260200190815260200160002060009054906101000a900460ff161515146108bd576040517f08c379a00000000000000000000000000000000000000000000000000000000081526004016108b490612083565b60405180910390fd5b6000600860008373ffffffffffffffffffffffffffffffffffffffff1673ffffffffffffffffffffffffffffffffffffffff16815260200190815260200160002060006101000a81548160ff0219169083151502179055507fc66fe56647896b085e2dc084f3a4fdc93ef40bbe864e316f9347f2b1d5bbb05d816040516109449190611d7a565b60405180910390a150565b60011515600760003373ffffffffffffffffffffffffffffffffffffffff1673ffffffffffffffffffffffffffffffffffffffff16815260200190815260200160002060009054906101000a900460ff161515146109e2576040517f08c379a00000000000000000000000000000000000000000000000000000000081526004016109d990612083565b60405180910390fd5b600660009054906101000a900473ffffffffffffffffffffffffffffffffffffffff1673ffffffffffffffffffffffffffffffffffffffff168173ffffffffffffffffffffffffffffffffffffffff1603610a72576040517f08c379a0000000000000000000000000000000000000000000000000000000008152600401610a69906120ef565b60405180910390fd5b6001600860008373ffffffffffffffffffffffffffffffffffffffff1673ffffffffffffffffffffffffffffffffffffffff16815260200190815260200160002060006101000a81548160ff0219169083151502179055506000600760008373ffffffffffffffffffffffffffffffffffffffff1673ffffffffffffffffffffffffffffffffffffffff16815260200190815260200160002060006101000a81548160ff0219169083151502179055507fc86c98cf54bcc0b90db7e2abb52d6a184fd9b42f3b00ea6e42b24f03054a4cdf81604051610b519190611d7a565b60405180910390a150565b600660009054906101000a900473ffffffffffffffffffffffffffffffffffffffff1673ffffffffffffffffffffffffffffffffffffffff163373ffffffffffffffffffffffffffffffffffffffff1614610bec576040517f08c379a0000000000000000000000000000000000000000000000000000000008152600401610be390611fc8565b60405180910390fd5b610bf6828261188b565b7f38c2c2a92a0cd401096b037595bcb9147c426d8c19c20a064b9132d4a82373768282604051610c27929190611fe8565b60405180910390a15050565b60008060008373ffffffffffffffffffffffffffffffffffffffff1673ffffffffffffffffffffffffffffffffffffffff168152602001908152602001600020549050919050565b6000610c8683610c33565b9050808203610cca576040517f08c379a0000000000000000000000000000000000000000000000000000000008152600401610cc190612181565b60405180910390fd5b81811015610cec57610ce7838284610ce291906121a1565b610b5c565b610d02565b610d01838383610cfc91906121a1565b610753565b5b7f808b3fe63ee188e2cf302ffac826b7b612384c2c601ee9623877bd067cf9b3228383604051610d33929190611fe8565b60405180910390a1505050565b60076020528060005260406000206000915054906101000a900460ff1681565b606060048054610d6f90611dc4565b80601f0160208091040260200160405190810160405280929190818152602001828054610d9b90611dc4565b8015610de85780601f10610dbd57610100808354040283529160200191610de8565b820191906000526020600020905b815481529060010190602001808311610dcb57829003601f168201915b5050505050905090565b600660009054906101000a900473ffffffffffffffffffffffffffffffffffffffff1673ffffffffffffffffffffffffffffffffffffffff163373ffffffffffffffffffffffffffffffffffffffff1614610e82576040517f08c379a0000000000000000000000000000000000000000000000000000000008152600401610e7990611fc8565b60405180910390fd5b610e8d838383611448565b7f85a873f1151b5e8ef4e91314e535c8bd068ff4f10ee61a50738b903150e4b10c838383604051610ec0939291906121d5565b60405180910390a1505050565b600080610ed86111eb565b90506000610ee68286611119565b905083811015610f2b576040517f08c379a0000000000000000000000000000000000000000000000000000000008152600401610f229061227e565b60405180910390fd5b610f3882868684036111f3565b60019250505092915050565b600080610f4f6111eb565b9050610f5c818585611448565b600191505092915050565b600660009054906101000a900473ffffffffffffffffffffffffffffffffffffffff1673ffffffffffffffffffffffffffffffffffffffff163373ffffffffffffffffffffffffffffffffffffffff1614610ff7576040517f08c379a0000000000000000000000000000000000000000000000000000000008152600401610fee90611fc8565b60405180910390fd5b600660009054906101000a900473ffffffffffffffffffffffffffffffffffffffff1673ffffffffffffffffffffffffffffffffffffffff168173ffffffffffffffffffffffffffffffffffffffff1603611087576040517f08c379a000000000000000000000000000000000000000000000000000000000815260040161107e90612310565b60405180910390fd5b6000600760008373ffffffffffffffffffffffffffffffffffffffff1673ffffffffffffffffffffffffffffffffffffffff16815260200190815260200160002060006101000a81548160ff0219169083151502179055507f094ca5f27671595b2d6098122778a7ca0b9ce30081cf47566f49df3c7969e27d8160405161110e9190611d7a565b60405180910390a150565b6000600160008473ffffffffffffffffffffffffffffffffffffffff1673ffffffffffffffffffffffffffffffffffffffff16815260200190815260200160002060008373ffffffffffffffffffffffffffffffffffffffff1673ffffffffffffffffffffffffffffffffffffffff16815260200190815260200160002054905092915050565b600660009054906101000a900473ffffffffffffffffffffffffffffffffffffffff1681565b60086020528060005260406000206000915054906101000a900460ff1681565b505050565b600033905090565b600073ffffffffffffffffffffffffffffffffffffffff168373ffffffffffffffffffffffffffffffffffffffff1603611262576040517f08c379a0000000000000000000000000000000000000000000000000000000008152600401611259906123a2565b60405180910390fd5b600073ffffffffffffffffffffffffffffffffffffffff168273ffffffffffffffffffffffffffffffffffffffff16036112d1576040517f08c379a00000000000000000000000000000000000000000000000000000000081526004016112c890612434565b60405180910390fd5b80600160008573ffffffffffffffffffffffffffffffffffffffff1673ffffffffffffffffffffffffffffffffffffffff16815260200190815260200160002060008473ffffffffffffffffffffffffffffffffffffffff1673ffffffffffffffffffffffffffffffffffffffff168152602001908152602001600020819055508173ffffffffffffffffffffffffffffffffffffffff168373ffffffffffffffffffffffffffffffffffffffff167f8c5be1e5ebec7d5bd14f71427d1e84f3dd0314c0f7b2291e5b200ac8c7c3b925836040516113af9190611c59565b60405180910390a3505050565b60006113c88484611119565b90507fffffffffffffffffffffffffffffffffffffffffffffffffffffffffffffffff81146114425781811015611434576040517f08c379a000000000000000000000000000000000000000000000000000000000815260040161142b906124a0565b60405180910390fd5b61144184848484036111f3565b5b50505050565b600073ffffffffffffffffffffffffffffffffffffffff168373ffffffffffffffffffffffffffffffffffffffff16036114b7576040517f08c379a00000000000000000000000000000000000000000000000000000000081526004016114ae90612532565b60405180910390fd5b600073ffffffffffffffffffffffffffffffffffffffff168273ffffffffffffffffffffffffffffffffffffffff1603611526576040517f08c379a000000000000000000000000000000000000000000000000000000000815260040161151d906125c4565b60405180910390fd5b6115318383836119e1565b60008060008573ffffffffffffffffffffffffffffffffffffffff1673ffffffffffffffffffffffffffffffffffffffff168152602001908152602001600020549050818110156115b7576040517f08c379a00000000000000000000000000000000000000000000000000000000081526004016115ae90612656565b60405180910390fd5b8181036000808673ffffffffffffffffffffffffffffffffffffffff1673ffffffffffffffffffffffffffffffffffffffff16815260200190815260200160002081905550816000808573ffffffffffffffffffffffffffffffffffffffff1673ffffffffffffffffffffffffffffffffffffffff168152602001908152602001600020600082825401925050819055508273ffffffffffffffffffffffffffffffffffffffff168473ffffffffffffffffffffffffffffffffffffffff167fddf252ad1be2c89b69c2b068fc378daa952ba7f163c4a11628f55a4df523b3ef846040516116a59190611c59565b60405180910390a36116b8848484611a84565b50505050565b600073ffffffffffffffffffffffffffffffffffffffff168273ffffffffffffffffffffffffffffffffffffffff160361172d576040517f08c379a0000000000000000000000000000000000000000000000000000000008152600401611724906126e8565b60405180910390fd5b611739826000836119e1565b60008060008473ffffffffffffffffffffffffffffffffffffffff1673ffffffffffffffffffffffffffffffffffffffff168152602001908152602001600020549050818110156117bf576040517f08c379a00000000000000000000000000000000000000000000000000000000081526004016117b69061277a565b60405180910390fd5b8181036000808573ffffffffffffffffffffffffffffffffffffffff1673ffffffffffffffffffffffffffffffffffffffff1681526020019081526020016000208190555081600260008282540392505081905550600073ffffffffffffffffffffffffffffffffffffffff168373ffffffffffffffffffffffffffffffffffffffff167fddf252ad1be2c89b69c2b068fc378daa952ba7f163c4a11628f55a4df523b3ef846040516118729190611c59565b60405180910390a361188683600084611a84565b505050565b600073ffffffffffffffffffffffffffffffffffffffff168273ffffffffffffffffffffffffffffffffffffffff16036118fa576040517f08c379a00000000000000000000000000000000000000000000000000000000081526004016118f1906127e6565b60405180910390fd5b611906600083836119e1565b80600260008282546119189190611f48565b92505081905550806000808473ffffffffffffffffffffffffffffffffffffffff1673ffffffffffffffffffffffffffffffffffffffff168152602001908152602001600020600082825401925050819055508173ffffffffffffffffffffffffffffffffffffffff16600073ffffffffffffffffffffffffffffffffffffffff167fddf252ad1be2c89b69c2b068fc378daa952ba7f163c4a11628f55a4df523b3ef836040516119c99190611c59565b60405180910390a36119dd60008383611a84565b5050565b6119ec8383836111e6565b60001515600860008473ffffffffffffffffffffffffffffffffffffffff1673ffffffffffffffffffffffffffffffffffffffff16815260200190815260200160002060009054906101000a900460ff16151514611a7f576040517f08c379a0000000000000000000000000000000000000000000000000000000008152600401611a7690612878565b60405180910390fd5b505050565b505050565b600081519050919050565b600082825260208201905092915050565b60005b83811015611ac3578082015181840152602081019050611aa8565b60008484015250505050565b6000601f19601f8301169050919050565b6000611aeb82611a89565b611af58185611a94565b9350611b05818560208601611aa5565b611b0e81611acf565b840191505092915050565b60006020820190508181036000830152611b338184611ae0565b905092915050565b600080fd5b600073ffffffffffffffffffffffffffffffffffffffff82169050919050565b6000611b6b82611b40565b9050919050565b611b7b81611b60565b8114611b8657600080fd5b50565b600081359050611b9881611b72565b92915050565b6000819050919050565b611bb181611b9e565b8114611bbc57600080fd5b50565b600081359050611bce81611ba8565b92915050565b60008060408385031215611beb57611bea611b3b565b5b6000611bf985828601611b89565b9250506020611c0a85828601611bbf565b9150509250929050565b60008115159050919050565b611c2981611c14565b82525050565b6000602082019050611c446000830184611c20565b92915050565b611c5381611b9e565b82525050565b6000602082019050611c6e6000830184611c4a565b92915050565b600080600060608486031215611c8d57611c8c611b3b565b5b6000611c9b86828701611b89565b9350506020611cac86828701611b89565b9250506040611cbd86828701611bbf565b9150509250925092565b600060208284031215611cdd57611cdc611b3b565b5b6000611ceb84828501611b89565b91505092915050565b600060ff82169050919050565b611d0a81611cf4565b82525050565b6000602082019050611d256000830184611d01565b92915050565b60008060408385031215611d4257611d41611b3b565b5b6000611d5085828601611b89565b9250506020611d6185828601611b89565b9150509250929050565b611d7481611b60565b82525050565b6000602082019050611d8f6000830184611d6b565b92915050565b7f4e487b7100000000000000000000000000000000000000000000000000000000600052602260045260246000fd5b60006002820490506001821680611ddc57607f821691505b602082108103611def57611dee611d95565b5b50919050565b7f4d757374206265636f6d6520616e20617574686f72697479206265666f72652060008201527f706572666f726d696e67207468697320616374696f6e21210000000000000000602082015250565b6000611e51603883611a94565b9150611e5c82611df5565b604082019050919050565b60006020820190508181036000830152611e8081611e44565b9050919050565b7f43616e6e6f74206d616b6520612073616e6374696f6e6564206164647265737360008201527f20616e20617574686f7269747921210000000000000000000000000000000000602082015250565b6000611ee3602f83611a94565b9150611eee82611e87565b604082019050919050565b60006020820190508181036000830152611f1281611ed6565b9050919050565b7f4e487b7100000000000000000000000000000000000000000000000000000000600052601160045260246000fd5b6000611f5382611b9e565b9150611f5e83611b9e565b9250828201905080821115611f7657611f75611f19565b5b92915050565b7f596f7520646f206e6f7420686176652074686520706f77657221210000000000600082015250565b6000611fb2601b83611a94565b9150611fbd82611f7c565b602082019050919050565b60006020820190508181036000830152611fe181611fa5565b9050919050565b6000604082019050611ffd6000830185611d6b565b61200a6020830184611c4a565b9392505050565b7f4d757374206265636f6d6520616e20617574686f72697479206265666f72652060008201527f706572666f726d696e67207468697320616374696f6e00000000000000000000602082015250565b600061206d603683611a94565b915061207882612011565b604082019050919050565b6000602082019050818103600083015261209c81612060565b9050919050565b7f43616e6e6f742073616e6374696f6e20676f6421210000000000000000000000600082015250565b60006120d9601583611a94565b91506120e4826120a3565b602082019050919050565b60006020820190508181036000830152612108816120cc565b9050919050565b7f4e6f206e65656420746f206368616e67652062616c616e636573202d20416c7260008201527f6561647920617420746861742076616c75650000000000000000000000000000602082015250565b600061216b603283611a94565b91506121768261210f565b604082019050919050565b6000602082019050818103600083015261219a8161215e565b9050919050565b60006121ac82611b9e565b91506121b783611b9e565b92508282039050818111156121cf576121ce611f19565b5b92915050565b60006060820190506121ea6000830186611d6b565b6121f76020830185611d6b565b6122046040830184611c4a565b949350505050565b7f45524332303a2064656372656173656420616c6c6f77616e63652062656c6f7760008201527f207a65726f000000000000000000000000000000000000000000000000000000602082015250565b6000612268602583611a94565b91506122738261220c565b604082019050919050565b600060208201905081810360008301526122978161225b565b9050919050565b7f43616e6e6f742072656d6f766520676f6420617320616e20617574686f72697460008201527f7921210000000000000000000000000000000000000000000000000000000000602082015250565b60006122fa602383611a94565b91506123058261229e565b604082019050919050565b60006020820190508181036000830152612329816122ed565b9050919050565b7f45524332303a20617070726f76652066726f6d20746865207a65726f2061646460008201527f7265737300000000000000000000000000000000000000000000000000000000602082015250565b600061238c602483611a94565b915061239782612330565b604082019050919050565b600060208201905081810360008301526123bb8161237f565b9050919050565b7f45524332303a20617070726f766520746f20746865207a65726f20616464726560008201527f7373000000000000000000000000000000000000000000000000000000000000602082015250565b600061241e602283611a94565b9150612429826123c2565b604082019050919050565b6000602082019050818103600083015261244d81612411565b9050919050565b7f45524332303a20696e73756666696369656e7420616c6c6f77616e6365000000600082015250565b600061248a601d83611a94565b915061249582612454565b602082019050919050565b600060208201905081810360008301526124b98161247d565b9050919050565b7f45524332303a207472616e736665722066726f6d20746865207a65726f20616460008201527f6472657373000000000000000000000000000000000000000000000000000000602082015250565b600061251c602583611a94565b9150612527826124c0565b604082019050919050565b6000602082019050818103600083015261254b8161250f565b9050919050565b7f45524332303a207472616e7366657220746f20746865207a65726f206164647260008201527f6573730000000000000000000000000000000000000000000000000000000000602082015250565b60006125ae602383611a94565b91506125b982612552565b604082019050919050565b600060208201905081810360008301526125dd816125a1565b9050919050565b7f45524332303a207472616e7366657220616d6f756e742065786365656473206260008201527f616c616e63650000000000000000000000000000000000000000000000000000602082015250565b6000612640602683611a94565b915061264b826125e4565b604082019050919050565b6000602082019050818103600083015261266f81612633565b9050919050565b7f45524332303a206275726e2066726f6d20746865207a65726f2061646472657360008201527f7300000000000000000000000000000000000000000000000000000000000000602082015250565b60006126d2602183611a94565b91506126dd82612676565b604082019050919050565b60006020820190508181036000830152612701816126c5565b9050919050565b7f45524332303a206275726e20616d6f756e7420657863656564732062616c616e60008201527f6365000000000000000000000000000000000000000000000000000000000000602082015250565b6000612764602283611a94565b915061276f82612708565b604082019050919050565b6000602082019050818103600083015261279381612757565b9050919050565b7f45524332303a206d696e7420746f20746865207a65726f206164647265737300600082015250565b60006127d0601f83611a94565b91506127db8261279a565b602082019050919050565b600060208201905081810360008301526127ff816127c3565b9050919050565b7f56494f4c4154494f4e21212043616e6e6f74207472616e7366657220746f206160008201527f2073616e6374696f6e6564206164647265737321000000000000000000000000602082015250565b6000612862603483611a94565b915061286d82612806565b604082019050919050565b6000602082019050818103600083015261289181612855565b905091905056fea26469706673582212201a62d61f22f618b12dde887f94473989037757a9107dd3e2441dcbbc0c8481c264736f6c63430008110033",
  "linkReferences": {},
  "deployedLinkReferences": {}
}