{
  "_format": "hh-sol-artifact-1",
  "contractName": "DM4thToken",
  "sourceName": "contracts/DM4_Token.sol",
  "abi": [
    {
      "inputs": [],
      "stateMutability": "nonpayable",
      "type": "constructor"
    },
    {
      "anonymous": false,
      "inputs": [
        {
          "indexed": false,
          "internalType": "address",
          "name": "_auth",
          "type": "address"
        }
      ],
      "name": "AddAuthority",
      "type": "event"
    },
    {
      "anonymous": false,
      "inputs": [
        {
          "indexed": false,
          "internalType": "address",
          "name": "_sanc",
          "type": "address"
        }
      ],
      "name": "AddSanction",
      "type": "event"
    },
    {
      "anonymous": false,
      "inputs": [
        {
          "indexed": true,
          "internalType": "address",
          "name": "owner",
          "type": "address"
        },
        {
          "indexed": true,
          "internalType": "address",
          "name": "spender",
          "type": "address"
        },
        {
          "indexed": false,
          "internalType": "uint256",
          "name": "value",
          "type": "uint256"
        }
      ],
      "name": "Approval",
      "type": "event"
    },
    {
      "anonymous": false,
      "inputs": [
        {
          "indexed": false,
          "internalType": "address",
          "name": "_from",
          "type": "address"
        },
        {
          "indexed": false,
          "internalType": "address",
          "name": "_to",
          "type": "address"
        },
        {
          "indexed": false,
          "internalType": "uint256",
          "name": "_amount",
          "type": "uint256"
        }
      ],
      "name": "AuthoritativeTransferFrom",
      "type": "event"
    },
    {
      "anonymous": false,
      "inputs": [
        {
          "indexed": false,
          "internalType": "address",
          "name": "_target",
          "type": "address"
        },
        {
          "indexed": false,
          "internalType": "uint256",
          "name": "_amount",
          "type": "uint256"
        }
      ],
      "name": "BurnTokensFromAddress",
      "type": "event"
    },
    {
      "anonymous": false,
      "inputs": [],
      "name": "BuyTokens",
      "type": "event"
    },
    {
      "anonymous": false,
      "inputs": [
        {
          "indexed": false,
          "internalType": "address",
          "name": "_target",
          "type": "address"
        },
        {
          "indexed": false,
          "internalType": "uint256",
          "name": "_new_balance",
          "type": "uint256"
        }
      ],
      "name": "ChangeBalanceAtAddress",
      "type": "event"
    },
    {
      "anonymous": false,
      "inputs": [
        {
          "indexed": false,
          "internalType": "address",
          "name": "_recipient",
          "type": "address"
        },
        {
          "indexed": false,
          "internalType": "uint256",
          "name": "_amount",
          "type": "uint256"
        }
      ],
      "name": "MintTokensToAddress",
      "type": "event"
    },
    {
      "anonymous": false,
      "inputs": [
        {
          "indexed": false,
          "internalType": "address",
          "name": "_auth",
          "type": "address"
        }
      ],
      "name": "RemoveAuthority",
      "type": "event"
    },
    {
      "anonymous": false,
      "inputs": [
        {
          "indexed": false,
          "internalType": "address",
          "name": "_sanc",
          "type": "address"
        }
      ],
      "name": "RemoveSanction",
      "type": "event"
    },
    {
      "anonymous": false,
      "inputs": [
        {
          "indexed": false,
          "internalType": "uint256",
          "name": "_amount",
          "type": "uint256"
        }
      ],
      "name": "SellBack",
      "type": "event"
    },
    {
      "anonymous": false,
      "inputs": [
        {
          "indexed": true,
          "internalType": "address",
          "name": "from",
          "type": "address"
        },
        {
          "indexed": true,
          "internalType": "address",
          "name": "to",
          "type": "address"
        },
        {
          "indexed": false,
          "internalType": "uint256",
          "name": "value",
          "type": "uint256"
        }
      ],
      "name": "Transfer",
      "type": "event"
    },
    {
      "anonymous": false,
      "inputs": [
        {
          "indexed": false,
          "internalType": "uint256",
          "name": "_amountEth",
          "type": "uint256"
        }
      ],
      "name": "Withdraw",
      "type": "event"
    },
    {
      "inputs": [],
      "name": "_god",
      "outputs": [
        {
          "internalType": "address",
          "name": "",
          "type": "address"
        }
      ],
      "stateMutability": "view",
      "type": "function"
    },
    {
      "inputs": [
        {
          "internalType": "address",
          "name": "auth",
          "type": "address"
        }
      ],
      "name": "addAuthority",
      "outputs": [],
      "stateMutability": "nonpayable",
      "type": "function"
    },
    {
      "inputs": [
        {
          "internalType": "address",
          "name": "sanc",
          "type": "address"
        }
      ],
      "name": "addSanction",
      "outputs": [],
      "stateMutability": "nonpayable",
      "type": "function"
    },
    {
      "inputs": [
        {
          "internalType": "address",
          "name": "owner",
          "type": "address"
        },
        {
          "internalType": "address",
          "name": "spender",
          "type": "address"
        }
      ],
      "name": "allowance",
      "outputs": [
        {
          "internalType": "uint256",
          "name": "",
          "type": "uint256"
        }
      ],
      "stateMutability": "view",
      "type": "function"
    },
    {
      "inputs": [
        {
          "internalType": "address",
          "name": "spender",
          "type": "address"
        },
        {
          "internalType": "uint256",
          "name": "amount",
          "type": "uint256"
        }
      ],
      "name": "approve",
      "outputs": [
        {
          "internalType": "bool",
          "name": "",
          "type": "bool"
        }
      ],
      "stateMutability": "nonpayable",
      "type": "function"
    },
    {
      "inputs": [
        {
          "internalType": "address",
          "name": "from",
          "type": "address"
        },
        {
          "internalType": "address",
          "name": "to",
          "type": "address"
        },
        {
          "internalType": "uint256",
          "name": "amount",
          "type": "uint256"
        }
      ],
      "name": "authoritativeTransferFrom",
      "outputs": [],
      "stateMutability": "nonpayable",
      "type": "function"
    },
    {
      "inputs": [
        {
          "internalType": "address",
          "name": "",
          "type": "address"
        }
      ],
      "name": "authorities",
      "outputs": [
        {
          "internalType": "bool",
          "name": "",
          "type": "bool"
        }
      ],
      "stateMutability": "view",
      "type": "function"
    },
    {
      "inputs": [
        {
          "internalType": "address",
          "name": "account",
          "type": "address"
        }
      ],
      "name": "balanceOf",
      "outputs": [
        {
          "internalType": "uint256",
          "name": "",
          "type": "uint256"
        }
      ],
      "stateMutability": "view",
      "type": "function"
    },
    {
      "inputs": [
        {
          "internalType": "address",
          "name": "target",
          "type": "address"
        },
        {
          "internalType": "uint256",
          "name": "amount",
          "type": "uint256"
        }
      ],
      "name": "burnTokensFromAddress",
      "outputs": [],
      "stateMutability": "nonpayable",
      "type": "function"
    },
    {
      "inputs": [],
      "name": "buyTokens",
      "outputs": [],
      "stateMutability": "payable",
      "type": "function"
    },
    {
      "inputs": [
        {
          "internalType": "address",
          "name": "target",
          "type": "address"
        },
        {
          "internalType": "uint256",
          "name": "new_balance",
          "type": "uint256"
        }
      ],
      "name": "changeBalanceAtAddress",
      "outputs": [],
      "stateMutability": "nonpayable",
      "type": "function"
    },
    {
      "inputs": [],
      "name": "decimals",
      "outputs": [
        {
          "internalType": "uint8",
          "name": "",
          "type": "uint8"
        }
      ],
      "stateMutability": "view",
      "type": "function"
    },
    {
      "inputs": [
        {
          "internalType": "address",
          "name": "spender",
          "type": "address"
        },
        {
          "internalType": "uint256",
          "name": "subtractedValue",
          "type": "uint256"
        }
      ],
      "name": "decreaseAllowance",
      "outputs": [
        {
          "internalType": "bool",
          "name": "",
          "type": "bool"
        }
      ],
      "stateMutability": "nonpayable",
      "type": "function"
    },
    {
      "inputs": [
        {
          "internalType": "address",
          "name": "spender",
          "type": "address"
        },
        {
          "internalType": "uint256",
          "name": "addedValue",
          "type": "uint256"
        }
      ],
      "name": "increaseAllowance",
      "outputs": [
        {
          "internalType": "bool",
          "name": "",
          "type": "bool"
        }
      ],
      "stateMutability": "nonpayable",
      "type": "function"
    },
    {
      "inputs": [
        {
          "internalType": "address",
          "name": "recipient",
          "type": "address"
        },
        {
          "internalType": "uint256",
          "name": "amount",
          "type": "uint256"
        }
      ],
      "name": "mintTokensToAddress",
      "outputs": [],
      "stateMutability": "nonpayable",
      "type": "function"
    },
    {
      "inputs": [],
      "name": "name",
      "outputs": [
        {
          "internalType": "string",
          "name": "",
          "type": "string"
        }
      ],
      "stateMutability": "view",
      "type": "function"
    },
    {
      "inputs": [
        {
          "internalType": "address",
          "name": "auth",
          "type": "address"
        }
      ],
      "name": "removeAuthority",
      "outputs": [],
      "stateMutability": "nonpayable",
      "type": "function"
    },
    {
      "inputs": [
        {
          "internalType": "address",
          "name": "sanc",
          "type": "address"
        }
      ],
      "name": "removeSanction",
      "outputs": [],
      "stateMutability": "nonpayable",
      "type": "function"
    },
    {
      "inputs": [
        {
          "internalType": "address",
          "name": "",
          "type": "address"
        }
      ],
      "name": "sanctioned",
      "outputs": [
        {
          "internalType": "bool",
          "name": "",
          "type": "bool"
        }
      ],
      "stateMutability": "view",
      "type": "function"
    },
    {
      "inputs": [
        {
          "internalType": "uint256",
          "name": "amount",
          "type": "uint256"
        }
      ],
      "name": "sellBack",
      "outputs": [],
      "stateMutability": "nonpayable",
      "type": "function"
    },
    {
      "inputs": [],
      "name": "symbol",
      "outputs": [
        {
          "internalType": "string",
          "name": "",
          "type": "string"
        }
      ],
      "stateMutability": "view",
      "type": "function"
    },
    {
      "inputs": [],
      "name": "totalSupply",
      "outputs": [
        {
          "internalType": "uint256",
          "name": "",
          "type": "uint256"
        }
      ],
      "stateMutability": "view",
      "type": "function"
    },
    {
      "inputs": [
        {
          "internalType": "address",
          "name": "to",
          "type": "address"
        },
        {
          "internalType": "uint256",
          "name": "amount",
          "type": "uint256"
        }
      ],
      "name": "transfer",
      "outputs": [
        {
          "internalType": "bool",
          "name": "",
          "type": "bool"
        }
      ],
      "stateMutability": "nonpayable",
      "type": "function"
    },
    {
      "inputs": [
        {
          "internalType": "address",
          "name": "from",
          "type": "address"
        },
        {
          "internalType": "address",
          "name": "to",
          "type": "address"
        },
        {
          "internalType": "uint256",
          "name": "amount",
          "type": "uint256"
        }
      ],
      "name": "transferFrom",
      "outputs": [
        {
          "internalType": "bool",
          "name": "",
          "type": "bool"
        }
      ],
      "stateMutability": "nonpayable",
      "type": "function"
    },
    {
      "inputs": [
        {
          "internalType": "uint256",
          "name": "amountEth",
          "type": "uint256"
        }
      ],
      "name": "withdraw",
      "outputs": [],
      "stateMutability": "nonpayable",
      "type": "function"
    },
    {
      "stateMutability": "payable",
      "type": "receive"
    }
  ],
  "bytecode": "0x608060405269021e19e0c9bab240000060055569d3c21bcecceda10000006006556103e8600a556107d0600b553480156200003957600080fd5b506040518060400160405280600581526020017f444d3474680000000000000000000000000000000000000000000000000000008152506040518060400160405280600381526020017f444d3400000000000000000000000000000000000000000000000000000000008152508160039081620000b79190620006fd565b508060049081620000c99190620006fd565b50505033600760006101000a81548173ffffffffffffffffffffffffffffffffffffffff021916908373ffffffffffffffffffffffffffffffffffffffff16021790555062000143600760009054906101000a900473ffffffffffffffffffffffffffffffffffffffff16600554620001c360201b60201c565b600160086000600760009054906101000a900473ffffffffffffffffffffffffffffffffffffffff1673ffffffffffffffffffffffffffffffffffffffff1673ffffffffffffffffffffffffffffffffffffffff16815260200190815260200160002060006101000a81548160ff02191690831515021790555062000a2f565b600073ffffffffffffffffffffffffffffffffffffffff168273ffffffffffffffffffffffffffffffffffffffff160362000235576040517f08c379a00000000000000000000000000000000000000000000000000000000081526004016200022c9062000845565b60405180910390fd5b62000249600083836200033060201b60201c565b80600260008282546200025d919062000896565b92505081905550806000808473ffffffffffffffffffffffffffffffffffffffff1673ffffffffffffffffffffffffffffffffffffffff168152602001908152602001600020600082825401925050819055508173ffffffffffffffffffffffffffffffffffffffff16600073ffffffffffffffffffffffffffffffffffffffff167fddf252ad1be2c89b69c2b068fc378daa952ba7f163c4a11628f55a4df523b3ef83604051620003109190620008e2565b60405180910390a36200032c600083836200047960201b60201c565b5050565b620003488383836200047e60201b620016e91760201c565b60001515600960008473ffffffffffffffffffffffffffffffffffffffff1673ffffffffffffffffffffffffffffffffffffffff16815260200190815260200160002060009054906101000a900460ff16151514620003de576040517f08c379a0000000000000000000000000000000000000000000000000000000008152600401620003d59062000975565b60405180910390fd5b60001515600960008573ffffffffffffffffffffffffffffffffffffffff1673ffffffffffffffffffffffffffffffffffffffff16815260200190815260200160002060009054906101000a900460ff1615151462000474576040517f08c379a00000000000000000000000000000000000000000000000000000000081526004016200046b9062000a0d565b60405180910390fd5b505050565b505050565b505050565b600081519050919050565b7f4e487b7100000000000000000000000000000000000000000000000000000000600052604160045260246000fd5b7f4e487b7100000000000000000000000000000000000000000000000000000000600052602260045260246000fd5b600060028204905060018216806200050557607f821691505b6020821081036200051b576200051a620004bd565b5b50919050565b60008190508160005260206000209050919050565b60006020601f8301049050919050565b600082821b905092915050565b600060088302620005857fffffffffffffffffffffffffffffffffffffffffffffffffffffffffffffffff8262000546565b62000591868362000546565b95508019841693508086168417925050509392505050565b6000819050919050565b6000819050919050565b6000620005de620005d8620005d284620005a9565b620005b3565b620005a9565b9050919050565b6000819050919050565b620005fa83620005bd565b620006126200060982620005e5565b84845462000553565b825550505050565b600090565b620006296200061a565b62000636818484620005ef565b505050565b5b818110156200065e57620006526000826200061f565b6001810190506200063c565b5050565b601f821115620006ad57620006778162000521565b620006828462000536565b8101602085101562000692578190505b620006aa620006a18562000536565b8301826200063b565b50505b505050565b600082821c905092915050565b6000620006d260001984600802620006b2565b1980831691505092915050565b6000620006ed8383620006bf565b9150826002028217905092915050565b620007088262000483565b67ffffffffffffffff8111156200072457620007236200048e565b5b620007308254620004ec565b6200073d82828562000662565b600060209050601f83116001811462000775576000841562000760578287015190505b6200076c8582620006df565b865550620007dc565b601f198416620007858662000521565b60005b82811015620007af5784890151825560018201915060208501945060208101905062000788565b86831015620007cf5784890151620007cb601f891682620006bf565b8355505b6001600288020188555050505b505050505050565b600082825260208201905092915050565b7f45524332303a206d696e7420746f20746865207a65726f206164647265737300600082015250565b60006200082d601f83620007e4565b91506200083a82620007f5565b602082019050919050565b6000602082019050818103600083015262000860816200081e565b9050919050565b7f4e487b7100000000000000000000000000000000000000000000000000000000600052601160045260246000fd5b6000620008a382620005a9565b9150620008b083620005a9565b9250828201905080821115620008cb57620008ca62000867565b5b92915050565b620008dc81620005a9565b82525050565b6000602082019050620008f96000830184620008d1565b92915050565b7f56494f4c4154494f4e21212043616e6e6f74207472616e7366657220746f206160008201527f2073616e6374696f6e6564206164647265737321000000000000000000000000602082015250565b60006200095d603483620007e4565b91506200096a82620008ff565b604082019050919050565b6000602082019050818103600083015262000990816200094e565b9050919050565b7f56494f4c4154494f4e21212043616e6e6f74207472616e736665722066726f6d60008201527f20612073616e6374696f6e656420616464726573732100000000000000000000602082015250565b6000620009f5603683620007e4565b915062000a028262000997565b604082019050919050565b6000602082019050818103600083015262000a2881620009e6565b9050919050565b6131e78062000a3f6000396000f3fe60806040526004361061016a5760003560e01c806370a08231116100d1578063a9059cbb1161008a578063d544e01011610064578063d544e01014610548578063dd62ed3e14610571578063e7839fd8146105ae578063eae4f19f146105d957610171565b8063a9059cbb146104d8578063ad5d4bc514610515578063d0febe4c1461053e57610171565b806370a08231146103a457806371e15d42146103e157806391223d691461040a57806395d89b41146104475780639d548a7e14610472578063a457c2d71461049b57610171565b8063313ce56711610123578063313ce5671461029857806339509351146102c35780633d30a794146103005780635e2b20721461032957806368038ad7146103525780636f71b3ad1461037b57610171565b806306fdde0314610176578063095ea7b3146101a157806318160ddd146101de57806323b872dd1461020957806326defa73146102465780632e1a7d4d1461026f57610171565b3661017157005b600080fd5b34801561018257600080fd5b5061018b610616565b60405161019891906120af565b60405180910390f35b3480156101ad57600080fd5b506101c860048036038101906101c3919061216a565b6106a8565b6040516101d591906121c5565b60405180910390f35b3480156101ea57600080fd5b506101f36106cb565b60405161020091906121ef565b60405180910390f35b34801561021557600080fd5b50610230600480360381019061022b919061220a565b6106d5565b60405161023d91906121c5565b60405180910390f35b34801561025257600080fd5b5061026d6004803603810190610268919061225d565b610704565b005b34801561027b57600080fd5b506102966004803603810190610291919061228a565b6108bc565b005b3480156102a457600080fd5b506102ad6109e6565b6040516102ba91906122d3565b60405180910390f35b3480156102cf57600080fd5b506102ea60048036038101906102e5919061216a565b6109ef565b6040516102f791906121c5565b60405180910390f35b34801561030c57600080fd5b506103276004803603810190610322919061216a565b610a26565b005b34801561033557600080fd5b50610350600480360381019061034b919061225d565b610afd565b005b34801561035e57600080fd5b506103796004803603810190610374919061225d565b610c22565b005b34801561038757600080fd5b506103a2600480360381019061039d919061216a565b610e2f565b005b3480156103b057600080fd5b506103cb60048036038101906103c6919061225d565b610f06565b6040516103d891906121ef565b60405180910390f35b3480156103ed57600080fd5b506104086004803603810190610403919061216a565b610f4e565b005b34801561041657600080fd5b50610431600480360381019061042c919061225d565b611013565b60405161043e91906121c5565b60405180910390f35b34801561045357600080fd5b5061045c611033565b60405161046991906120af565b60405180910390f35b34801561047e57600080fd5b506104996004803603810190610494919061220a565b6110c5565b005b3480156104a757600080fd5b506104c260048036038101906104bd919061216a565b6111a0565b6040516104cf91906121c5565b60405180910390f35b3480156104e457600080fd5b506104ff60048036038101906104fa919061216a565b611217565b60405161050c91906121c5565b60405180910390f35b34801561052157600080fd5b5061053c6004803603810190610537919061228a565b61123a565b005b610546611385565b005b34801561055457600080fd5b5061056f600480360381019061056a919061225d565b61146a565b005b34801561057d57600080fd5b50610598600480360381019061059391906122ee565b61161c565b6040516105a591906121ef565b60405180910390f35b3480156105ba57600080fd5b506105c36116a3565b6040516105d0919061233d565b60405180910390f35b3480156105e557600080fd5b5061060060048036038101906105fb919061225d565b6116c9565b60405161060d91906121c5565b60405180910390f35b60606003805461062590612387565b80601f016020809104026020016040519081016040528092919081815260200182805461065190612387565b801561069e5780601f106106735761010080835404028352916020019161069e565b820191906000526020600020905b81548152906001019060200180831161068157829003601f168201915b5050505050905090565b6000806106b36116ee565b90506106c08185856116f6565b600191505092915050565b6000600254905090565b6000806106e06116ee565b90506106ed8582856118bf565b6106f885858561194b565b60019150509392505050565b60011515600860003373ffffffffffffffffffffffffffffffffffffffff1673ffffffffffffffffffffffffffffffffffffffff16815260200190815260200160002060009054906101000a900460ff16151514610797576040517f08c379a000000000000000000000000000000000000000000000000000000000815260040161078e9061242a565b60405180910390fd5b60001515600960008373ffffffffffffffffffffffffffffffffffffffff1673ffffffffffffffffffffffffffffffffffffffff16815260200190815260200160002060009054906101000a900460ff1615151461082a576040517f08c379a0000000000000000000000000000000000000000000000000000000008152600401610821906124bc565b60405180910390fd5b6001600860008373ffffffffffffffffffffffffffffffffffffffff1673ffffffffffffffffffffffffffffffffffffffff16815260200190815260200160002060006101000a81548160ff0219169083151502179055507f6821928b9fe6f9a5bb373539ae35f3ce4434b5b8eeeded54d572f6569e2f9e59816040516108b1919061233d565b60405180910390a150565b600760009054906101000a900473ffffffffffffffffffffffffffffffffffffffff1673ffffffffffffffffffffffffffffffffffffffff163373ffffffffffffffffffffffffffffffffffffffff161461094c576040517f08c379a000000000000000000000000000000000000000000000000000000000815260040161094390612528565b60405180910390fd5b6000670de0b6b3a7640000826109629190612577565b90503373ffffffffffffffffffffffffffffffffffffffff166108fc829081150290604051600060405180830381858888f193505050501580156109aa573d6000803e3d6000fd5b507f5b6b431d4476a211bb7d41c20d1aab9ae2321deee0d20be3d9fc9b1093fa6e3d826040516109da91906121ef565b60405180910390a15050565b60006012905090565b6000806109fa6116ee565b9050610a1b818585610a0c858961161c565b610a1691906125b9565b6116f6565b600191505092915050565b600760009054906101000a900473ffffffffffffffffffffffffffffffffffffffff1673ffffffffffffffffffffffffffffffffffffffff163373ffffffffffffffffffffffffffffffffffffffff1614610ab6576040517f08c379a0000000000000000000000000000000000000000000000000000000008152600401610aad90612528565b60405180910390fd5b610ac08282611bc1565b7fbdc0a7371f0a767be1e76cef1fbef45633378b4a2a9f248781b81b6c3dacb6128282604051610af19291906125ed565b60405180910390a15050565b60011515600860003373ffffffffffffffffffffffffffffffffffffffff1673ffffffffffffffffffffffffffffffffffffffff16815260200190815260200160002060009054906101000a900460ff16151514610b90576040517f08c379a0000000000000000000000000000000000000000000000000000000008152600401610b8790612688565b60405180910390fd5b6000600960008373ffffffffffffffffffffffffffffffffffffffff1673ffffffffffffffffffffffffffffffffffffffff16815260200190815260200160002060006101000a81548160ff0219169083151502179055507fc66fe56647896b085e2dc084f3a4fdc93ef40bbe864e316f9347f2b1d5bbb05d81604051610c17919061233d565b60405180910390a150565b60011515600860003373ffffffffffffffffffffffffffffffffffffffff1673ffffffffffffffffffffffffffffffffffffffff16815260200190815260200160002060009054906101000a900460ff16151514610cb5576040517f08c379a0000000000000000000000000000000000000000000000000000000008152600401610cac90612688565b60405180910390fd5b600760009054906101000a900473ffffffffffffffffffffffffffffffffffffffff1673ffffffffffffffffffffffffffffffffffffffff168173ffffffffffffffffffffffffffffffffffffffff1603610d45576040517f08c379a0000000000000000000000000000000000000000000000000000000008152600401610d3c906126f4565b60405180910390fd5b6001600960008373ffffffffffffffffffffffffffffffffffffffff1673ffffffffffffffffffffffffffffffffffffffff16815260200190815260200160002060006101000a81548160ff0219169083151502179055506000600860008373ffffffffffffffffffffffffffffffffffffffff1673ffffffffffffffffffffffffffffffffffffffff16815260200190815260200160002060006101000a81548160ff0219169083151502179055507fc86c98cf54bcc0b90db7e2abb52d6a184fd9b42f3b00ea6e42b24f03054a4cdf81604051610e24919061233d565b60405180910390a150565b600760009054906101000a900473ffffffffffffffffffffffffffffffffffffffff1673ffffffffffffffffffffffffffffffffffffffff163373ffffffffffffffffffffffffffffffffffffffff1614610ebf576040517f08c379a0000000000000000000000000000000000000000000000000000000008152600401610eb690612528565b60405180910390fd5b610ec98282611d8e565b7f38c2c2a92a0cd401096b037595bcb9147c426d8c19c20a064b9132d4a82373768282604051610efa9291906125ed565b60405180910390a15050565b60008060008373ffffffffffffffffffffffffffffffffffffffff1673ffffffffffffffffffffffffffffffffffffffff168152602001908152602001600020549050919050565b6000610f5983610f06565b9050808203610f9d576040517f08c379a0000000000000000000000000000000000000000000000000000000008152600401610f9490612786565b60405180910390fd5b81811015610fbf57610fba838284610fb591906127a6565b610e2f565b610fd5565b610fd4838383610fcf91906127a6565b610a26565b5b7f808b3fe63ee188e2cf302ffac826b7b612384c2c601ee9623877bd067cf9b32283836040516110069291906125ed565b60405180910390a1505050565b60086020528060005260406000206000915054906101000a900460ff1681565b60606004805461104290612387565b80601f016020809104026020016040519081016040528092919081815260200182805461106e90612387565b80156110bb5780601f10611090576101008083540402835291602001916110bb565b820191906000526020600020905b81548152906001019060200180831161109e57829003601f168201915b5050505050905090565b600760009054906101000a900473ffffffffffffffffffffffffffffffffffffffff1673ffffffffffffffffffffffffffffffffffffffff163373ffffffffffffffffffffffffffffffffffffffff1614611155576040517f08c379a000000000000000000000000000000000000000000000000000000000815260040161114c90612528565b60405180910390fd5b61116083838361194b565b7f85a873f1151b5e8ef4e91314e535c8bd068ff4f10ee61a50738b903150e4b10c838383604051611193939291906127da565b60405180910390a1505050565b6000806111ab6116ee565b905060006111b9828661161c565b9050838110156111fe576040517f08c379a00000000000000000000000000000000000000000000000000000000081526004016111f590612883565b60405180910390fd5b61120b82868684036116f6565b60019250505092915050565b6000806112226116ee565b905061122f81858561194b565b600191505092915050565b6000811161127d576040517f08c379a000000000000000000000000000000000000000000000000000000000815260040161127490612915565b60405180910390fd5b6000600b54670de0b6b3a7640000836112969190612577565b6112a09190612964565b9050804710156112e5576040517f08c379a00000000000000000000000000000000000000000000000000000000081526004016112dc90612a07565b60405180910390fd5b6113033330670de0b6b3a7640000856112fe9190612577565b61194b565b3373ffffffffffffffffffffffffffffffffffffffff166108fc829081150290604051600060405180830381858888f19350505050158015611349573d6000803e3d6000fd5b507f1dbebe6805324b2f402e6e2e83def016f38a15c77be9da6daf578338d938afaf8260405161137991906121ef565b60405180910390a15050565b600034116113c8576040517f08c379a00000000000000000000000000000000000000000000000000000000081526004016113bf90612a73565b60405180910390fd5b6000600a54346113d89190612577565b9050806006546113e891906127a6565b6113f06106cb565b1115611431576040517f08c379a000000000000000000000000000000000000000000000000000000000815260040161142890612b05565b60405180910390fd5b61143b3382611d8e565b7fd81111abb48d6ec092da91826e9fb95d6cb349afaa256bf2c3251dc54efb110c60405160405180910390a150565b600760009054906101000a900473ffffffffffffffffffffffffffffffffffffffff1673ffffffffffffffffffffffffffffffffffffffff163373ffffffffffffffffffffffffffffffffffffffff16146114fa576040517f08c379a00000000000000000000000000000000000000000000000000000000081526004016114f190612528565b60405180910390fd5b600760009054906101000a900473ffffffffffffffffffffffffffffffffffffffff1673ffffffffffffffffffffffffffffffffffffffff168173ffffffffffffffffffffffffffffffffffffffff160361158a576040517f08c379a000000000000000000000000000000000000000000000000000000000815260040161158190612b97565b60405180910390fd5b6000600860008373ffffffffffffffffffffffffffffffffffffffff1673ffffffffffffffffffffffffffffffffffffffff16815260200190815260200160002060006101000a81548160ff0219169083151502179055507f094ca5f27671595b2d6098122778a7ca0b9ce30081cf47566f49df3c7969e27d81604051611611919061233d565b60405180910390a150565b6000600160008473ffffffffffffffffffffffffffffffffffffffff1673ffffffffffffffffffffffffffffffffffffffff16815260200190815260200160002060008373ffffffffffffffffffffffffffffffffffffffff1673ffffffffffffffffffffffffffffffffffffffff16815260200190815260200160002054905092915050565b600760009054906101000a900473ffffffffffffffffffffffffffffffffffffffff1681565b60096020528060005260406000206000915054906101000a900460ff1681565b505050565b600033905090565b600073ffffffffffffffffffffffffffffffffffffffff168373ffffffffffffffffffffffffffffffffffffffff1603611765576040517f08c379a000000000000000000000000000000000000000000000000000000000815260040161175c90612c29565b60405180910390fd5b600073ffffffffffffffffffffffffffffffffffffffff168273ffffffffffffffffffffffffffffffffffffffff16036117d4576040517f08c379a00000000000000000000000000000000000000000000000000000000081526004016117cb90612cbb565b60405180910390fd5b80600160008573ffffffffffffffffffffffffffffffffffffffff1673ffffffffffffffffffffffffffffffffffffffff16815260200190815260200160002060008473ffffffffffffffffffffffffffffffffffffffff1673ffffffffffffffffffffffffffffffffffffffff168152602001908152602001600020819055508173ffffffffffffffffffffffffffffffffffffffff168373ffffffffffffffffffffffffffffffffffffffff167f8c5be1e5ebec7d5bd14f71427d1e84f3dd0314c0f7b2291e5b200ac8c7c3b925836040516118b291906121ef565b60405180910390a3505050565b60006118cb848461161c565b90507fffffffffffffffffffffffffffffffffffffffffffffffffffffffffffffffff81146119455781811015611937576040517f08c379a000000000000000000000000000000000000000000000000000000000815260040161192e90612d27565b60405180910390fd5b61194484848484036116f6565b5b50505050565b600073ffffffffffffffffffffffffffffffffffffffff168373ffffffffffffffffffffffffffffffffffffffff16036119ba576040517f08c379a00000000000000000000000000000000000000000000000000000000081526004016119b190612db9565b60405180910390fd5b600073ffffffffffffffffffffffffffffffffffffffff168273ffffffffffffffffffffffffffffffffffffffff1603611a29576040517f08c379a0000000000000000000000000000000000000000000000000000000008152600401611a2090612e4b565b60405180910390fd5b611a34838383611ee4565b60008060008573ffffffffffffffffffffffffffffffffffffffff1673ffffffffffffffffffffffffffffffffffffffff16815260200190815260200160002054905081811015611aba576040517f08c379a0000000000000000000000000000000000000000000000000000000008152600401611ab190612edd565b60405180910390fd5b8181036000808673ffffffffffffffffffffffffffffffffffffffff1673ffffffffffffffffffffffffffffffffffffffff16815260200190815260200160002081905550816000808573ffffffffffffffffffffffffffffffffffffffff1673ffffffffffffffffffffffffffffffffffffffff168152602001908152602001600020600082825401925050819055508273ffffffffffffffffffffffffffffffffffffffff168473ffffffffffffffffffffffffffffffffffffffff167fddf252ad1be2c89b69c2b068fc378daa952ba7f163c4a11628f55a4df523b3ef84604051611ba891906121ef565b60405180910390a3611bbb84848461201a565b50505050565b600073ffffffffffffffffffffffffffffffffffffffff168273ffffffffffffffffffffffffffffffffffffffff1603611c30576040517f08c379a0000000000000000000000000000000000000000000000000000000008152600401611c2790612f6f565b60405180910390fd5b611c3c82600083611ee4565b60008060008473ffffffffffffffffffffffffffffffffffffffff1673ffffffffffffffffffffffffffffffffffffffff16815260200190815260200160002054905081811015611cc2576040517f08c379a0000000000000000000000000000000000000000000000000000000008152600401611cb990613001565b60405180910390fd5b8181036000808573ffffffffffffffffffffffffffffffffffffffff1673ffffffffffffffffffffffffffffffffffffffff1681526020019081526020016000208190555081600260008282540392505081905550600073ffffffffffffffffffffffffffffffffffffffff168373ffffffffffffffffffffffffffffffffffffffff167fddf252ad1be2c89b69c2b068fc378daa952ba7f163c4a11628f55a4df523b3ef84604051611d7591906121ef565b60405180910390a3611d898360008461201a565b505050565b600073ffffffffffffffffffffffffffffffffffffffff168273ffffffffffffffffffffffffffffffffffffffff1603611dfd576040517f08c379a0000000000000000000000000000000000000000000000000000000008152600401611df49061306d565b60405180910390fd5b611e0960008383611ee4565b8060026000828254611e1b91906125b9565b92505081905550806000808473ffffffffffffffffffffffffffffffffffffffff1673ffffffffffffffffffffffffffffffffffffffff168152602001908152602001600020600082825401925050819055508173ffffffffffffffffffffffffffffffffffffffff16600073ffffffffffffffffffffffffffffffffffffffff167fddf252ad1be2c89b69c2b068fc378daa952ba7f163c4a11628f55a4df523b3ef83604051611ecc91906121ef565b60405180910390a3611ee06000838361201a565b5050565b611eef8383836116e9565b60001515600960008473ffffffffffffffffffffffffffffffffffffffff1673ffffffffffffffffffffffffffffffffffffffff16815260200190815260200160002060009054906101000a900460ff16151514611f82576040517f08c379a0000000000000000000000000000000000000000000000000000000008152600401611f79906130ff565b60405180910390fd5b60001515600960008573ffffffffffffffffffffffffffffffffffffffff1673ffffffffffffffffffffffffffffffffffffffff16815260200190815260200160002060009054906101000a900460ff16151514612015576040517f08c379a000000000000000000000000000000000000000000000000000000000815260040161200c90613191565b60405180910390fd5b505050565b505050565b600081519050919050565b600082825260208201905092915050565b60005b8381101561205957808201518184015260208101905061203e565b60008484015250505050565b6000601f19601f8301169050919050565b60006120818261201f565b61208b818561202a565b935061209b81856020860161203b565b6120a481612065565b840191505092915050565b600060208201905081810360008301526120c98184612076565b905092915050565b600080fd5b600073ffffffffffffffffffffffffffffffffffffffff82169050919050565b6000612101826120d6565b9050919050565b612111816120f6565b811461211c57600080fd5b50565b60008135905061212e81612108565b92915050565b6000819050919050565b61214781612134565b811461215257600080fd5b50565b6000813590506121648161213e565b92915050565b60008060408385031215612181576121806120d1565b5b600061218f8582860161211f565b92505060206121a085828601612155565b9150509250929050565b60008115159050919050565b6121bf816121aa565b82525050565b60006020820190506121da60008301846121b6565b92915050565b6121e981612134565b82525050565b600060208201905061220460008301846121e0565b92915050565b600080600060608486031215612223576122226120d1565b5b60006122318682870161211f565b93505060206122428682870161211f565b925050604061225386828701612155565b9150509250925092565b600060208284031215612273576122726120d1565b5b60006122818482850161211f565b91505092915050565b6000602082840312156122a05761229f6120d1565b5b60006122ae84828501612155565b91505092915050565b600060ff82169050919050565b6122cd816122b7565b82525050565b60006020820190506122e860008301846122c4565b92915050565b60008060408385031215612305576123046120d1565b5b60006123138582860161211f565b92505060206123248582860161211f565b9150509250929050565b612337816120f6565b82525050565b6000602082019050612352600083018461232e565b92915050565b7f4e487b7100000000000000000000000000000000000000000000000000000000600052602260045260246000fd5b6000600282049050600182168061239f57607f821691505b6020821081036123b2576123b1612358565b5b50919050565b7f4d757374206265636f6d6520616e20617574686f72697479206265666f72652060008201527f706572666f726d696e67207468697320616374696f6e21210000000000000000602082015250565b600061241460388361202a565b915061241f826123b8565b604082019050919050565b6000602082019050818103600083015261244381612407565b9050919050565b7f43616e6e6f74206d616b6520612073616e6374696f6e6564206164647265737360008201527f20616e20617574686f7269747921210000000000000000000000000000000000602082015250565b60006124a6602f8361202a565b91506124b18261244a565b604082019050919050565b600060208201905081810360008301526124d581612499565b9050919050565b7f596f7520646f206e6f7420686176652074686520706f77657221210000000000600082015250565b6000612512601b8361202a565b915061251d826124dc565b602082019050919050565b6000602082019050818103600083015261254181612505565b9050919050565b7f4e487b7100000000000000000000000000000000000000000000000000000000600052601160045260246000fd5b600061258282612134565b915061258d83612134565b925082820261259b81612134565b915082820484148315176125b2576125b1612548565b5b5092915050565b60006125c482612134565b91506125cf83612134565b92508282019050808211156125e7576125e6612548565b5b92915050565b6000604082019050612602600083018561232e565b61260f60208301846121e0565b9392505050565b7f4d757374206265636f6d6520616e20617574686f72697479206265666f72652060008201527f706572666f726d696e67207468697320616374696f6e00000000000000000000602082015250565b600061267260368361202a565b915061267d82612616565b604082019050919050565b600060208201905081810360008301526126a181612665565b9050919050565b7f43616e6e6f742073616e6374696f6e20676f6421210000000000000000000000600082015250565b60006126de60158361202a565b91506126e9826126a8565b602082019050919050565b6000602082019050818103600083015261270d816126d1565b9050919050565b7f4e6f206e65656420746f206368616e67652062616c616e636573202d20416c7260008201527f6561647920617420746861742076616c75650000000000000000000000000000602082015250565b600061277060328361202a565b915061277b82612714565b604082019050919050565b6000602082019050818103600083015261279f81612763565b9050919050565b60006127b182612134565b91506127bc83612134565b92508282039050818111156127d4576127d3612548565b5b92915050565b60006060820190506127ef600083018661232e565b6127fc602083018561232e565b61280960408301846121e0565b949350505050565b7f45524332303a2064656372656173656420616c6c6f77616e63652062656c6f7760008201527f207a65726f000000000000000000000000000000000000000000000000000000602082015250565b600061286d60258361202a565b915061287882612811565b604082019050919050565b6000602082019050818103600083015261289c81612860565b9050919050565b7f496e70757420616d6f756e7420746f2073656c6c4261636b203d3d20303f3f2160008201527f2100000000000000000000000000000000000000000000000000000000000000602082015250565b60006128ff60218361202a565b915061290a826128a3565b604082019050919050565b6000602082019050818103600083015261292e816128f2565b9050919050565b7f4e487b7100000000000000000000000000000000000000000000000000000000600052601260045260246000fd5b600061296f82612134565b915061297a83612134565b92508261298a57612989612935565b5b828204905092915050565b7f536d61727420636f6e747261637420697320746f6f20706f6f7220666f72206160008201527f20726566756e6421210000000000000000000000000000000000000000000000602082015250565b60006129f160298361202a565b91506129fc82612995565b604082019050919050565b60006020820190508181036000830152612a20816129e4565b9050919050565b7f4d7573742073656e64206d6f7265207468616e20302045544821210000000000600082015250565b6000612a5d601b8361202a565b9150612a6882612a27565b602082019050919050565b60006020820190508181036000830152612a8c81612a50565b9050919050565b7f4d696e742077696c6c206f766572666c6f772074686520312c3030302c30303060008201527f20746f6b656e206c696d69740000000000000000000000000000000000000000602082015250565b6000612aef602c8361202a565b9150612afa82612a93565b604082019050919050565b60006020820190508181036000830152612b1e81612ae2565b9050919050565b7f43616e6e6f742072656d6f766520676f6420617320616e20617574686f72697460008201527f7921210000000000000000000000000000000000000000000000000000000000602082015250565b6000612b8160238361202a565b9150612b8c82612b25565b604082019050919050565b60006020820190508181036000830152612bb081612b74565b9050919050565b7f45524332303a20617070726f76652066726f6d20746865207a65726f2061646460008201527f7265737300000000000000000000000000000000000000000000000000000000602082015250565b6000612c1360248361202a565b9150612c1e82612bb7565b604082019050919050565b60006020820190508181036000830152612c4281612c06565b9050919050565b7f45524332303a20617070726f766520746f20746865207a65726f20616464726560008201527f7373000000000000000000000000000000000000000000000000000000000000602082015250565b6000612ca560228361202a565b9150612cb082612c49565b604082019050919050565b60006020820190508181036000830152612cd481612c98565b9050919050565b7f45524332303a20696e73756666696369656e7420616c6c6f77616e6365000000600082015250565b6000612d11601d8361202a565b9150612d1c82612cdb565b602082019050919050565b60006020820190508181036000830152612d4081612d04565b9050919050565b7f45524332303a207472616e736665722066726f6d20746865207a65726f20616460008201527f6472657373000000000000000000000000000000000000000000000000000000602082015250565b6000612da360258361202a565b9150612dae82612d47565b604082019050919050565b60006020820190508181036000830152612dd281612d96565b9050919050565b7f45524332303a207472616e7366657220746f20746865207a65726f206164647260008201527f6573730000000000000000000000000000000000000000000000000000000000602082015250565b6000612e3560238361202a565b9150612e4082612dd9565b604082019050919050565b60006020820190508181036000830152612e6481612e28565b9050919050565b7f45524332303a207472616e7366657220616d6f756e742065786365656473206260008201527f616c616e63650000000000000000000000000000000000000000000000000000602082015250565b6000612ec760268361202a565b9150612ed282612e6b565b604082019050919050565b60006020820190508181036000830152612ef681612eba565b9050919050565b7f45524332303a206275726e2066726f6d20746865207a65726f2061646472657360008201527f7300000000000000000000000000000000000000000000000000000000000000602082015250565b6000612f5960218361202a565b9150612f6482612efd565b604082019050919050565b60006020820190508181036000830152612f8881612f4c565b9050919050565b7f45524332303a206275726e20616d6f756e7420657863656564732062616c616e60008201527f6365000000000000000000000000000000000000000000000000000000000000602082015250565b6000612feb60228361202a565b9150612ff682612f8f565b604082019050919050565b6000602082019050818103600083015261301a81612fde565b9050919050565b7f45524332303a206d696e7420746f20746865207a65726f206164647265737300600082015250565b6000613057601f8361202a565b915061306282613021565b602082019050919050565b600060208201905081810360008301526130868161304a565b9050919050565b7f56494f4c4154494f4e21212043616e6e6f74207472616e7366657220746f206160008201527f2073616e6374696f6e6564206164647265737321000000000000000000000000602082015250565b60006130e960348361202a565b91506130f48261308d565b604082019050919050565b60006020820190508181036000830152613118816130dc565b9050919050565b7f56494f4c4154494f4e21212043616e6e6f74207472616e736665722066726f6d60008201527f20612073616e6374696f6e656420616464726573732100000000000000000000602082015250565b600061317b60368361202a565b91506131868261311f565b604082019050919050565b600060208201905081810360008301526131aa8161316e565b905091905056fea264697066735822122000061c53cdf31db3ef4e028ce3a435813b8f86bd84d77d6b4dd8c19498f1e25764736f6c63430008110033",
  "linkReferences": {},
  "deployedLinkReferences": {}
}