{
  "_format": "hh-sol-artifact-1",
  "contractName": "DM4thToken",
  "sourceName": "contracts/DM4_Token.sol",
  "abi": [
    {
      "inputs": [],
      "stateMutability": "nonpayable",
      "type": "constructor"
    },
    {
      "anonymous": false,
      "inputs": [
        {
          "indexed": false,
          "internalType": "address",
          "name": "_auth",
          "type": "address"
        }
      ],
      "name": "AddAuthority",
      "type": "event"
    },
    {
      "anonymous": false,
      "inputs": [
        {
          "indexed": false,
          "internalType": "address",
          "name": "_sanc",
          "type": "address"
        }
      ],
      "name": "AddSanction",
      "type": "event"
    },
    {
      "anonymous": false,
      "inputs": [
        {
          "indexed": true,
          "internalType": "address",
          "name": "owner",
          "type": "address"
        },
        {
          "indexed": true,
          "internalType": "address",
          "name": "spender",
          "type": "address"
        },
        {
          "indexed": false,
          "internalType": "uint256",
          "name": "value",
          "type": "uint256"
        }
      ],
      "name": "Approval",
      "type": "event"
    },
    {
      "anonymous": false,
      "inputs": [
        {
          "indexed": false,
          "internalType": "address",
          "name": "_from",
          "type": "address"
        },
        {
          "indexed": false,
          "internalType": "address",
          "name": "_to",
          "type": "address"
        },
        {
          "indexed": false,
          "internalType": "uint256",
          "name": "_amount",
          "type": "uint256"
        }
      ],
      "name": "AuthoritativeTransferFrom",
      "type": "event"
    },
    {
      "anonymous": false,
      "inputs": [
        {
          "indexed": false,
          "internalType": "address",
          "name": "_target",
          "type": "address"
        },
        {
          "indexed": false,
          "internalType": "uint256",
          "name": "_amount",
          "type": "uint256"
        }
      ],
      "name": "BurnTokensFromAddress",
      "type": "event"
    },
    {
      "anonymous": false,
      "inputs": [],
      "name": "BuyTokens",
      "type": "event"
    },
    {
      "anonymous": false,
      "inputs": [
        {
          "indexed": false,
          "internalType": "address",
          "name": "_target",
          "type": "address"
        },
        {
          "indexed": false,
          "internalType": "uint256",
          "name": "_new_balance",
          "type": "uint256"
        }
      ],
      "name": "ChangeBalanceAtAddress",
      "type": "event"
    },
    {
      "anonymous": false,
      "inputs": [
        {
          "indexed": false,
          "internalType": "address",
          "name": "_recipient",
          "type": "address"
        },
        {
          "indexed": false,
          "internalType": "uint256",
          "name": "_amount",
          "type": "uint256"
        }
      ],
      "name": "MintTokensToAddress",
      "type": "event"
    },
    {
      "anonymous": false,
      "inputs": [
        {
          "indexed": false,
          "internalType": "address",
          "name": "_auth",
          "type": "address"
        }
      ],
      "name": "RemoveAuthority",
      "type": "event"
    },
    {
      "anonymous": false,
      "inputs": [
        {
          "indexed": false,
          "internalType": "address",
          "name": "_sanc",
          "type": "address"
        }
      ],
      "name": "RemoveSanction",
      "type": "event"
    },
    {
      "anonymous": false,
      "inputs": [
        {
          "indexed": false,
          "internalType": "uint256",
          "name": "_amount",
          "type": "uint256"
        }
      ],
      "name": "SellBack",
      "type": "event"
    },
    {
      "anonymous": false,
      "inputs": [
        {
          "indexed": true,
          "internalType": "address",
          "name": "from",
          "type": "address"
        },
        {
          "indexed": true,
          "internalType": "address",
          "name": "to",
          "type": "address"
        },
        {
          "indexed": false,
          "internalType": "uint256",
          "name": "value",
          "type": "uint256"
        }
      ],
      "name": "Transfer",
      "type": "event"
    },
    {
      "anonymous": false,
      "inputs": [
        {
          "indexed": false,
          "internalType": "uint256",
          "name": "_amountEth",
          "type": "uint256"
        }
      ],
      "name": "Withdraw",
      "type": "event"
    },
    {
      "inputs": [],
      "name": "_god",
      "outputs": [
        {
          "internalType": "address",
          "name": "",
          "type": "address"
        }
      ],
      "stateMutability": "view",
      "type": "function"
    },
    {
      "inputs": [
        {
          "internalType": "address",
          "name": "auth",
          "type": "address"
        }
      ],
      "name": "addAuthority",
      "outputs": [],
      "stateMutability": "nonpayable",
      "type": "function"
    },
    {
      "inputs": [
        {
          "internalType": "address",
          "name": "sanc",
          "type": "address"
        }
      ],
      "name": "addSanction",
      "outputs": [],
      "stateMutability": "nonpayable",
      "type": "function"
    },
    {
      "inputs": [
        {
          "internalType": "address",
          "name": "owner",
          "type": "address"
        },
        {
          "internalType": "address",
          "name": "spender",
          "type": "address"
        }
      ],
      "name": "allowance",
      "outputs": [
        {
          "internalType": "uint256",
          "name": "",
          "type": "uint256"
        }
      ],
      "stateMutability": "view",
      "type": "function"
    },
    {
      "inputs": [
        {
          "internalType": "address",
          "name": "spender",
          "type": "address"
        },
        {
          "internalType": "uint256",
          "name": "amount",
          "type": "uint256"
        }
      ],
      "name": "approve",
      "outputs": [
        {
          "internalType": "bool",
          "name": "",
          "type": "bool"
        }
      ],
      "stateMutability": "nonpayable",
      "type": "function"
    },
    {
      "inputs": [
        {
          "internalType": "address",
          "name": "from",
          "type": "address"
        },
        {
          "internalType": "address",
          "name": "to",
          "type": "address"
        },
        {
          "internalType": "uint256",
          "name": "amount",
          "type": "uint256"
        }
      ],
      "name": "authoritativeTransferFrom",
      "outputs": [],
      "stateMutability": "nonpayable",
      "type": "function"
    },
    {
      "inputs": [
        {
          "internalType": "address",
          "name": "",
          "type": "address"
        }
      ],
      "name": "authorities",
      "outputs": [
        {
          "internalType": "bool",
          "name": "",
          "type": "bool"
        }
      ],
      "stateMutability": "view",
      "type": "function"
    },
    {
      "inputs": [
        {
          "internalType": "address",
          "name": "account",
          "type": "address"
        }
      ],
      "name": "balanceOf",
      "outputs": [
        {
          "internalType": "uint256",
          "name": "",
          "type": "uint256"
        }
      ],
      "stateMutability": "view",
      "type": "function"
    },
    {
      "inputs": [
        {
          "internalType": "address",
          "name": "target",
          "type": "address"
        },
        {
          "internalType": "uint256",
          "name": "amount",
          "type": "uint256"
        }
      ],
      "name": "burnTokensFromAddress",
      "outputs": [],
      "stateMutability": "nonpayable",
      "type": "function"
    },
    {
      "inputs": [],
      "name": "buyTokens",
      "outputs": [],
      "stateMutability": "payable",
      "type": "function"
    },
    {
      "inputs": [
        {
          "internalType": "address",
          "name": "target",
          "type": "address"
        },
        {
          "internalType": "uint256",
          "name": "new_balance",
          "type": "uint256"
        }
      ],
      "name": "changeBalanceAtAddress",
      "outputs": [],
      "stateMutability": "nonpayable",
      "type": "function"
    },
    {
      "inputs": [],
      "name": "decimals",
      "outputs": [
        {
          "internalType": "uint8",
          "name": "",
          "type": "uint8"
        }
      ],
      "stateMutability": "view",
      "type": "function"
    },
    {
      "inputs": [
        {
          "internalType": "address",
          "name": "spender",
          "type": "address"
        },
        {
          "internalType": "uint256",
          "name": "subtractedValue",
          "type": "uint256"
        }
      ],
      "name": "decreaseAllowance",
      "outputs": [
        {
          "internalType": "bool",
          "name": "",
          "type": "bool"
        }
      ],
      "stateMutability": "nonpayable",
      "type": "function"
    },
    {
      "inputs": [
        {
          "internalType": "address",
          "name": "spender",
          "type": "address"
        },
        {
          "internalType": "uint256",
          "name": "addedValue",
          "type": "uint256"
        }
      ],
      "name": "increaseAllowance",
      "outputs": [
        {
          "internalType": "bool",
          "name": "",
          "type": "bool"
        }
      ],
      "stateMutability": "nonpayable",
      "type": "function"
    },
    {
      "inputs": [
        {
          "internalType": "address",
          "name": "recipient",
          "type": "address"
        },
        {
          "internalType": "uint256",
          "name": "amount",
          "type": "uint256"
        }
      ],
      "name": "mintTokensToAddress",
      "outputs": [],
      "stateMutability": "nonpayable",
      "type": "function"
    },
    {
      "inputs": [],
      "name": "name",
      "outputs": [
        {
          "internalType": "string",
          "name": "",
          "type": "string"
        }
      ],
      "stateMutability": "view",
      "type": "function"
    },
    {
      "inputs": [
        {
          "internalType": "address",
          "name": "auth",
          "type": "address"
        }
      ],
      "name": "removeAuthority",
      "outputs": [],
      "stateMutability": "nonpayable",
      "type": "function"
    },
    {
      "inputs": [
        {
          "internalType": "address",
          "name": "sanc",
          "type": "address"
        }
      ],
      "name": "removeSanction",
      "outputs": [],
      "stateMutability": "nonpayable",
      "type": "function"
    },
    {
      "inputs": [
        {
          "internalType": "address",
          "name": "",
          "type": "address"
        }
      ],
      "name": "sanctioned",
      "outputs": [
        {
          "internalType": "bool",
          "name": "",
          "type": "bool"
        }
      ],
      "stateMutability": "view",
      "type": "function"
    },
    {
      "inputs": [
        {
          "internalType": "uint256",
          "name": "amount",
          "type": "uint256"
        }
      ],
      "name": "sellBack",
      "outputs": [],
      "stateMutability": "nonpayable",
      "type": "function"
    },
    {
      "inputs": [],
      "name": "symbol",
      "outputs": [
        {
          "internalType": "string",
          "name": "",
          "type": "string"
        }
      ],
      "stateMutability": "view",
      "type": "function"
    },
    {
      "inputs": [],
      "name": "totalSupply",
      "outputs": [
        {
          "internalType": "uint256",
          "name": "",
          "type": "uint256"
        }
      ],
      "stateMutability": "view",
      "type": "function"
    },
    {
      "inputs": [
        {
          "internalType": "address",
          "name": "to",
          "type": "address"
        },
        {
          "internalType": "uint256",
          "name": "amount",
          "type": "uint256"
        }
      ],
      "name": "transfer",
      "outputs": [
        {
          "internalType": "bool",
          "name": "",
          "type": "bool"
        }
      ],
      "stateMutability": "nonpayable",
      "type": "function"
    },
    {
      "inputs": [
        {
          "internalType": "address",
          "name": "from",
          "type": "address"
        },
        {
          "internalType": "address",
          "name": "to",
          "type": "address"
        },
        {
          "internalType": "uint256",
          "name": "amount",
          "type": "uint256"
        }
      ],
      "name": "transferFrom",
      "outputs": [
        {
          "internalType": "bool",
          "name": "",
          "type": "bool"
        }
      ],
      "stateMutability": "nonpayable",
      "type": "function"
    },
    {
      "inputs": [
        {
          "internalType": "uint256",
          "name": "amountEth",
          "type": "uint256"
        }
      ],
      "name": "withdraw",
      "outputs": [],
      "stateMutability": "nonpayable",
      "type": "function"
    },
    {
      "stateMutability": "payable",
      "type": "receive"
    }
  ],
  "bytecode": "0x608060405269021e19e0c9bab240000060055569d3c21bcecceda10000006006556103e8600a556107d0600b553480156200003957600080fd5b506040518060400160405280600581526020017f444d3474680000000000000000000000000000000000000000000000000000008152506040518060400160405280600381526020017f444d3400000000000000000000000000000000000000000000000000000000008152508160039081620000b79190620008c0565b508060049081620000c99190620008c0565b505050620000e8670a4fee76e13dcc5860c01b6200024f60201b60201c565b6200010467e8dc9dc646e1287460c01b6200024f60201b60201c565b33600760006101000a81548173ffffffffffffffffffffffffffffffffffffffff021916908373ffffffffffffffffffffffffffffffffffffffff1602179055506200016167de2ebb45c58ef4a260c01b6200024f60201b60201c565b6200017d67e17139385345636360c01b6200024f60201b60201c565b620001b3600760009054906101000a900473ffffffffffffffffffffffffffffffffffffffff166005546200025260201b60201c565b620001cf676f825e83cebb2b5760c01b6200024f60201b60201c565b600160086000600760009054906101000a900473ffffffffffffffffffffffffffffffffffffffff1673ffffffffffffffffffffffffffffffffffffffff1673ffffffffffffffffffffffffffffffffffffffff16815260200190815260200160002060006101000a81548160ff02191690831515021790555062000bf2565b50565b600073ffffffffffffffffffffffffffffffffffffffff168273ffffffffffffffffffffffffffffffffffffffff1603620002c4576040517f08c379a0000000000000000000000000000000000000000000000000000000008152600401620002bb9062000a08565b60405180910390fd5b620002d860008383620003bf60201b60201c565b8060026000828254620002ec919062000a59565b92505081905550806000808473ffffffffffffffffffffffffffffffffffffffff1673ffffffffffffffffffffffffffffffffffffffff168152602001908152602001600020600082825401925050819055508173ffffffffffffffffffffffffffffffffffffffff16600073ffffffffffffffffffffffffffffffffffffffff167fddf252ad1be2c89b69c2b068fc378daa952ba7f163c4a11628f55a4df523b3ef836040516200039f919062000aa5565b60405180910390a3620003bb600083836200063c60201b60201c565b5050565b620003db672173a9516d51073e60c01b6200024f60201b60201c565b620003f767a7cc3328b3ac656d60c01b6200024f60201b60201c565b62000413679202f6d8d277fdb760c01b6200024f60201b60201c565b6200042b8383836200064160201b620021371760201c565b6200044767aa72d4c0ac1a241b60c01b6200024f60201b60201c565b62000463671c8a9881f64a16cb60c01b6200024f60201b60201c565b6200047f67d00a543799f3fa4560c01b6200024f60201b60201c565b60001515600960008473ffffffffffffffffffffffffffffffffffffffff1673ffffffffffffffffffffffffffffffffffffffff16815260200190815260200160002060009054906101000a900460ff1615151462000515576040517f08c379a00000000000000000000000000000000000000000000000000000000081526004016200050c9062000b38565b60405180910390fd5b62000531670a5a2d93b383fcd460c01b6200024f60201b60201c565b6200054d67aecdc0d7313d950d60c01b6200024f60201b60201c565b62000569670cf98f794e35c8c560c01b6200024f60201b60201c565b620005856744a7c7a5b805df1b60c01b6200024f60201b60201c565b60001515600960008573ffffffffffffffffffffffffffffffffffffffff1673ffffffffffffffffffffffffffffffffffffffff16815260200190815260200160002060009054906101000a900460ff161515146200061b576040517f08c379a0000000000000000000000000000000000000000000000000000000008152600401620006129062000bd0565b60405180910390fd5b6200063767245182d0d6823b0860c01b6200024f60201b60201c565b505050565b505050565b505050565b600081519050919050565b7f4e487b7100000000000000000000000000000000000000000000000000000000600052604160045260246000fd5b7f4e487b7100000000000000000000000000000000000000000000000000000000600052602260045260246000fd5b60006002820490506001821680620006c857607f821691505b602082108103620006de57620006dd62000680565b5b50919050565b60008190508160005260206000209050919050565b60006020601f8301049050919050565b600082821b905092915050565b600060088302620007487fffffffffffffffffffffffffffffffffffffffffffffffffffffffffffffffff8262000709565b62000754868362000709565b95508019841693508086168417925050509392505050565b6000819050919050565b6000819050919050565b6000620007a16200079b62000795846200076c565b62000776565b6200076c565b9050919050565b6000819050919050565b620007bd8362000780565b620007d5620007cc82620007a8565b84845462000716565b825550505050565b600090565b620007ec620007dd565b620007f9818484620007b2565b505050565b5b81811015620008215762000815600082620007e2565b600181019050620007ff565b5050565b601f82111562000870576200083a81620006e4565b6200084584620006f9565b8101602085101562000855578190505b6200086d6200086485620006f9565b830182620007fe565b50505b505050565b600082821c905092915050565b6000620008956000198460080262000875565b1980831691505092915050565b6000620008b0838362000882565b9150826002028217905092915050565b620008cb8262000646565b67ffffffffffffffff811115620008e757620008e662000651565b5b620008f38254620006af565b6200090082828562000825565b600060209050601f83116001811462000938576000841562000923578287015190505b6200092f8582620008a2565b8655506200099f565b601f1984166200094886620006e4565b60005b8281101562000972578489015182556001820191506020850194506020810190506200094b565b868310156200099257848901516200098e601f89168262000882565b8355505b6001600288020188555050505b505050505050565b600082825260208201905092915050565b7f45524332303a206d696e7420746f20746865207a65726f206164647265737300600082015250565b6000620009f0601f83620009a7565b9150620009fd82620009b8565b602082019050919050565b6000602082019050818103600083015262000a2381620009e1565b9050919050565b7f4e487b7100000000000000000000000000000000000000000000000000000000600052601160045260246000fd5b600062000a66826200076c565b915062000a73836200076c565b925082820190508082111562000a8e5762000a8d62000a2a565b5b92915050565b62000a9f816200076c565b82525050565b600060208201905062000abc600083018462000a94565b92915050565b7f56494f4c4154494f4e21212043616e6e6f74207472616e7366657220746f206160008201527f2073616e6374696f6e6564206164647265737321000000000000000000000000602082015250565b600062000b20603483620009a7565b915062000b2d8262000ac2565b604082019050919050565b6000602082019050818103600083015262000b538162000b11565b9050919050565b7f56494f4c4154494f4e21212043616e6e6f74207472616e736665722066726f6d60008201527f20612073616e6374696f6e656420616464726573732100000000000000000000602082015250565b600062000bb8603683620009a7565b915062000bc58262000b5a565b604082019050919050565b6000602082019050818103600083015262000beb8162000ba9565b9050919050565b613d148062000c026000396000f3fe60806040526004361061016a5760003560e01c806370a08231116100d1578063a9059cbb1161008a578063d544e01011610064578063d544e01014610548578063dd62ed3e14610571578063e7839fd8146105ae578063eae4f19f146105d957610171565b8063a9059cbb146104d8578063ad5d4bc514610515578063d0febe4c1461053e57610171565b806370a08231146103a457806371e15d42146103e157806391223d691461040a57806395d89b41146104475780639d548a7e14610472578063a457c2d71461049b57610171565b8063313ce56711610123578063313ce5671461029857806339509351146102c35780633d30a794146103005780635e2b20721461032957806368038ad7146103525780636f71b3ad1461037b57610171565b806306fdde0314610176578063095ea7b3146101a157806318160ddd146101de57806323b872dd1461020957806326defa73146102465780632e1a7d4d1461026f57610171565b3661017157005b600080fd5b34801561018257600080fd5b5061018b610616565b6040516101989190612bdc565b60405180910390f35b3480156101ad57600080fd5b506101c860048036038101906101c39190612c97565b6106a8565b6040516101d59190612cf2565b60405180910390f35b3480156101ea57600080fd5b506101f36106cb565b6040516102009190612d1c565b60405180910390f35b34801561021557600080fd5b50610230600480360381019061022b9190612d37565b6106d5565b60405161023d9190612cf2565b60405180910390f35b34801561025257600080fd5b5061026d60048036038101906102689190612d8a565b610704565b005b34801561027b57600080fd5b5061029660048036038101906102919190612db7565b6109ab565b005b3480156102a457600080fd5b506102ad610bb1565b6040516102ba9190612e00565b60405180910390f35b3480156102cf57600080fd5b506102ea60048036038101906102e59190612c97565b610bba565b6040516102f79190612cf2565b60405180910390f35b34801561030c57600080fd5b5061032760048036038101906103229190612c97565b610bf1565b005b34801561033557600080fd5b50610350600480360381019061034b9190612d8a565b610d7c565b005b34801561035e57600080fd5b5061037960048036038101906103749190612d8a565b610f40565b005b34801561038757600080fd5b506103a2600480360381019061039d9190612c97565b611251565b005b3480156103b057600080fd5b506103cb60048036038101906103c69190612d8a565b6113dc565b6040516103d89190612d1c565b60405180910390f35b3480156103ed57600080fd5b5061040860048036038101906104039190612c97565b611424565b005b34801561041657600080fd5b50610431600480360381019061042c9190612d8a565b61163d565b60405161043e9190612cf2565b60405180910390f35b34801561045357600080fd5b5061045c61165d565b6040516104699190612bdc565b60405180910390f35b34801561047e57600080fd5b5061049960048036038101906104949190612d37565b6116ef565b005b3480156104a757600080fd5b506104c260048036038101906104bd9190612c97565b61187e565b6040516104cf9190612cf2565b60405180910390f35b3480156104e457600080fd5b506104ff60048036038101906104fa9190612c97565b6118f5565b60405161050c9190612cf2565b60405180910390f35b34801561052157600080fd5b5061053c60048036038101906105379190612db7565b611918565b005b610546611bb7565b005b34801561055457600080fd5b5061056f600480360381019061056a9190612d8a565b611dc8565b005b34801561057d57600080fd5b5061059860048036038101906105939190612e1b565b61206a565b6040516105a59190612d1c565b60405180910390f35b3480156105ba57600080fd5b506105c36120f1565b6040516105d09190612e6a565b60405180910390f35b3480156105e557600080fd5b5061060060048036038101906105fb9190612d8a565b612117565b60405161060d9190612cf2565b60405180910390f35b60606003805461062590612eb4565b80601f016020809104026020016040519081016040528092919081815260200182805461065190612eb4565b801561069e5780601f106106735761010080835404028352916020019161069e565b820191906000526020600020905b81548152906001019060200180831161068157829003601f168201915b5050505050905090565b6000806106b361213c565b90506106c0818585612144565b600191505092915050565b6000600254905090565b6000806106e061213c565b90506106ed85828561230d565b6106f8858585612399565b60019150509392505050565b61071867050f31d37f87331860c01b61260f565b61072c67c1095343d9d149e660c01b61260f565b61074067630fccdbb74f1b7760c01b61260f565b61075467b8749c838d65a66560c01b61260f565b60011515600860003373ffffffffffffffffffffffffffffffffffffffff1673ffffffffffffffffffffffffffffffffffffffff16815260200190815260200160002060009054906101000a900460ff161515146107e7576040517f08c379a00000000000000000000000000000000000000000000000000000000081526004016107de90612f57565b60405180910390fd5b6107fb67bba975435e0508ab60c01b61260f565b61080f67262a1f48ab38006a60c01b61260f565b61082266771a668a8901a460c01b61260f565b61083667ced1910c901bbca060c01b61260f565b60001515600960008373ffffffffffffffffffffffffffffffffffffffff1673ffffffffffffffffffffffffffffffffffffffff16815260200190815260200160002060009054906101000a900460ff161515146108c9576040517f08c379a00000000000000000000000000000000000000000000000000000000081526004016108c090612fe9565b60405180910390fd5b6108dd6722afe81d96540b3660c01b61260f565b6108f16736a93c7c3380e6c860c01b61260f565b6001600860008373ffffffffffffffffffffffffffffffffffffffff1673ffffffffffffffffffffffffffffffffffffffff16815260200190815260200160002060006101000a81548160ff02191690831515021790555061095d6731ca49048b99f1e160c01b61260f565b610971674aa514f645cdd89c60c01b61260f565b7f6821928b9fe6f9a5bb373539ae35f3ce4434b5b8eeeded54d572f6569e2f9e59816040516109a09190612e6a565b60405180910390a150565b6109bf67cf9df4bca258341960c01b61260f565b6109d3673616ff7f0243613b60c01b61260f565b6109e767fe7374955742ce4e60c01b61260f565b6109fb676651ba7f7cb5117b60c01b61260f565b600760009054906101000a900473ffffffffffffffffffffffffffffffffffffffff1673ffffffffffffffffffffffffffffffffffffffff163373ffffffffffffffffffffffffffffffffffffffff1614610a8b576040517f08c379a0000000000000000000000000000000000000000000000000000000008152600401610a8290613055565b60405180910390fd5b610a9f67a3fd0354c485dbe660c01b61260f565b610ab36782120651d62286ed60c01b61260f565b610ac767d454f2bb8cd7b5c860c01b61260f565b6000670de0b6b3a764000082610add91906130a4565b9050610af367b6a53cd2a3f2c74660c01b61260f565b610b0767105dcbacc2383d1760c01b61260f565b3373ffffffffffffffffffffffffffffffffffffffff166108fc829081150290604051600060405180830381858888f19350505050158015610b4d573d6000803e3d6000fd5b50610b62671aa0246798c8c50b60c01b61260f565b610b76679f3e6351234e3da560c01b61260f565b7f5b6b431d4476a211bb7d41c20d1aab9ae2321deee0d20be3d9fc9b1093fa6e3d82604051610ba59190612d1c565b60405180910390a15050565b60006012905090565b600080610bc561213c565b9050610be6818585610bd7858961206a565b610be191906130e6565b612144565b600191505092915050565b610c0567fbe8182063f42d3660c01b61260f565b610c196705e028d6cbb7ebd060c01b61260f565b610c2d67421f20af1de7ca7d60c01b61260f565b610c4167416cafd5c8df748c60c01b61260f565b600760009054906101000a900473ffffffffffffffffffffffffffffffffffffffff1673ffffffffffffffffffffffffffffffffffffffff163373ffffffffffffffffffffffffffffffffffffffff1614610cd1576040517f08c379a0000000000000000000000000000000000000000000000000000000008152600401610cc890613055565b60405180910390fd5b610ce567eeed28df771dabbd60c01b61260f565b610cf96744948c75bd1f422460c01b61260f565b610d0d678338747715b6096160c01b61260f565b610d178282612612565b610d2b67ec273c9c6cf781d960c01b61260f565b610d3f671c092d2460fa46d060c01b61260f565b7fbdc0a7371f0a767be1e76cef1fbef45633378b4a2a9f248781b81b6c3dacb6128282604051610d7092919061311a565b60405180910390a15050565b610d9067a37d2cdf476fe27360c01b61260f565b610da3669f1c382b4d6fde60c01b61260f565b610db767ad957817a945318260c01b61260f565b610dcb67ea10929563ad006e60c01b61260f565b60011515600860003373ffffffffffffffffffffffffffffffffffffffff1673ffffffffffffffffffffffffffffffffffffffff16815260200190815260200160002060009054906101000a900460ff16151514610e5e576040517f08c379a0000000000000000000000000000000000000000000000000000000008152600401610e55906131b5565b60405180910390fd5b610e7267650dee4cc76bfb0560c01b61260f565b610e866786cfffb7a6e39bfb60c01b61260f565b6000600960008373ffffffffffffffffffffffffffffffffffffffff1673ffffffffffffffffffffffffffffffffffffffff16815260200190815260200160002060006101000a81548160ff021916908315150217905550610ef2674cf47e2a0e182b3d60c01b61260f565b610f0667b1c3cfad24b2d90f60c01b61260f565b7fc66fe56647896b085e2dc084f3a4fdc93ef40bbe864e316f9347f2b1d5bbb05d81604051610f359190612e6a565b60405180910390a150565b610f54673759b2764bcde1e760c01b61260f565b610f68678a55f88bc3a44e1d60c01b61260f565b610f7c671e8ec361d38db07160c01b61260f565b610f9067f76561a9344995a260c01b61260f565b60011515600860003373ffffffffffffffffffffffffffffffffffffffff1673ffffffffffffffffffffffffffffffffffffffff16815260200190815260200160002060009054906101000a900460ff16151514611023576040517f08c379a000000000000000000000000000000000000000000000000000000000815260040161101a906131b5565b60405180910390fd5b611037674a452ec92f28284960c01b61260f565b61104b670d678261961b17af60c01b61260f565b61105f676189f5f8843f567760c01b61260f565b611073677e830a5e28a5c89f60c01b61260f565b600760009054906101000a900473ffffffffffffffffffffffffffffffffffffffff1673ffffffffffffffffffffffffffffffffffffffff168173ffffffffffffffffffffffffffffffffffffffff1603611103576040517f08c379a00000000000000000000000000000000000000000000000000000000081526004016110fa90613221565b60405180910390fd5b61111767b150cbd08e62a04060c01b61260f565b61112b674469160bc9c7fd9f60c01b61260f565b6001600960008373ffffffffffffffffffffffffffffffffffffffff1673ffffffffffffffffffffffffffffffffffffffff16815260200190815260200160002060006101000a81548160ff02191690831515021790555061119767ccede8c19e5459c760c01b61260f565b6000600860008373ffffffffffffffffffffffffffffffffffffffff1673ffffffffffffffffffffffffffffffffffffffff16815260200190815260200160002060006101000a81548160ff02191690831515021790555061120367da16242cfd31237c60c01b61260f565b61121767ff2eae00024b22a660c01b61260f565b7fc86c98cf54bcc0b90db7e2abb52d6a184fd9b42f3b00ea6e42b24f03054a4cdf816040516112469190612e6a565b60405180910390a150565b61126567ba961b274009f8f260c01b61260f565b6112796722b83aedff56e6ed60c01b61260f565b61128d67dd37559869fa967b60c01b61260f565b6112a167c40c3597ba47acec60c01b61260f565b600760009054906101000a900473ffffffffffffffffffffffffffffffffffffffff1673ffffffffffffffffffffffffffffffffffffffff163373ffffffffffffffffffffffffffffffffffffffff1614611331576040517f08c379a000000000000000000000000000000000000000000000000000000000815260040161132890613055565b60405180910390fd5b6113456762b5d9e88b04157d60c01b61260f565b61135967ff90330494fdbe1d60c01b61260f565b61136d67bb6737e86f2fe3c960c01b61260f565b61137782826127df565b61138b670283d8902ff88ed560c01b61260f565b61139f67fef81a46377cc74e60c01b61260f565b7f38c2c2a92a0cd401096b037595bcb9147c426d8c19c20a064b9132d4a823737682826040516113d092919061311a565b60405180910390a15050565b60008060008373ffffffffffffffffffffffffffffffffffffffff1673ffffffffffffffffffffffffffffffffffffffff168152602001908152602001600020549050919050565b61143867c97430b2b4b5820e60c01b61260f565b61144c67445e524500c6ea9960c01b61260f565b61146067e75f5fe52054fbab60c01b61260f565b600061146b836113dc565b9050611481673630e032410b009a60c01b61260f565b611495677631981bb1aba5f560c01b61260f565b6114a9672d31dcccbd5f022660c01b61260f565b8082036114eb576040517f08c379a00000000000000000000000000000000000000000000000000000000081526004016114e2906132b3565b60405180910390fd5b6114ff67c652c8267d13984b60c01b61260f565b61151367a83b7117fc17f31d60c01b61260f565b61152767d9e284bd83ff457460c01b61260f565b81811015611585576115436716478017f86773b260c01b61260f565b611557675aa461231117165060c01b61260f565b61156b677660e63d3f8d0d0c60c01b61260f565b61158083828461157b91906132d3565b611251565b6115d7565b611599674481464d051bb31960c01b61260f565b6115ad673f4a534898721dea60c01b61260f565b6115c167f15083fecd99b7cf60c01b61260f565b6115d68383836115d191906132d3565b610bf1565b5b6115eb67b5b589d5b92c682860c01b61260f565b6115ff67c7dfab8aa07d55fd60c01b61260f565b7f808b3fe63ee188e2cf302ffac826b7b612384c2c601ee9623877bd067cf9b322838360405161163092919061311a565b60405180910390a1505050565b60086020528060005260406000206000915054906101000a900460ff1681565b60606004805461166c90612eb4565b80601f016020809104026020016040519081016040528092919081815260200182805461169890612eb4565b80156116e55780601f106116ba576101008083540402835291602001916116e5565b820191906000526020600020905b8154815290600101906020018083116116c857829003601f168201915b5050505050905090565b6117036709ddf9a89910a11d60c01b61260f565b61171767584efc233cdbfbcf60c01b61260f565b61172b6731a29fbd39ec0dd960c01b61260f565b61173f67b468d1027d779d1660c01b61260f565b600760009054906101000a900473ffffffffffffffffffffffffffffffffffffffff1673ffffffffffffffffffffffffffffffffffffffff163373ffffffffffffffffffffffffffffffffffffffff16146117cf576040517f08c379a00000000000000000000000000000000000000000000000000000000081526004016117c690613055565b60405180910390fd5b6117e3671b16c5b60ba3a25060c01b61260f565b6117f767cdfd0570d5b0ba6860c01b61260f565b61180b678c5835b87ece2be560c01b61260f565b611816838383612399565b61182a6722e9ed9899f992bc60c01b61260f565b61183e676a76dede2758ac5360c01b61260f565b7f85a873f1151b5e8ef4e91314e535c8bd068ff4f10ee61a50738b903150e4b10c83838360405161187193929190613307565b60405180910390a1505050565b60008061188961213c565b90506000611897828661206a565b9050838110156118dc576040517f08c379a00000000000000000000000000000000000000000000000000000000081526004016118d3906133b0565b60405180910390fd5b6118e98286868403612144565b60019250505092915050565b60008061190061213c565b905061190d818585612399565b600191505092915050565b61192c67b53c9fb9b6f55e3c60c01b61260f565b61194067767f108edb88bfac60c01b61260f565b61195467ce2531e07efaa43c60c01b61260f565b6119686780a276804dc557b060c01b61260f565b600081116119ab576040517f08c379a00000000000000000000000000000000000000000000000000000000081526004016119a290613442565b60405180910390fd5b6119bf670d3acd234548d62760c01b61260f565b6119d367be4362cbc01e3b6760c01b61260f565b6119e767eb7582b22dabe4e460c01b61260f565b6000600b54670de0b6b3a764000083611a0091906130a4565b611a0a9190613491565b9050611a20670426e26127eb013760c01b61260f565b611a3467e9cf10c5a9a310b260c01b61260f565b611a48672a8630a263719a0860c01b61260f565b80471015611a8b576040517f08c379a0000000000000000000000000000000000000000000000000000000008152600401611a8290613534565b60405180910390fd5b611a9f67d8b2e316cea05a2560c01b61260f565b611ab3673e8ad83c31aabcc960c01b61260f565b611ac7670ad990e914f198e660c01b61260f565b611ae53330670de0b6b3a764000085611ae091906130a4565b612399565b611af9671c7b9e81c17e171560c01b61260f565b611b0d678b8feec84be547b360c01b61260f565b3373ffffffffffffffffffffffffffffffffffffffff166108fc829081150290604051600060405180830381858888f19350505050158015611b53573d6000803e3d6000fd5b50611b686715997c352379c3db60c01b61260f565b611b7c67709188a535fbf9cd60c01b61260f565b7f1dbebe6805324b2f402e6e2e83def016f38a15c77be9da6daf578338d938afaf82604051611bab9190612d1c565b60405180910390a15050565b611bcb67d0b355a67a9e7abf60c01b61260f565b611bdf6753dd73c76b33bf8160c01b61260f565b611bf367311a98a87ab8e37760c01b61260f565b611c0767c35afb0401cbaaad60c01b61260f565b60003411611c4a576040517f08c379a0000000000000000000000000000000000000000000000000000000008152600401611c41906135a0565b60405180910390fd5b611c5e6766aaff6a3cd0846f60c01b61260f565b611c726781630009e988dadb60c01b61260f565b611c8667d6e2dad9d4abd0ce60c01b61260f565b6000600a5434611c9691906130a4565b9050611cac673d69d7571078470c60c01b61260f565b611cc0676943e6d279f6c11a60c01b61260f565b611cd467a47b6c99b3c7059560c01b61260f565b80600654611ce291906132d3565b611cea6106cb565b1115611d2b576040517f08c379a0000000000000000000000000000000000000000000000000000000008152600401611d2290613632565b60405180910390fd5b611d3f67aaf41363195ca4dc60c01b61260f565b611d5367e898844f0d9d0c3660c01b61260f565b611d67672d9c77aa18decc4060c01b61260f565b611d7133826127df565b611d856791fe73b44015b48f60c01b61260f565b611d99674b635eb2068adf5e60c01b61260f565b7fd81111abb48d6ec092da91826e9fb95d6cb349afaa256bf2c3251dc54efb110c60405160405180910390a150565b611ddc67e5824186a426b2a460c01b61260f565b611df0674e07c924e30f7e9e60c01b61260f565b611e04670ad95df1d81d78bb60c01b61260f565b611e18672e071201dcc2f76460c01b61260f565b600760009054906101000a900473ffffffffffffffffffffffffffffffffffffffff1673ffffffffffffffffffffffffffffffffffffffff163373ffffffffffffffffffffffffffffffffffffffff1614611ea8576040517f08c379a0000000000000000000000000000000000000000000000000000000008152600401611e9f90613055565b60405180910390fd5b611ebc6748af7dceba8ddb0360c01b61260f565b611ed0679c63dcc7453eaae660c01b61260f565b611ee467e1a110adc171b53e60c01b61260f565b611ef867fc464930a6bb663660c01b61260f565b600760009054906101000a900473ffffffffffffffffffffffffffffffffffffffff1673ffffffffffffffffffffffffffffffffffffffff168173ffffffffffffffffffffffffffffffffffffffff1603611f88576040517f08c379a0000000000000000000000000000000000000000000000000000000008152600401611f7f906136c4565b60405180910390fd5b611f9c6734b52e1298125ecd60c01b61260f565b611fb06770220bdd0c6bdb4260c01b61260f565b6000600860008373ffffffffffffffffffffffffffffffffffffffff1673ffffffffffffffffffffffffffffffffffffffff16815260200190815260200160002060006101000a81548160ff02191690831515021790555061201c6749388a2c550b032060c01b61260f565b612030671b2890ef4300e30a60c01b61260f565b7f094ca5f27671595b2d6098122778a7ca0b9ce30081cf47566f49df3c7969e27d8160405161205f9190612e6a565b60405180910390a150565b6000600160008473ffffffffffffffffffffffffffffffffffffffff1673ffffffffffffffffffffffffffffffffffffffff16815260200190815260200160002060008373ffffffffffffffffffffffffffffffffffffffff1673ffffffffffffffffffffffffffffffffffffffff16815260200190815260200160002054905092915050565b600760009054906101000a900473ffffffffffffffffffffffffffffffffffffffff1681565b60096020528060005260406000206000915054906101000a900460ff1681565b505050565b600033905090565b600073ffffffffffffffffffffffffffffffffffffffff168373ffffffffffffffffffffffffffffffffffffffff16036121b3576040517f08c379a00000000000000000000000000000000000000000000000000000000081526004016121aa90613756565b60405180910390fd5b600073ffffffffffffffffffffffffffffffffffffffff168273ffffffffffffffffffffffffffffffffffffffff1603612222576040517f08c379a0000000000000000000000000000000000000000000000000000000008152600401612219906137e8565b60405180910390fd5b80600160008573ffffffffffffffffffffffffffffffffffffffff1673ffffffffffffffffffffffffffffffffffffffff16815260200190815260200160002060008473ffffffffffffffffffffffffffffffffffffffff1673ffffffffffffffffffffffffffffffffffffffff168152602001908152602001600020819055508173ffffffffffffffffffffffffffffffffffffffff168373ffffffffffffffffffffffffffffffffffffffff167f8c5be1e5ebec7d5bd14f71427d1e84f3dd0314c0f7b2291e5b200ac8c7c3b925836040516123009190612d1c565b60405180910390a3505050565b6000612319848461206a565b90507fffffffffffffffffffffffffffffffffffffffffffffffffffffffffffffffff81146123935781811015612385576040517f08c379a000000000000000000000000000000000000000000000000000000000815260040161237c90613854565b60405180910390fd5b6123928484848403612144565b5b50505050565b600073ffffffffffffffffffffffffffffffffffffffff168373ffffffffffffffffffffffffffffffffffffffff1603612408576040517f08c379a00000000000000000000000000000000000000000000000000000000081526004016123ff906138e6565b60405180910390fd5b600073ffffffffffffffffffffffffffffffffffffffff168273ffffffffffffffffffffffffffffffffffffffff1603612477576040517f08c379a000000000000000000000000000000000000000000000000000000000815260040161246e90613978565b60405180910390fd5b612482838383612935565b60008060008573ffffffffffffffffffffffffffffffffffffffff1673ffffffffffffffffffffffffffffffffffffffff16815260200190815260200160002054905081811015612508576040517f08c379a00000000000000000000000000000000000000000000000000000000081526004016124ff90613a0a565b60405180910390fd5b8181036000808673ffffffffffffffffffffffffffffffffffffffff1673ffffffffffffffffffffffffffffffffffffffff16815260200190815260200160002081905550816000808573ffffffffffffffffffffffffffffffffffffffff1673ffffffffffffffffffffffffffffffffffffffff168152602001908152602001600020600082825401925050819055508273ffffffffffffffffffffffffffffffffffffffff168473ffffffffffffffffffffffffffffffffffffffff167fddf252ad1be2c89b69c2b068fc378daa952ba7f163c4a11628f55a4df523b3ef846040516125f69190612d1c565b60405180910390a3612609848484612b47565b50505050565b50565b600073ffffffffffffffffffffffffffffffffffffffff168273ffffffffffffffffffffffffffffffffffffffff1603612681576040517f08c379a000000000000000000000000000000000000000000000000000000000815260040161267890613a9c565b60405180910390fd5b61268d82600083612935565b60008060008473ffffffffffffffffffffffffffffffffffffffff1673ffffffffffffffffffffffffffffffffffffffff16815260200190815260200160002054905081811015612713576040517f08c379a000000000000000000000000000000000000000000000000000000000815260040161270a90613b2e565b60405180910390fd5b8181036000808573ffffffffffffffffffffffffffffffffffffffff1673ffffffffffffffffffffffffffffffffffffffff1681526020019081526020016000208190555081600260008282540392505081905550600073ffffffffffffffffffffffffffffffffffffffff168373ffffffffffffffffffffffffffffffffffffffff167fddf252ad1be2c89b69c2b068fc378daa952ba7f163c4a11628f55a4df523b3ef846040516127c69190612d1c565b60405180910390a36127da83600084612b47565b505050565b600073ffffffffffffffffffffffffffffffffffffffff168273ffffffffffffffffffffffffffffffffffffffff160361284e576040517f08c379a000000000000000000000000000000000000000000000000000000000815260040161284590613b9a565b60405180910390fd5b61285a60008383612935565b806002600082825461286c91906130e6565b92505081905550806000808473ffffffffffffffffffffffffffffffffffffffff1673ffffffffffffffffffffffffffffffffffffffff168152602001908152602001600020600082825401925050819055508173ffffffffffffffffffffffffffffffffffffffff16600073ffffffffffffffffffffffffffffffffffffffff167fddf252ad1be2c89b69c2b068fc378daa952ba7f163c4a11628f55a4df523b3ef8360405161291d9190612d1c565b60405180910390a361293160008383612b47565b5050565b612949672173a9516d51073e60c01b61260f565b61295d67a7cc3328b3ac656d60c01b61260f565b612971679202f6d8d277fdb760c01b61260f565b61297c838383612137565b61299067aa72d4c0ac1a241b60c01b61260f565b6129a4671c8a9881f64a16cb60c01b61260f565b6129b867d00a543799f3fa4560c01b61260f565b60001515600960008473ffffffffffffffffffffffffffffffffffffffff1673ffffffffffffffffffffffffffffffffffffffff16815260200190815260200160002060009054906101000a900460ff16151514612a4b576040517f08c379a0000000000000000000000000000000000000000000000000000000008152600401612a4290613c2c565b60405180910390fd5b612a5f670a5a2d93b383fcd460c01b61260f565b612a7367aecdc0d7313d950d60c01b61260f565b612a87670cf98f794e35c8c560c01b61260f565b612a9b6744a7c7a5b805df1b60c01b61260f565b60001515600960008573ffffffffffffffffffffffffffffffffffffffff1673ffffffffffffffffffffffffffffffffffffffff16815260200190815260200160002060009054906101000a900460ff16151514612b2e576040517f08c379a0000000000000000000000000000000000000000000000000000000008152600401612b2590613cbe565b60405180910390fd5b612b4267245182d0d6823b0860c01b61260f565b505050565b505050565b600081519050919050565b600082825260208201905092915050565b60005b83811015612b86578082015181840152602081019050612b6b565b60008484015250505050565b6000601f19601f8301169050919050565b6000612bae82612b4c565b612bb88185612b57565b9350612bc8818560208601612b68565b612bd181612b92565b840191505092915050565b60006020820190508181036000830152612bf68184612ba3565b905092915050565b600080fd5b600073ffffffffffffffffffffffffffffffffffffffff82169050919050565b6000612c2e82612c03565b9050919050565b612c3e81612c23565b8114612c4957600080fd5b50565b600081359050612c5b81612c35565b92915050565b6000819050919050565b612c7481612c61565b8114612c7f57600080fd5b50565b600081359050612c9181612c6b565b92915050565b60008060408385031215612cae57612cad612bfe565b5b6000612cbc85828601612c4c565b9250506020612ccd85828601612c82565b9150509250929050565b60008115159050919050565b612cec81612cd7565b82525050565b6000602082019050612d076000830184612ce3565b92915050565b612d1681612c61565b82525050565b6000602082019050612d316000830184612d0d565b92915050565b600080600060608486031215612d5057612d4f612bfe565b5b6000612d5e86828701612c4c565b9350506020612d6f86828701612c4c565b9250506040612d8086828701612c82565b9150509250925092565b600060208284031215612da057612d9f612bfe565b5b6000612dae84828501612c4c565b91505092915050565b600060208284031215612dcd57612dcc612bfe565b5b6000612ddb84828501612c82565b91505092915050565b600060ff82169050919050565b612dfa81612de4565b82525050565b6000602082019050612e156000830184612df1565b92915050565b60008060408385031215612e3257612e31612bfe565b5b6000612e4085828601612c4c565b9250506020612e5185828601612c4c565b9150509250929050565b612e6481612c23565b82525050565b6000602082019050612e7f6000830184612e5b565b92915050565b7f4e487b7100000000000000000000000000000000000000000000000000000000600052602260045260246000fd5b60006002820490506001821680612ecc57607f821691505b602082108103612edf57612ede612e85565b5b50919050565b7f4d757374206265636f6d6520616e20617574686f72697479206265666f72652060008201527f706572666f726d696e67207468697320616374696f6e21210000000000000000602082015250565b6000612f41603883612b57565b9150612f4c82612ee5565b604082019050919050565b60006020820190508181036000830152612f7081612f34565b9050919050565b7f43616e6e6f74206d616b6520612073616e6374696f6e6564206164647265737360008201527f20616e20617574686f7269747921210000000000000000000000000000000000602082015250565b6000612fd3602f83612b57565b9150612fde82612f77565b604082019050919050565b6000602082019050818103600083015261300281612fc6565b9050919050565b7f596f7520646f206e6f7420686176652074686520706f77657221210000000000600082015250565b600061303f601b83612b57565b915061304a82613009565b602082019050919050565b6000602082019050818103600083015261306e81613032565b9050919050565b7f4e487b7100000000000000000000000000000000000000000000000000000000600052601160045260246000fd5b60006130af82612c61565b91506130ba83612c61565b92508282026130c881612c61565b915082820484148315176130df576130de613075565b5b5092915050565b60006130f182612c61565b91506130fc83612c61565b925082820190508082111561311457613113613075565b5b92915050565b600060408201905061312f6000830185612e5b565b61313c6020830184612d0d565b9392505050565b7f4d757374206265636f6d6520616e20617574686f72697479206265666f72652060008201527f706572666f726d696e67207468697320616374696f6e00000000000000000000602082015250565b600061319f603683612b57565b91506131aa82613143565b604082019050919050565b600060208201905081810360008301526131ce81613192565b9050919050565b7f43616e6e6f742073616e6374696f6e20676f6421210000000000000000000000600082015250565b600061320b601583612b57565b9150613216826131d5565b602082019050919050565b6000602082019050818103600083015261323a816131fe565b9050919050565b7f4e6f206e65656420746f206368616e67652062616c616e636573202d20416c7260008201527f6561647920617420746861742076616c75650000000000000000000000000000602082015250565b600061329d603283612b57565b91506132a882613241565b604082019050919050565b600060208201905081810360008301526132cc81613290565b9050919050565b60006132de82612c61565b91506132e983612c61565b925082820390508181111561330157613300613075565b5b92915050565b600060608201905061331c6000830186612e5b565b6133296020830185612e5b565b6133366040830184612d0d565b949350505050565b7f45524332303a2064656372656173656420616c6c6f77616e63652062656c6f7760008201527f207a65726f000000000000000000000000000000000000000000000000000000602082015250565b600061339a602583612b57565b91506133a58261333e565b604082019050919050565b600060208201905081810360008301526133c98161338d565b9050919050565b7f496e70757420616d6f756e7420746f2073656c6c4261636b203d3d20303f3f2160008201527f2100000000000000000000000000000000000000000000000000000000000000602082015250565b600061342c602183612b57565b9150613437826133d0565b604082019050919050565b6000602082019050818103600083015261345b8161341f565b9050919050565b7f4e487b7100000000000000000000000000000000000000000000000000000000600052601260045260246000fd5b600061349c82612c61565b91506134a783612c61565b9250826134b7576134b6613462565b5b828204905092915050565b7f536d61727420636f6e747261637420697320746f6f20706f6f7220666f72206160008201527f20726566756e6421210000000000000000000000000000000000000000000000602082015250565b600061351e602983612b57565b9150613529826134c2565b604082019050919050565b6000602082019050818103600083015261354d81613511565b9050919050565b7f4d7573742073656e64206d6f7265207468616e20302045544821210000000000600082015250565b600061358a601b83612b57565b915061359582613554565b602082019050919050565b600060208201905081810360008301526135b98161357d565b9050919050565b7f4d696e742077696c6c206f766572666c6f772074686520312c3030302c30303060008201527f20746f6b656e206c696d69740000000000000000000000000000000000000000602082015250565b600061361c602c83612b57565b9150613627826135c0565b604082019050919050565b6000602082019050818103600083015261364b8161360f565b9050919050565b7f43616e6e6f742072656d6f766520676f6420617320616e20617574686f72697460008201527f7921210000000000000000000000000000000000000000000000000000000000602082015250565b60006136ae602383612b57565b91506136b982613652565b604082019050919050565b600060208201905081810360008301526136dd816136a1565b9050919050565b7f45524332303a20617070726f76652066726f6d20746865207a65726f2061646460008201527f7265737300000000000000000000000000000000000000000000000000000000602082015250565b6000613740602483612b57565b915061374b826136e4565b604082019050919050565b6000602082019050818103600083015261376f81613733565b9050919050565b7f45524332303a20617070726f766520746f20746865207a65726f20616464726560008201527f7373000000000000000000000000000000000000000000000000000000000000602082015250565b60006137d2602283612b57565b91506137dd82613776565b604082019050919050565b60006020820190508181036000830152613801816137c5565b9050919050565b7f45524332303a20696e73756666696369656e7420616c6c6f77616e6365000000600082015250565b600061383e601d83612b57565b915061384982613808565b602082019050919050565b6000602082019050818103600083015261386d81613831565b9050919050565b7f45524332303a207472616e736665722066726f6d20746865207a65726f20616460008201527f6472657373000000000000000000000000000000000000000000000000000000602082015250565b60006138d0602583612b57565b91506138db82613874565b604082019050919050565b600060208201905081810360008301526138ff816138c3565b9050919050565b7f45524332303a207472616e7366657220746f20746865207a65726f206164647260008201527f6573730000000000000000000000000000000000000000000000000000000000602082015250565b6000613962602383612b57565b915061396d82613906565b604082019050919050565b6000602082019050818103600083015261399181613955565b9050919050565b7f45524332303a207472616e7366657220616d6f756e742065786365656473206260008201527f616c616e63650000000000000000000000000000000000000000000000000000602082015250565b60006139f4602683612b57565b91506139ff82613998565b604082019050919050565b60006020820190508181036000830152613a23816139e7565b9050919050565b7f45524332303a206275726e2066726f6d20746865207a65726f2061646472657360008201527f7300000000000000000000000000000000000000000000000000000000000000602082015250565b6000613a86602183612b57565b9150613a9182613a2a565b604082019050919050565b60006020820190508181036000830152613ab581613a79565b9050919050565b7f45524332303a206275726e20616d6f756e7420657863656564732062616c616e60008201527f6365000000000000000000000000000000000000000000000000000000000000602082015250565b6000613b18602283612b57565b9150613b2382613abc565b604082019050919050565b60006020820190508181036000830152613b4781613b0b565b9050919050565b7f45524332303a206d696e7420746f20746865207a65726f206164647265737300600082015250565b6000613b84601f83612b57565b9150613b8f82613b4e565b602082019050919050565b60006020820190508181036000830152613bb381613b77565b9050919050565b7f56494f4c4154494f4e21212043616e6e6f74207472616e7366657220746f206160008201527f2073616e6374696f6e6564206164647265737321000000000000000000000000602082015250565b6000613c16603483612b57565b9150613c2182613bba565b604082019050919050565b60006020820190508181036000830152613c4581613c09565b9050919050565b7f56494f4c4154494f4e21212043616e6e6f74207472616e736665722066726f6d60008201527f20612073616e6374696f6e656420616464726573732100000000000000000000602082015250565b6000613ca8603683612b57565b9150613cb382613c4c565b604082019050919050565b60006020820190508181036000830152613cd781613c9b565b905091905056fea2646970667358221220124528b9a602e85ba87cda93e739138c511ac20fbbb94ea799784ff16325782564736f6c63430008110033",
  "linkReferences": {},
  "deployedLinkReferences": {}
}