{
  "_format": "hh-sol-artifact-1",
  "contractName": "ForgeToken",
  "sourceName": "contracts/ForgeToken.sol",
  "abi": [
    {
      "inputs": [],
      "stateMutability": "nonpayable",
      "type": "constructor"
    },
    {
      "anonymous": false,
      "inputs": [
        {
          "indexed": true,
          "internalType": "address",
          "name": "account",
          "type": "address"
        },
        {
          "indexed": true,
          "internalType": "address",
          "name": "operator",
          "type": "address"
        },
        {
          "indexed": false,
          "internalType": "bool",
          "name": "approved",
          "type": "bool"
        }
      ],
      "name": "ApprovalForAll",
      "type": "event"
    },
    {
      "anonymous": false,
      "inputs": [
        {
          "indexed": true,
          "internalType": "address",
          "name": "previousOwner",
          "type": "address"
        },
        {
          "indexed": true,
          "internalType": "address",
          "name": "newOwner",
          "type": "address"
        }
      ],
      "name": "OwnershipTransferred",
      "type": "event"
    },
    {
      "anonymous": false,
      "inputs": [
        {
          "indexed": true,
          "internalType": "address",
          "name": "operator",
          "type": "address"
        },
        {
          "indexed": true,
          "internalType": "address",
          "name": "from",
          "type": "address"
        },
        {
          "indexed": true,
          "internalType": "address",
          "name": "to",
          "type": "address"
        },
        {
          "indexed": false,
          "internalType": "uint256[]",
          "name": "ids",
          "type": "uint256[]"
        },
        {
          "indexed": false,
          "internalType": "uint256[]",
          "name": "values",
          "type": "uint256[]"
        }
      ],
      "name": "TransferBatch",
      "type": "event"
    },
    {
      "anonymous": false,
      "inputs": [
        {
          "indexed": true,
          "internalType": "address",
          "name": "operator",
          "type": "address"
        },
        {
          "indexed": true,
          "internalType": "address",
          "name": "from",
          "type": "address"
        },
        {
          "indexed": true,
          "internalType": "address",
          "name": "to",
          "type": "address"
        },
        {
          "indexed": false,
          "internalType": "uint256",
          "name": "id",
          "type": "uint256"
        },
        {
          "indexed": false,
          "internalType": "uint256",
          "name": "value",
          "type": "uint256"
        }
      ],
      "name": "TransferSingle",
      "type": "event"
    },
    {
      "anonymous": false,
      "inputs": [
        {
          "indexed": false,
          "internalType": "string",
          "name": "value",
          "type": "string"
        },
        {
          "indexed": true,
          "internalType": "uint256",
          "name": "id",
          "type": "uint256"
        }
      ],
      "name": "URI",
      "type": "event"
    },
    {
      "inputs": [],
      "name": "FIVE",
      "outputs": [
        {
          "internalType": "uint256",
          "name": "",
          "type": "uint256"
        }
      ],
      "stateMutability": "view",
      "type": "function"
    },
    {
      "inputs": [],
      "name": "FOUR",
      "outputs": [
        {
          "internalType": "uint256",
          "name": "",
          "type": "uint256"
        }
      ],
      "stateMutability": "view",
      "type": "function"
    },
    {
      "inputs": [],
      "name": "ONE",
      "outputs": [
        {
          "internalType": "uint256",
          "name": "",
          "type": "uint256"
        }
      ],
      "stateMutability": "view",
      "type": "function"
    },
    {
      "inputs": [],
      "name": "SIX",
      "outputs": [
        {
          "internalType": "uint256",
          "name": "",
          "type": "uint256"
        }
      ],
      "stateMutability": "view",
      "type": "function"
    },
    {
      "inputs": [],
      "name": "THREE",
      "outputs": [
        {
          "internalType": "uint256",
          "name": "",
          "type": "uint256"
        }
      ],
      "stateMutability": "view",
      "type": "function"
    },
    {
      "inputs": [],
      "name": "TWO",
      "outputs": [
        {
          "internalType": "uint256",
          "name": "",
          "type": "uint256"
        }
      ],
      "stateMutability": "view",
      "type": "function"
    },
    {
      "inputs": [],
      "name": "ZERO",
      "outputs": [
        {
          "internalType": "uint256",
          "name": "",
          "type": "uint256"
        }
      ],
      "stateMutability": "view",
      "type": "function"
    },
    {
      "inputs": [],
      "name": "_minter",
      "outputs": [
        {
          "internalType": "address",
          "name": "",
          "type": "address"
        }
      ],
      "stateMutability": "view",
      "type": "function"
    },
    {
      "inputs": [
        {
          "internalType": "address",
          "name": "account",
          "type": "address"
        },
        {
          "internalType": "uint256",
          "name": "id",
          "type": "uint256"
        }
      ],
      "name": "balanceOf",
      "outputs": [
        {
          "internalType": "uint256",
          "name": "",
          "type": "uint256"
        }
      ],
      "stateMutability": "view",
      "type": "function"
    },
    {
      "inputs": [
        {
          "internalType": "address[]",
          "name": "accounts",
          "type": "address[]"
        },
        {
          "internalType": "uint256[]",
          "name": "ids",
          "type": "uint256[]"
        }
      ],
      "name": "balanceOfBatch",
      "outputs": [
        {
          "internalType": "uint256[]",
          "name": "",
          "type": "uint256[]"
        }
      ],
      "stateMutability": "view",
      "type": "function"
    },
    {
      "inputs": [
        {
          "internalType": "address",
          "name": "from",
          "type": "address"
        },
        {
          "internalType": "uint256",
          "name": "id",
          "type": "uint256"
        },
        {
          "internalType": "uint256",
          "name": "amount",
          "type": "uint256"
        }
      ],
      "name": "burn",
      "outputs": [],
      "stateMutability": "nonpayable",
      "type": "function"
    },
    {
      "inputs": [
        {
          "internalType": "address",
          "name": "newMinter",
          "type": "address"
        }
      ],
      "name": "changeMinter",
      "outputs": [],
      "stateMutability": "nonpayable",
      "type": "function"
    },
    {
      "inputs": [
        {
          "internalType": "address",
          "name": "account",
          "type": "address"
        },
        {
          "internalType": "address",
          "name": "operator",
          "type": "address"
        }
      ],
      "name": "isApprovedForAll",
      "outputs": [
        {
          "internalType": "bool",
          "name": "",
          "type": "bool"
        }
      ],
      "stateMutability": "view",
      "type": "function"
    },
    {
      "inputs": [
        {
          "internalType": "address",
          "name": "to",
          "type": "address"
        },
        {
          "internalType": "uint256",
          "name": "id",
          "type": "uint256"
        },
        {
          "internalType": "uint256",
          "name": "amount",
          "type": "uint256"
        }
      ],
      "name": "mint",
      "outputs": [],
      "stateMutability": "nonpayable",
      "type": "function"
    },
    {
      "inputs": [],
      "name": "owner",
      "outputs": [
        {
          "internalType": "address",
          "name": "",
          "type": "address"
        }
      ],
      "stateMutability": "view",
      "type": "function"
    },
    {
      "inputs": [],
      "name": "renounceOwnership",
      "outputs": [],
      "stateMutability": "nonpayable",
      "type": "function"
    },
    {
      "inputs": [
        {
          "internalType": "address",
          "name": "from",
          "type": "address"
        },
        {
          "internalType": "address",
          "name": "to",
          "type": "address"
        },
        {
          "internalType": "uint256[]",
          "name": "ids",
          "type": "uint256[]"
        },
        {
          "internalType": "uint256[]",
          "name": "amounts",
          "type": "uint256[]"
        },
        {
          "internalType": "bytes",
          "name": "data",
          "type": "bytes"
        }
      ],
      "name": "safeBatchTransferFrom",
      "outputs": [],
      "stateMutability": "nonpayable",
      "type": "function"
    },
    {
      "inputs": [
        {
          "internalType": "address",
          "name": "from",
          "type": "address"
        },
        {
          "internalType": "address",
          "name": "to",
          "type": "address"
        },
        {
          "internalType": "uint256",
          "name": "id",
          "type": "uint256"
        },
        {
          "internalType": "uint256",
          "name": "amount",
          "type": "uint256"
        },
        {
          "internalType": "bytes",
          "name": "data",
          "type": "bytes"
        }
      ],
      "name": "safeTransferFrom",
      "outputs": [],
      "stateMutability": "nonpayable",
      "type": "function"
    },
    {
      "inputs": [
        {
          "internalType": "address",
          "name": "operator",
          "type": "address"
        },
        {
          "internalType": "bool",
          "name": "approved",
          "type": "bool"
        }
      ],
      "name": "setApprovalForAll",
      "outputs": [],
      "stateMutability": "nonpayable",
      "type": "function"
    },
    {
      "inputs": [
        {
          "internalType": "bytes4",
          "name": "interfaceId",
          "type": "bytes4"
        }
      ],
      "name": "supportsInterface",
      "outputs": [
        {
          "internalType": "bool",
          "name": "",
          "type": "bool"
        }
      ],
      "stateMutability": "view",
      "type": "function"
    },
    {
      "inputs": [
        {
          "internalType": "address",
          "name": "newOwner",
          "type": "address"
        }
      ],
      "name": "transferOwnership",
      "outputs": [],
      "stateMutability": "nonpayable",
      "type": "function"
    },
    {
      "inputs": [
        {
          "internalType": "uint256",
          "name": "",
          "type": "uint256"
        }
      ],
      "name": "uri",
      "outputs": [
        {
          "internalType": "string",
          "name": "",
          "type": "string"
        }
      ],
      "stateMutability": "view",
      "type": "function"
    }
  ],
  "bytecode": "0x60806040523480156200001157600080fd5b506040518060200160405280600081525062000033816200009c60201b60201c565b506200005462000048620000b860201b60201c565b620000c060201b60201c565b6000600460006101000a81548173ffffffffffffffffffffffffffffffffffffffff021916908373ffffffffffffffffffffffffffffffffffffffff1602179055506200029b565b8060029080519060200190620000b492919062000186565b5050565b600033905090565b6000600360009054906101000a900473ffffffffffffffffffffffffffffffffffffffff16905081600360006101000a81548173ffffffffffffffffffffffffffffffffffffffff021916908373ffffffffffffffffffffffffffffffffffffffff1602179055508173ffffffffffffffffffffffffffffffffffffffff168173ffffffffffffffffffffffffffffffffffffffff167f8be0079c531659141344cd1fd0a4f28419497f9722a3daafe3b4186f6b6457e060405160405180910390a35050565b828054620001949062000236565b90600052602060002090601f016020900481019282620001b8576000855562000204565b82601f10620001d357805160ff191683800117855562000204565b8280016001018555821562000204579182015b8281111562000203578251825591602001919060010190620001e6565b5b50905062000213919062000217565b5090565b5b808211156200023257600081600090555060010162000218565b5090565b600060028204905060018216806200024f57607f821691505b602082108114156200026657620002656200026c565b5b50919050565b7f4e487b7100000000000000000000000000000000000000000000000000000000600052602260045260246000fd5b6139b180620002ab6000396000f3fe608060405234801561001057600080fd5b50600436106101415760003560e01c80638da5cb5b116100b8578063c2ee3a081161007c578063c2ee3a0814610352578063d1ba825714610370578063e985e9c51461038e578063f242432a146103be578063f2fde38b146103da578063f5298aca146103f657610141565b80638da5cb5b146102be578063942c4d25146102dc578063979631fb146102fa578063a22cb46514610318578063b39450361461033457610141565b80632eb2c2d61161010a5780632eb2c2d61461020e57806334945b3a1461022a5780634e1273f414610248578063578ec33f1461027857806358fa63ca14610296578063715018a6146102b457610141565b8062fdd58e1461014657806301ffc9a7146101765780630e89341c146101a6578063156e29f6146101d65780632c4d4d18146101f2575b600080fd5b610160600480360381019061015b919061243c565b610412565b60405161016d9190612e27565b60405180910390f35b610190600480360381019061018b9190612547565b6104db565b60405161019d9190612b2a565b60405180910390f35b6101c060048036038101906101bb91906125a1565b6105bd565b6040516101cd9190612b45565b60405180910390f35b6101f060048036038101906101eb919061247c565b610651565b005b61020c60048036038101906102079190612229565b610876565b005b61022860048036038101906102239190612296565b610920565b005b6102326109c1565b60405161023f9190612e27565b60405180910390f35b610262600480360381019061025d91906124cf565b6109c6565b60405161026f9190612ad1565b60405180910390f35b610280610adf565b60405161028d91906129f4565b60405180910390f35b61029e610b05565b6040516102ab9190612e27565b60405180910390f35b6102bc610b0a565b005b6102c6610b1e565b6040516102d391906129f4565b60405180910390f35b6102e4610b48565b6040516102f19190612e27565b60405180910390f35b610302610b4d565b60405161030f9190612e27565b60405180910390f35b610332600480360381019061032d91906123fc565b610b52565b005b61033c610b68565b6040516103499190612e27565b60405180910390f35b61035a610b6d565b6040516103679190612e27565b60405180910390f35b610378610b72565b6040516103859190612e27565b60405180910390f35b6103a860048036038101906103a39190612256565b610b77565b6040516103b59190612b2a565b60405180910390f35b6103d860048036038101906103d39190612365565b610c0b565b005b6103f460048036038101906103ef9190612229565b610cac565b005b610410600480360381019061040b919061247c565b610d30565b005b60008073ffffffffffffffffffffffffffffffffffffffff168373ffffffffffffffffffffffffffffffffffffffff161415610483576040517f08c379a000000000000000000000000000000000000000000000000000000000815260040161047a90612c67565b60405180910390fd5b60008083815260200190815260200160002060008473ffffffffffffffffffffffffffffffffffffffff1673ffffffffffffffffffffffffffffffffffffffff16815260200190815260200160002054905092915050565b60007fd9b67a26000000000000000000000000000000000000000000000000000000007bffffffffffffffffffffffffffffffffffffffffffffffffffffffff1916827bffffffffffffffffffffffffffffffffffffffffffffffffffffffff191614806105a657507f0e89341c000000000000000000000000000000000000000000000000000000007bffffffffffffffffffffffffffffffffffffffffffffffffffffffff1916827bffffffffffffffffffffffffffffffffffffffffffffffffffffffff1916145b806105b657506105b582610ec0565b5b9050919050565b6060600280546105cc90613096565b80601f01602080910402602001604051908101604052809291908181526020018280546105f890613096565b80156106455780601f1061061a57610100808354040283529160200191610645565b820191906000526020600020905b81548152906001019060200180831161062857829003601f168201915b50505050509050919050565b6106703373ffffffffffffffffffffffffffffffffffffffff16610f2a565b6106af576040517f08c379a00000000000000000000000000000000000000000000000000000000081526004016106a690612c07565b60405180910390fd5b600460009054906101000a900473ffffffffffffffffffffffffffffffffffffffff1673ffffffffffffffffffffffffffffffffffffffff163373ffffffffffffffffffffffffffffffffffffffff161461073f576040517f08c379a000000000000000000000000000000000000000000000000000000000815260040161073690612c27565b60405180910390fd5b600073ffffffffffffffffffffffffffffffffffffffff16600460009054906101000a900473ffffffffffffffffffffffffffffffffffffffff1673ffffffffffffffffffffffffffffffffffffffff1614156107d1576040517f08c379a00000000000000000000000000000000000000000000000000000000081526004016107c890612ba7565b60405180910390fd5b60008214806107e05750600182145b806107eb5750600282145b806107f65750600382145b806108015750600482145b8061080c5750600582145b806108175750600682145b610856576040517f08c379a000000000000000000000000000000000000000000000000000000000815260040161084d90612d07565b60405180910390fd5b61087183838360405180602001604052806000815250610f4d565b505050565b61087e6110fe565b61089d8173ffffffffffffffffffffffffffffffffffffffff16610f2a565b6108dc576040517f08c379a00000000000000000000000000000000000000000000000000000000081526004016108d390612d47565b60405180910390fd5b80600460006101000a81548173ffffffffffffffffffffffffffffffffffffffff021916908373ffffffffffffffffffffffffffffffffffffffff16021790555050565b61092861117c565b73ffffffffffffffffffffffffffffffffffffffff168573ffffffffffffffffffffffffffffffffffffffff16148061096e575061096d8561096861117c565b610b77565b5b6109ad576040517f08c379a00000000000000000000000000000000000000000000000000000000081526004016109a490612c87565b60405180910390fd5b6109ba8585858585611184565b5050505050565b600281565b60608151835114610a0c576040517f08c379a0000000000000000000000000000000000000000000000000000000008152600401610a0390612d87565b60405180910390fd5b6000835167ffffffffffffffff811115610a2957610a286131cf565b5b604051908082528060200260200182016040528015610a575781602001602082028036833780820191505090505b50905060005b8451811015610ad457610aa4858281518110610a7c57610a7b6131a0565b5b6020026020010151858381518110610a9757610a966131a0565b5b6020026020010151610412565b828281518110610ab757610ab66131a0565b5b60200260200101818152505080610acd906130f9565b9050610a5d565b508091505092915050565b600460009054906101000a900473ffffffffffffffffffffffffffffffffffffffff1681565b600081565b610b126110fe565b610b1c60006114a6565b565b6000600360009054906101000a900473ffffffffffffffffffffffffffffffffffffffff16905090565b600581565b600381565b610b64610b5d61117c565b838361156c565b5050565b600481565b600181565b600681565b6000600160008473ffffffffffffffffffffffffffffffffffffffff1673ffffffffffffffffffffffffffffffffffffffff16815260200190815260200160002060008373ffffffffffffffffffffffffffffffffffffffff1673ffffffffffffffffffffffffffffffffffffffff16815260200190815260200160002060009054906101000a900460ff16905092915050565b610c1361117c565b73ffffffffffffffffffffffffffffffffffffffff168573ffffffffffffffffffffffffffffffffffffffff161480610c595750610c5885610c5361117c565b610b77565b5b610c98576040517f08c379a0000000000000000000000000000000000000000000000000000000008152600401610c8f90612c87565b60405180910390fd5b610ca585858585856116d9565b5050505050565b610cb46110fe565b600073ffffffffffffffffffffffffffffffffffffffff168173ffffffffffffffffffffffffffffffffffffffff161415610d24576040517f08c379a0000000000000000000000000000000000000000000000000000000008152600401610d1b90612bc7565b60405180910390fd5b610d2d816114a6565b50565b610d4f3373ffffffffffffffffffffffffffffffffffffffff16610f2a565b610d8e576040517f08c379a0000000000000000000000000000000000000000000000000000000008152600401610d8590612e07565b60405180910390fd5b600460009054906101000a900473ffffffffffffffffffffffffffffffffffffffff1673ffffffffffffffffffffffffffffffffffffffff163373ffffffffffffffffffffffffffffffffffffffff1614610e1e576040517f08c379a0000000000000000000000000000000000000000000000000000000008152600401610e1590612c47565b60405180910390fd5b600073ffffffffffffffffffffffffffffffffffffffff16600460009054906101000a900473ffffffffffffffffffffffffffffffffffffffff1673ffffffffffffffffffffffffffffffffffffffff161415610eb0576040517f08c379a0000000000000000000000000000000000000000000000000000000008152600401610ea790612b87565b60405180910390fd5b610ebb838383611975565b505050565b60007f01ffc9a7000000000000000000000000000000000000000000000000000000007bffffffffffffffffffffffffffffffffffffffffffffffffffffffff1916827bffffffffffffffffffffffffffffffffffffffffffffffffffffffff1916149050919050565b6000808273ffffffffffffffffffffffffffffffffffffffff163b119050919050565b600073ffffffffffffffffffffffffffffffffffffffff168473ffffffffffffffffffffffffffffffffffffffff161415610fbd576040517f08c379a0000000000000000000000000000000000000000000000000000000008152600401610fb490612dc7565b60405180910390fd5b6000610fc761117c565b90506000610fd485611bbc565b90506000610fe185611bbc565b9050610ff283600089858589611c36565b8460008088815260200190815260200160002060008973ffffffffffffffffffffffffffffffffffffffff1673ffffffffffffffffffffffffffffffffffffffff16815260200190815260200160002060008282546110519190612f8a565b925050819055508673ffffffffffffffffffffffffffffffffffffffff16600073ffffffffffffffffffffffffffffffffffffffff168473ffffffffffffffffffffffffffffffffffffffff167fc3d58168c5ae7397731d063d5bbf3d657854427343f4c083240f7aacaa2d0f6289896040516110cf929190612e42565b60405180910390a46110e683600089858589611c3e565b6110f583600089898989611c46565b50505050505050565b61110661117c565b73ffffffffffffffffffffffffffffffffffffffff16611124610b1e565b73ffffffffffffffffffffffffffffffffffffffff161461117a576040517f08c379a000000000000000000000000000000000000000000000000000000000815260040161117190612d27565b60405180910390fd5b565b600033905090565b81518351146111c8576040517f08c379a00000000000000000000000000000000000000000000000000000000081526004016111bf90612da7565b60405180910390fd5b600073ffffffffffffffffffffffffffffffffffffffff168473ffffffffffffffffffffffffffffffffffffffff161415611238576040517f08c379a000000000000000000000000000000000000000000000000000000000815260040161122f90612ca7565b60405180910390fd5b600061124261117c565b9050611252818787878787611c36565b60005b8451811015611403576000858281518110611273576112726131a0565b5b602002602001015190506000858381518110611292576112916131a0565b5b60200260200101519050600080600084815260200190815260200160002060008b73ffffffffffffffffffffffffffffffffffffffff1673ffffffffffffffffffffffffffffffffffffffff16815260200190815260200160002054905081811015611333576040517f08c379a000000000000000000000000000000000000000000000000000000000815260040161132a90612ce7565b60405180910390fd5b81810360008085815260200190815260200160002060008c73ffffffffffffffffffffffffffffffffffffffff1673ffffffffffffffffffffffffffffffffffffffff168152602001908152602001600020819055508160008085815260200190815260200160002060008b73ffffffffffffffffffffffffffffffffffffffff1673ffffffffffffffffffffffffffffffffffffffff16815260200190815260200160002060008282546113e89190612f8a565b92505081905550505050806113fc906130f9565b9050611255565b508473ffffffffffffffffffffffffffffffffffffffff168673ffffffffffffffffffffffffffffffffffffffff168273ffffffffffffffffffffffffffffffffffffffff167f4a39dc06d4c0dbc64b70af90fd698a233a518aa5d07e595d983b8c0526c8f7fb878760405161147a929190612af3565b60405180910390a4611490818787878787611c3e565b61149e818787878787611e2d565b505050505050565b6000600360009054906101000a900473ffffffffffffffffffffffffffffffffffffffff16905081600360006101000a81548173ffffffffffffffffffffffffffffffffffffffff021916908373ffffffffffffffffffffffffffffffffffffffff1602179055508173ffffffffffffffffffffffffffffffffffffffff168173ffffffffffffffffffffffffffffffffffffffff167f8be0079c531659141344cd1fd0a4f28419497f9722a3daafe3b4186f6b6457e060405160405180910390a35050565b8173ffffffffffffffffffffffffffffffffffffffff168373ffffffffffffffffffffffffffffffffffffffff1614156115db576040517f08c379a00000000000000000000000000000000000000000000000000000000081526004016115d290612d67565b60405180910390fd5b80600160008573ffffffffffffffffffffffffffffffffffffffff1673ffffffffffffffffffffffffffffffffffffffff16815260200190815260200160002060008473ffffffffffffffffffffffffffffffffffffffff1673ffffffffffffffffffffffffffffffffffffffff16815260200190815260200160002060006101000a81548160ff0219169083151502179055508173ffffffffffffffffffffffffffffffffffffffff168373ffffffffffffffffffffffffffffffffffffffff167f17307eab39ab6107e8899845ad3d59bd9653f200f220920489ca2b5937696c31836040516116cc9190612b2a565b60405180910390a3505050565b600073ffffffffffffffffffffffffffffffffffffffff168473ffffffffffffffffffffffffffffffffffffffff161415611749576040517f08c379a000000000000000000000000000000000000000000000000000000000815260040161174090612ca7565b60405180910390fd5b600061175361117c565b9050600061176085611bbc565b9050600061176d85611bbc565b905061177d838989858589611c36565b600080600088815260200190815260200160002060008a73ffffffffffffffffffffffffffffffffffffffff1673ffffffffffffffffffffffffffffffffffffffff16815260200190815260200160002054905085811015611814576040517f08c379a000000000000000000000000000000000000000000000000000000000815260040161180b90612ce7565b60405180910390fd5b85810360008089815260200190815260200160002060008b73ffffffffffffffffffffffffffffffffffffffff1673ffffffffffffffffffffffffffffffffffffffff168152602001908152602001600020819055508560008089815260200190815260200160002060008a73ffffffffffffffffffffffffffffffffffffffff1673ffffffffffffffffffffffffffffffffffffffff16815260200190815260200160002060008282546118c99190612f8a565b925050819055508773ffffffffffffffffffffffffffffffffffffffff168973ffffffffffffffffffffffffffffffffffffffff168573ffffffffffffffffffffffffffffffffffffffff167fc3d58168c5ae7397731d063d5bbf3d657854427343f4c083240f7aacaa2d0f628a8a604051611946929190612e42565b60405180910390a461195c848a8a86868a611c3e565b61196a848a8a8a8a8a611c46565b505050505050505050565b600073ffffffffffffffffffffffffffffffffffffffff168373ffffffffffffffffffffffffffffffffffffffff1614156119e5576040517f08c379a00000000000000000000000000000000000000000000000000000000081526004016119dc90612cc7565b60405180910390fd5b60006119ef61117c565b905060006119fc84611bbc565b90506000611a0984611bbc565b9050611a2983876000858560405180602001604052806000815250611c36565b600080600087815260200190815260200160002060008873ffffffffffffffffffffffffffffffffffffffff1673ffffffffffffffffffffffffffffffffffffffff16815260200190815260200160002054905084811015611ac0576040517f08c379a0000000000000000000000000000000000000000000000000000000008152600401611ab790612be7565b60405180910390fd5b84810360008088815260200190815260200160002060008973ffffffffffffffffffffffffffffffffffffffff1673ffffffffffffffffffffffffffffffffffffffff16815260200190815260200160002081905550600073ffffffffffffffffffffffffffffffffffffffff168773ffffffffffffffffffffffffffffffffffffffff168573ffffffffffffffffffffffffffffffffffffffff167fc3d58168c5ae7397731d063d5bbf3d657854427343f4c083240f7aacaa2d0f628989604051611b8d929190612e42565b60405180910390a4611bb384886000868660405180602001604052806000815250611c3e565b50505050505050565b60606000600167ffffffffffffffff811115611bdb57611bda6131cf565b5b604051908082528060200260200182016040528015611c095781602001602082028036833780820191505090505b5090508281600081518110611c2157611c206131a0565b5b60200260200101818152505080915050919050565b505050505050565b505050505050565b611c658473ffffffffffffffffffffffffffffffffffffffff16610f2a565b15611e25578373ffffffffffffffffffffffffffffffffffffffff1663f23a6e6187878686866040518663ffffffff1660e01b8152600401611cab959493929190612a77565b602060405180830381600087803b158015611cc557600080fd5b505af1925050508015611cf657506040513d601f19601f82011682018060405250810190611cf39190612574565b60015b611d9c57611d026131fe565b806308c379a01415611d5f5750611d17613889565b80611d225750611d61565b806040517f08c379a0000000000000000000000000000000000000000000000000000000008152600401611d569190612b45565b60405180910390fd5b505b6040517f08c379a0000000000000000000000000000000000000000000000000000000008152600401611d9390612de7565b60405180910390fd5b63f23a6e6160e01b7bffffffffffffffffffffffffffffffffffffffffffffffffffffffff1916817bffffffffffffffffffffffffffffffffffffffffffffffffffffffff191614611e23576040517f08c379a0000000000000000000000000000000000000000000000000000000008152600401611e1a90612b67565b60405180910390fd5b505b505050505050565b611e4c8473ffffffffffffffffffffffffffffffffffffffff16610f2a565b1561200c578373ffffffffffffffffffffffffffffffffffffffff1663bc197c8187878686866040518663ffffffff1660e01b8152600401611e92959493929190612a0f565b602060405180830381600087803b158015611eac57600080fd5b505af1925050508015611edd57506040513d601f19601f82011682018060405250810190611eda9190612574565b60015b611f8357611ee96131fe565b806308c379a01415611f465750611efe613889565b80611f095750611f48565b806040517f08c379a0000000000000000000000000000000000000000000000000000000008152600401611f3d9190612b45565b60405180910390fd5b505b6040517f08c379a0000000000000000000000000000000000000000000000000000000008152600401611f7a90612de7565b60405180910390fd5b63bc197c8160e01b7bffffffffffffffffffffffffffffffffffffffffffffffffffffffff1916817bffffffffffffffffffffffffffffffffffffffffffffffffffffffff19161461200a576040517f08c379a000000000000000000000000000000000000000000000000000000000815260040161200190612b67565b60405180910390fd5b505b505050505050565b600061202761202284612e90565b612e6b565b9050808382526020820190508285602086028201111561204a57612049613225565b5b60005b8581101561207a57816120608882612136565b84526020840193506020830192505060018101905061204d565b5050509392505050565b600061209761209284612ebc565b612e6b565b905080838252602082019050828560208602820111156120ba576120b9613225565b5b60005b858110156120ea57816120d08882612214565b8452602084019350602083019250506001810190506120bd565b5050509392505050565b600061210761210284612ee8565b612e6b565b9050828152602081018484840111156121235761212261322a565b5b61212e848285613054565b509392505050565b6000813590506121458161391f565b92915050565b600082601f8301126121605761215f613220565b5b8135612170848260208601612014565b91505092915050565b600082601f83011261218e5761218d613220565b5b813561219e848260208601612084565b91505092915050565b6000813590506121b681613936565b92915050565b6000813590506121cb8161394d565b92915050565b6000815190506121e08161394d565b92915050565b600082601f8301126121fb576121fa613220565b5b813561220b8482602086016120f4565b91505092915050565b60008135905061222381613964565b92915050565b60006020828403121561223f5761223e613234565b5b600061224d84828501612136565b91505092915050565b6000806040838503121561226d5761226c613234565b5b600061227b85828601612136565b925050602061228c85828601612136565b9150509250929050565b600080600080600060a086880312156122b2576122b1613234565b5b60006122c088828901612136565b95505060206122d188828901612136565b945050604086013567ffffffffffffffff8111156122f2576122f161322f565b5b6122fe88828901612179565b935050606086013567ffffffffffffffff81111561231f5761231e61322f565b5b61232b88828901612179565b925050608086013567ffffffffffffffff81111561234c5761234b61322f565b5b612358888289016121e6565b9150509295509295909350565b600080600080600060a0868803121561238157612380613234565b5b600061238f88828901612136565b95505060206123a088828901612136565b94505060406123b188828901612214565b93505060606123c288828901612214565b925050608086013567ffffffffffffffff8111156123e3576123e261322f565b5b6123ef888289016121e6565b9150509295509295909350565b6000806040838503121561241357612412613234565b5b600061242185828601612136565b9250506020612432858286016121a7565b9150509250929050565b6000806040838503121561245357612452613234565b5b600061246185828601612136565b925050602061247285828601612214565b9150509250929050565b60008060006060848603121561249557612494613234565b5b60006124a386828701612136565b93505060206124b486828701612214565b92505060406124c586828701612214565b9150509250925092565b600080604083850312156124e6576124e5613234565b5b600083013567ffffffffffffffff8111156125045761250361322f565b5b6125108582860161214b565b925050602083013567ffffffffffffffff8111156125315761253061322f565b5b61253d85828601612179565b9150509250929050565b60006020828403121561255d5761255c613234565b5b600061256b848285016121bc565b91505092915050565b60006020828403121561258a57612589613234565b5b6000612598848285016121d1565b91505092915050565b6000602082840312156125b7576125b6613234565b5b60006125c584828501612214565b91505092915050565b60006125da83836129d6565b60208301905092915050565b6125ef81612fe0565b82525050565b600061260082612f29565b61260a8185612f57565b935061261583612f19565b8060005b8381101561264657815161262d88826125ce565b975061263883612f4a565b925050600181019050612619565b5085935050505092915050565b61265c81612ff2565b82525050565b600061266d82612f34565b6126778185612f68565b9350612687818560208601613063565b61269081613239565b840191505092915050565b60006126a682612f3f565b6126b08185612f79565b93506126c0818560208601613063565b6126c981613239565b840191505092915050565b60006126e1602883612f79565b91506126ec82613257565b604082019050919050565b6000612704601d83612f79565b915061270f826132a6565b602082019050919050565b6000612727601d83612f79565b9150612732826132cf565b602082019050919050565b600061274a602683612f79565b9150612755826132f8565b604082019050919050565b600061276d602483612f79565b915061277882613347565b604082019050919050565b6000612790602883612f79565b915061279b82613396565b604082019050919050565b60006127b3602883612f79565b91506127be826133e5565b604082019050919050565b60006127d6602883612f79565b91506127e182613434565b604082019050919050565b60006127f9602a83612f79565b915061280482613483565b604082019050919050565b600061281c602e83612f79565b9150612827826134d2565b604082019050919050565b600061283f602583612f79565b915061284a82613521565b604082019050919050565b6000612862602383612f79565b915061286d82613570565b604082019050919050565b6000612885602a83612f79565b9150612890826135bf565b604082019050919050565b60006128a8601a83612f79565b91506128b38261360e565b602082019050919050565b60006128cb602083612f79565b91506128d682613637565b602082019050919050565b60006128ee602d83612f79565b91506128f982613660565b604082019050919050565b6000612911602983612f79565b915061291c826136af565b604082019050919050565b6000612934602983612f79565b915061293f826136fe565b604082019050919050565b6000612957602883612f79565b91506129628261374d565b604082019050919050565b600061297a602183612f79565b91506129858261379c565b604082019050919050565b600061299d603483612f79565b91506129a8826137eb565b604082019050919050565b60006129c0602883612f79565b91506129cb8261383a565b604082019050919050565b6129df8161304a565b82525050565b6129ee8161304a565b82525050565b6000602082019050612a0960008301846125e6565b92915050565b600060a082019050612a2460008301886125e6565b612a3160208301876125e6565b8181036040830152612a4381866125f5565b90508181036060830152612a5781856125f5565b90508181036080830152612a6b8184612662565b90509695505050505050565b600060a082019050612a8c60008301886125e6565b612a9960208301876125e6565b612aa660408301866129e5565b612ab360608301856129e5565b8181036080830152612ac58184612662565b90509695505050505050565b60006020820190508181036000830152612aeb81846125f5565b905092915050565b60006040820190508181036000830152612b0d81856125f5565b90508181036020830152612b2181846125f5565b90509392505050565b6000602082019050612b3f6000830184612653565b92915050565b60006020820190508181036000830152612b5f818461269b565b905092915050565b60006020820190508181036000830152612b80816126d4565b9050919050565b60006020820190508181036000830152612ba0816126f7565b9050919050565b60006020820190508181036000830152612bc08161271a565b9050919050565b60006020820190508181036000830152612be08161273d565b9050919050565b60006020820190508181036000830152612c0081612760565b9050919050565b60006020820190508181036000830152612c2081612783565b9050919050565b60006020820190508181036000830152612c40816127a6565b9050919050565b60006020820190508181036000830152612c60816127c9565b9050919050565b60006020820190508181036000830152612c80816127ec565b9050919050565b60006020820190508181036000830152612ca08161280f565b9050919050565b60006020820190508181036000830152612cc081612832565b9050919050565b60006020820190508181036000830152612ce081612855565b9050919050565b60006020820190508181036000830152612d0081612878565b9050919050565b60006020820190508181036000830152612d208161289b565b9050919050565b60006020820190508181036000830152612d40816128be565b9050919050565b60006020820190508181036000830152612d60816128e1565b9050919050565b60006020820190508181036000830152612d8081612904565b9050919050565b60006020820190508181036000830152612da081612927565b9050919050565b60006020820190508181036000830152612dc08161294a565b9050919050565b60006020820190508181036000830152612de08161296d565b9050919050565b60006020820190508181036000830152612e0081612990565b9050919050565b60006020820190508181036000830152612e20816129b3565b9050919050565b6000602082019050612e3c60008301846129e5565b92915050565b6000604082019050612e5760008301856129e5565b612e6460208301846129e5565b9392505050565b6000612e75612e86565b9050612e8182826130c8565b919050565b6000604051905090565b600067ffffffffffffffff821115612eab57612eaa6131cf565b5b602082029050602081019050919050565b600067ffffffffffffffff821115612ed757612ed66131cf565b5b602082029050602081019050919050565b600067ffffffffffffffff821115612f0357612f026131cf565b5b612f0c82613239565b9050602081019050919050565b6000819050602082019050919050565b600081519050919050565b600081519050919050565b600081519050919050565b6000602082019050919050565b600082825260208201905092915050565b600082825260208201905092915050565b600082825260208201905092915050565b6000612f958261304a565b9150612fa08361304a565b9250827fffffffffffffffffffffffffffffffffffffffffffffffffffffffffffffffff03821115612fd557612fd4613142565b5b828201905092915050565b6000612feb8261302a565b9050919050565b60008115159050919050565b60007fffffffff0000000000000000000000000000000000000000000000000000000082169050919050565b600073ffffffffffffffffffffffffffffffffffffffff82169050919050565b6000819050919050565b82818337600083830152505050565b60005b83811015613081578082015181840152602081019050613066565b83811115613090576000848401525b50505050565b600060028204905060018216806130ae57607f821691505b602082108114156130c2576130c1613171565b5b50919050565b6130d182613239565b810181811067ffffffffffffffff821117156130f0576130ef6131cf565b5b80604052505050565b60006131048261304a565b91507fffffffffffffffffffffffffffffffffffffffffffffffffffffffffffffffff82141561313757613136613142565b5b600182019050919050565b7f4e487b7100000000000000000000000000000000000000000000000000000000600052601160045260246000fd5b7f4e487b7100000000000000000000000000000000000000000000000000000000600052602260045260246000fd5b7f4e487b7100000000000000000000000000000000000000000000000000000000600052603260045260246000fd5b7f4e487b7100000000000000000000000000000000000000000000000000000000600052604160045260246000fd5b600060033d111561321d5760046000803e61321a60005161324a565b90505b90565b600080fd5b600080fd5b600080fd5b600080fd5b600080fd5b6000601f19601f8301169050919050565b60008160e01c9050919050565b7f455243313135353a204552433131353552656365697665722072656a6563746560008201527f6420746f6b656e73000000000000000000000000000000000000000000000000602082015250565b7f6275726e6572207374696c6c2073657420746f20302061646472657373000000600082015250565b7f4d696e746572207374696c6c2073657420746f20302061646472657373000000600082015250565b7f4f776e61626c653a206e6577206f776e657220697320746865207a65726f206160008201527f6464726573730000000000000000000000000000000000000000000000000000602082015250565b7f455243313135353a206275726e20616d6f756e7420657863656564732062616c60008201527f616e636500000000000000000000000000000000000000000000000000000000602082015250565b7f43616e206f6e6c79206d696e74207468726f75676820616e6f7468657220636f60008201527f6e74726163742121000000000000000000000000000000000000000000000000602082015250565b7f43616c6c696e6720636f6e7472616374206e6f7420736574206173207468652060008201527f6d696e7465722121000000000000000000000000000000000000000000000000602082015250565b7f43616c6c696e6720636f6e7472616374206e6f7420736574206173207468652060008201527f6275726e65722121000000000000000000000000000000000000000000000000602082015250565b7f455243313135353a2061646472657373207a65726f206973206e6f742061207660008201527f616c6964206f776e657200000000000000000000000000000000000000000000602082015250565b7f455243313135353a2063616c6c6572206973206e6f7420746f6b656e206f776e60008201527f6572206f7220617070726f766564000000000000000000000000000000000000602082015250565b7f455243313135353a207472616e7366657220746f20746865207a65726f20616460008201527f6472657373000000000000000000000000000000000000000000000000000000602082015250565b7f455243313135353a206275726e2066726f6d20746865207a65726f206164647260008201527f6573730000000000000000000000000000000000000000000000000000000000602082015250565b7f455243313135353a20696e73756666696369656e742062616c616e636520666f60008201527f72207472616e7366657200000000000000000000000000000000000000000000602082015250565b7f4d696e7420546f6b656e204944206e6f7420696e2072616e6765000000000000600082015250565b7f4f776e61626c653a2063616c6c6572206973206e6f7420746865206f776e6572600082015250565b7f4e6577204d696e7465722041646472657373206d75737420626520616e6f746860008201527f657220636f6e7472616374212100000000000000000000000000000000000000602082015250565b7f455243313135353a2073657474696e6720617070726f76616c2073746174757360008201527f20666f722073656c660000000000000000000000000000000000000000000000602082015250565b7f455243313135353a206163636f756e747320616e6420696473206c656e67746860008201527f206d69736d617463680000000000000000000000000000000000000000000000602082015250565b7f455243313135353a2069647320616e6420616d6f756e7473206c656e6774682060008201527f6d69736d61746368000000000000000000000000000000000000000000000000602082015250565b7f455243313135353a206d696e7420746f20746865207a65726f2061646472657360008201527f7300000000000000000000000000000000000000000000000000000000000000602082015250565b7f455243313135353a207472616e7366657220746f206e6f6e2d4552433131353560008201527f526563656976657220696d706c656d656e746572000000000000000000000000602082015250565b7f43616e206f6e6c79206275726e207468726f75676820616e6f7468657220636f60008201527f6e74726163742121000000000000000000000000000000000000000000000000602082015250565b600060443d10156138995761391c565b6138a1612e86565b60043d036004823e80513d602482011167ffffffffffffffff821117156138c957505061391c565b808201805167ffffffffffffffff8111156138e7575050505061391c565b80602083010160043d03850181111561390457505050505061391c565b613913826020018501866130c8565b82955050505050505b90565b61392881612fe0565b811461393357600080fd5b50565b61393f81612ff2565b811461394a57600080fd5b50565b61395681612ffe565b811461396157600080fd5b50565b61396d8161304a565b811461397857600080fd5b5056fea26469706673582212209127c6074b3fd9579abd069bb0301c6939e22a3b471d28fcef13df07028e771264736f6c63430008070033",
  "linkReferences": {},
  "deployedLinkReferences": {}
}