{
  "_format": "hh-sol-artifact-1",
  "contractName": "ForgeLogic",
  "sourceName": "contracts/ForgeLogic.sol",
  "abi": [
    {
      "inputs": [
        {
          "internalType": "address",
          "name": "_tokenContract",
          "type": "address"
        }
      ],
      "stateMutability": "nonpayable",
      "type": "constructor"
    },
    {
      "anonymous": false,
      "inputs": [
        {
          "indexed": true,
          "internalType": "address",
          "name": "previousOwner",
          "type": "address"
        },
        {
          "indexed": true,
          "internalType": "address",
          "name": "newOwner",
          "type": "address"
        }
      ],
      "name": "OwnershipTransferred",
      "type": "event"
    },
    {
      "inputs": [],
      "name": "WITHDRAWAL_WAIT",
      "outputs": [
        {
          "internalType": "uint256",
          "name": "",
          "type": "uint256"
        }
      ],
      "stateMutability": "view",
      "type": "function"
    },
    {
      "inputs": [
        {
          "internalType": "uint256",
          "name": "id",
          "type": "uint256"
        }
      ],
      "name": "burnToken",
      "outputs": [
        {
          "internalType": "bool",
          "name": "",
          "type": "bool"
        }
      ],
      "stateMutability": "nonpayable",
      "type": "function"
    },
    {
      "inputs": [],
      "name": "mint3",
      "outputs": [
        {
          "internalType": "bool",
          "name": "",
          "type": "bool"
        }
      ],
      "stateMutability": "nonpayable",
      "type": "function"
    },
    {
      "inputs": [],
      "name": "mint4",
      "outputs": [
        {
          "internalType": "bool",
          "name": "",
          "type": "bool"
        }
      ],
      "stateMutability": "nonpayable",
      "type": "function"
    },
    {
      "inputs": [],
      "name": "mint5",
      "outputs": [
        {
          "internalType": "bool",
          "name": "",
          "type": "bool"
        }
      ],
      "stateMutability": "nonpayable",
      "type": "function"
    },
    {
      "inputs": [],
      "name": "mint6",
      "outputs": [
        {
          "internalType": "bool",
          "name": "",
          "type": "bool"
        }
      ],
      "stateMutability": "nonpayable",
      "type": "function"
    },
    {
      "inputs": [
        {
          "internalType": "uint256",
          "name": "id",
          "type": "uint256"
        }
      ],
      "name": "mintStarter",
      "outputs": [
        {
          "internalType": "bool",
          "name": "",
          "type": "bool"
        }
      ],
      "stateMutability": "nonpayable",
      "type": "function"
    },
    {
      "inputs": [],
      "name": "owner",
      "outputs": [
        {
          "internalType": "address",
          "name": "",
          "type": "address"
        }
      ],
      "stateMutability": "view",
      "type": "function"
    },
    {
      "inputs": [],
      "name": "renounceOwnership",
      "outputs": [],
      "stateMutability": "nonpayable",
      "type": "function"
    },
    {
      "inputs": [],
      "name": "tokenAmount",
      "outputs": [
        {
          "internalType": "uint256",
          "name": "",
          "type": "uint256"
        }
      ],
      "stateMutability": "view",
      "type": "function"
    },
    {
      "inputs": [
        {
          "internalType": "address",
          "name": "newOwner",
          "type": "address"
        }
      ],
      "name": "transferOwnership",
      "outputs": [],
      "stateMutability": "nonpayable",
      "type": "function"
    },
    {
      "inputs": [
        {
          "internalType": "uint256",
          "name": "from_id",
          "type": "uint256"
        },
        {
          "internalType": "uint256",
          "name": "to_id",
          "type": "uint256"
        }
      ],
      "name": "transferToken",
      "outputs": [
        {
          "internalType": "bool",
          "name": "",
          "type": "bool"
        }
      ],
      "stateMutability": "nonpayable",
      "type": "function"
    }
  ],
  "bytecode": "0x60806040523480156200001157600080fd5b50604051620020cb380380620020cb83398181016040528101906200003791906200081c565b620000576200004b620006d660201b60201c565b620006de60201b60201c565b620000838173ffffffffffffffffffffffffffffffffffffffff16620007a260201b62000f0c1760201c565b620000c5576040517f08c379a0000000000000000000000000000000000000000000000000000000008152600401620000bc90620008f0565b60405180910390fd5b80600160006101000a81548173ffffffffffffffffffffffffffffffffffffffff021916908373ffffffffffffffffffffffffffffffffffffffff16021790555062000116620007c560201b60201c565b73ffffffffffffffffffffffffffffffffffffffff16600160009054906101000a900473ffffffffffffffffffffffffffffffffffffffff1673ffffffffffffffffffffffffffffffffffffffff16638da5cb5b6040518163ffffffff1660e01b815260040160206040518083038186803b1580156200019557600080fd5b505afa158015620001aa573d6000803e3d6000fd5b505050506040513d601f19601f82011682018060405250810190620001d091906200081c565b73ffffffffffffffffffffffffffffffffffffffff161462000229576040517f08c379a00000000000000000000000000000000000000000000000000000000081526004016200022090620008ce565b60405180910390fd5b600160009054906101000a900473ffffffffffffffffffffffffffffffffffffffff1673ffffffffffffffffffffffffffffffffffffffff166358fa63ca6040518163ffffffff1660e01b815260040160206040518083038186803b1580156200029257600080fd5b505afa158015620002a7573d6000803e3d6000fd5b505050506040513d601f19601f82011682018060405250810190620002cd91906200084e565b600281905550600160009054906101000a900473ffffffffffffffffffffffffffffffffffffffff1673ffffffffffffffffffffffffffffffffffffffff1663c2ee3a086040518163ffffffff1660e01b815260040160206040518083038186803b1580156200033c57600080fd5b505afa15801562000351573d6000803e3d6000fd5b505050506040513d601f19601f820116820180604052508101906200037791906200084e565b600381905550600160009054906101000a900473ffffffffffffffffffffffffffffffffffffffff1673ffffffffffffffffffffffffffffffffffffffff166334945b3a6040518163ffffffff1660e01b815260040160206040518083038186803b158015620003e657600080fd5b505afa158015620003fb573d6000803e3d6000fd5b505050506040513d601f19601f820116820180604052508101906200042191906200084e565b600481905550600160009054906101000a900473ffffffffffffffffffffffffffffffffffffffff1673ffffffffffffffffffffffffffffffffffffffff1663979631fb6040518163ffffffff1660e01b815260040160206040518083038186803b1580156200049057600080fd5b505afa158015620004a5573d6000803e3d6000fd5b505050506040513d601f19601f82011682018060405250810190620004cb91906200084e565b600581905550600160009054906101000a900473ffffffffffffffffffffffffffffffffffffffff1673ffffffffffffffffffffffffffffffffffffffff1663b39450366040518163ffffffff1660e01b815260040160206040518083038186803b1580156200053a57600080fd5b505afa1580156200054f573d6000803e3d6000fd5b505050506040513d601f19601f820116820180604052508101906200057591906200084e565b600681905550600160009054906101000a900473ffffffffffffffffffffffffffffffffffffffff1673ffffffffffffffffffffffffffffffffffffffff1663942c4d256040518163ffffffff1660e01b815260040160206040518083038186803b158015620005e457600080fd5b505afa158015620005f9573d6000803e3d6000fd5b505050506040513d601f19601f820116820180604052508101906200061f91906200084e565b600781905550600160009054906101000a900473ffffffffffffffffffffffffffffffffffffffff1673ffffffffffffffffffffffffffffffffffffffff1663d1ba82576040518163ffffffff1660e01b815260040160206040518083038186803b1580156200068e57600080fd5b505afa158015620006a3573d6000803e3d6000fd5b505050506040513d601f19601f82011682018060405250810190620006c991906200084e565b6008819055505062000a5e565b600033905090565b60008060009054906101000a900473ffffffffffffffffffffffffffffffffffffffff169050816000806101000a81548173ffffffffffffffffffffffffffffffffffffffff021916908373ffffffffffffffffffffffffffffffffffffffff1602179055508173ffffffffffffffffffffffffffffffffffffffff168173ffffffffffffffffffffffffffffffffffffffff167f8be0079c531659141344cd1fd0a4f28419497f9722a3daafe3b4186f6b6457e060405160405180910390a35050565b6000808273ffffffffffffffffffffffffffffffffffffffff163b119050919050565b60008060009054906101000a900473ffffffffffffffffffffffffffffffffffffffff16905090565b600081519050620007ff8162000a2a565b92915050565b600081519050620008168162000a44565b92915050565b60006020828403121562000835576200083462000961565b5b60006200084584828501620007ee565b91505092915050565b60006020828403121562000867576200086662000961565b5b6000620008778482850162000805565b91505092915050565b60006200088f604b8362000912565b91506200089c8262000966565b606082019050919050565b6000620008b660358362000912565b9150620008c382620009db565b604082019050919050565b60006020820190508181036000830152620008e98162000880565b9050919050565b600060208201905081810360008301526200090b81620008a7565b9050919050565b600082825260208201905092915050565b6000620009308262000937565b9050919050565b600073ffffffffffffffffffffffffffffffffffffffff82169050919050565b6000819050919050565b600080fd5b7f546865206f776e6572206f6620746865204552433131353520746f6b656e206360008201527f6f6e7472616374206d757374206265207468652073616d65206173207468697360208201527f20636f6e74726163742121000000000000000000000000000000000000000000604082015250565b7f546f6b656e20436f6e747261637420617267756d656e74206d7573742062652060008201527f61206465706c6f79656420636f6e747261637421210000000000000000000000602082015250565b62000a358162000923565b811462000a4157600080fd5b50565b62000a4f8162000957565b811462000a5b57600080fd5b50565b61165d8062000a6e6000396000f3fe608060405234801561001057600080fd5b50600436106100b45760003560e01c80638da5cb5b116100715780638da5cb5b1461017d578063a9decdda1461019b578063ab455eb8146101b9578063c2a25828146101e9578063eec7faa114610207578063f2fde38b14610225576100b4565b80630788ce79146100b95780632cf5ac3a146100d75780632e760746146100f55780634b8fd9e614610125578063715018a6146101435780637b47ec1a1461014d575b600080fd5b6100c1610241565b6040516100ce919061128e565b60405180910390f35b6100df610406565b6040516100ec9190611369565b60405180910390f35b61010f600480360381019061010a91906110fd565b61040b565b60405161011c919061128e565b60405180910390f35b61012d6105da565b60405161013a919061128e565b60405180910390f35b61014b610833565b005b610167600480360381019061016291906110d0565b610847565b604051610174919061128e565b60405180910390f35b6101856108e4565b604051610192919061123c565b60405180910390f35b6101a361090d565b6040516101b0919061128e565b60405180910390f35b6101d360048036038101906101ce91906110d0565b610ad2565b6040516101e0919061128e565b60405180910390f35b6101f1610cbe565b6040516101fe919061128e565b60405180910390f35b61020f610e83565b60405161021c9190611369565b60405180910390f35b61023f600480360381019061023a91906110a3565b610e88565b005b6000600160009054906101000a900473ffffffffffffffffffffffffffffffffffffffff1673ffffffffffffffffffffffffffffffffffffffff1663f5298aca3360025460016040518463ffffffff1660e01b81526004016102a593929190611257565b600060405180830381600087803b1580156102bf57600080fd5b505af11580156102d3573d6000803e3d6000fd5b50505050600160009054906101000a900473ffffffffffffffffffffffffffffffffffffffff1673ffffffffffffffffffffffffffffffffffffffff1663f5298aca3360035460016040518463ffffffff1660e01b815260040161033993929190611257565b600060405180830381600087803b15801561035357600080fd5b505af1158015610367573d6000803e3d6000fd5b50505050600160009054906101000a900473ffffffffffffffffffffffffffffffffffffffff1673ffffffffffffffffffffffffffffffffffffffff1663156e29f63360055460016040518463ffffffff1660e01b81526004016103cd93929190611257565b600060405180830381600087803b1580156103e757600080fd5b505af11580156103fb573d6000803e3d6000fd5b505050506001905090565b603c81565b600081831415610450576040517f08c379a0000000000000000000000000000000000000000000000000000000008152600401610447906112a9565b60405180910390fd5b600254821480610461575060035482145b8061046d575060045482145b6104ac576040517f08c379a00000000000000000000000000000000000000000000000000000000081526004016104a390611309565b60405180910390fd5b600160009054906101000a900473ffffffffffffffffffffffffffffffffffffffff1673ffffffffffffffffffffffffffffffffffffffff1663f5298aca338560016040518463ffffffff1660e01b815260040161050c93929190611257565b600060405180830381600087803b15801561052657600080fd5b505af115801561053a573d6000803e3d6000fd5b50505050600160009054906101000a900473ffffffffffffffffffffffffffffffffffffffff1673ffffffffffffffffffffffffffffffffffffffff1663156e29f6338460016040518463ffffffff1660e01b815260040161059e93929190611257565b600060405180830381600087803b1580156105b857600080fd5b505af11580156105cc573d6000803e3d6000fd5b505050506001905092915050565b6000600160009054906101000a900473ffffffffffffffffffffffffffffffffffffffff1673ffffffffffffffffffffffffffffffffffffffff1663f5298aca3360025460016040518463ffffffff1660e01b815260040161063e93929190611257565b600060405180830381600087803b15801561065857600080fd5b505af115801561066c573d6000803e3d6000fd5b50505050600160009054906101000a900473ffffffffffffffffffffffffffffffffffffffff1673ffffffffffffffffffffffffffffffffffffffff1663f5298aca3360035460016040518463ffffffff1660e01b81526004016106d293929190611257565b600060405180830381600087803b1580156106ec57600080fd5b505af1158015610700573d6000803e3d6000fd5b50505050600160009054906101000a900473ffffffffffffffffffffffffffffffffffffffff1673ffffffffffffffffffffffffffffffffffffffff1663f5298aca3360045460016040518463ffffffff1660e01b815260040161076693929190611257565b600060405180830381600087803b15801561078057600080fd5b505af1158015610794573d6000803e3d6000fd5b50505050600160009054906101000a900473ffffffffffffffffffffffffffffffffffffffff1673ffffffffffffffffffffffffffffffffffffffff1663156e29f63360085460016040518463ffffffff1660e01b81526004016107fa93929190611257565b600060405180830381600087803b15801561081457600080fd5b505af1158015610828573d6000803e3d6000fd5b505050506001905090565b61083b610f2f565b6108456000610fad565b565b6000600160009054906101000a900473ffffffffffffffffffffffffffffffffffffffff1673ffffffffffffffffffffffffffffffffffffffff1663f5298aca338460016040518463ffffffff1660e01b81526004016108a993929190611257565b600060405180830381600087803b1580156108c357600080fd5b505af11580156108d7573d6000803e3d6000fd5b5050505060019050919050565b60008060009054906101000a900473ffffffffffffffffffffffffffffffffffffffff16905090565b6000600160009054906101000a900473ffffffffffffffffffffffffffffffffffffffff1673ffffffffffffffffffffffffffffffffffffffff1663f5298aca3360025460016040518463ffffffff1660e01b815260040161097193929190611257565b600060405180830381600087803b15801561098b57600080fd5b505af115801561099f573d6000803e3d6000fd5b50505050600160009054906101000a900473ffffffffffffffffffffffffffffffffffffffff1673ffffffffffffffffffffffffffffffffffffffff1663f5298aca3360045460016040518463ffffffff1660e01b8152600401610a0593929190611257565b600060405180830381600087803b158015610a1f57600080fd5b505af1158015610a33573d6000803e3d6000fd5b50505050600160009054906101000a900473ffffffffffffffffffffffffffffffffffffffff1673ffffffffffffffffffffffffffffffffffffffff1663156e29f63360075460016040518463ffffffff1660e01b8152600401610a9993929190611257565b600060405180830381600087803b158015610ab357600080fd5b505af1158015610ac7573d6000803e3d6000fd5b505050506001905090565b6000600254821480610ae5575060035482145b80610af1575060045482145b610b30576040517f08c379a0000000000000000000000000000000000000000000000000000000008152600401610b2790611329565b60405180910390fd5b603c6009600084815260200190815260200160002060003373ffffffffffffffffffffffffffffffffffffffff1673ffffffffffffffffffffffffffffffffffffffff1681526020019081526020016000205442610b8e9190611395565b11610bce576040517f08c379a0000000000000000000000000000000000000000000000000000000008152600401610bc590611349565b60405180910390fd5b600160009054906101000a900473ffffffffffffffffffffffffffffffffffffffff1673ffffffffffffffffffffffffffffffffffffffff1663156e29f6338460016040518463ffffffff1660e01b8152600401610c2e93929190611257565b600060405180830381600087803b158015610c4857600080fd5b505af1158015610c5c573d6000803e3d6000fd5b50505050426009600084815260200190815260200160002060003373ffffffffffffffffffffffffffffffffffffffff1673ffffffffffffffffffffffffffffffffffffffff1681526020019081526020016000208190555060019050919050565b6000600160009054906101000a900473ffffffffffffffffffffffffffffffffffffffff1673ffffffffffffffffffffffffffffffffffffffff1663f5298aca3360035460016040518463ffffffff1660e01b8152600401610d2293929190611257565b600060405180830381600087803b158015610d3c57600080fd5b505af1158015610d50573d6000803e3d6000fd5b50505050600160009054906101000a900473ffffffffffffffffffffffffffffffffffffffff1673ffffffffffffffffffffffffffffffffffffffff1663f5298aca3360045460016040518463ffffffff1660e01b8152600401610db693929190611257565b600060405180830381600087803b158015610dd057600080fd5b505af1158015610de4573d6000803e3d6000fd5b50505050600160009054906101000a900473ffffffffffffffffffffffffffffffffffffffff1673ffffffffffffffffffffffffffffffffffffffff1663156e29f63360065460016040518463ffffffff1660e01b8152600401610e4a93929190611257565b600060405180830381600087803b158015610e6457600080fd5b505af1158015610e78573d6000803e3d6000fd5b505050506001905090565b600181565b610e90610f2f565b600073ffffffffffffffffffffffffffffffffffffffff168173ffffffffffffffffffffffffffffffffffffffff161415610f00576040517f08c379a0000000000000000000000000000000000000000000000000000000008152600401610ef7906112c9565b60405180910390fd5b610f0981610fad565b50565b6000808273ffffffffffffffffffffffffffffffffffffffff163b119050919050565b610f37611071565b73ffffffffffffffffffffffffffffffffffffffff16610f556108e4565b73ffffffffffffffffffffffffffffffffffffffff1614610fab576040517f08c379a0000000000000000000000000000000000000000000000000000000008152600401610fa2906112e9565b60405180910390fd5b565b60008060009054906101000a900473ffffffffffffffffffffffffffffffffffffffff169050816000806101000a81548173ffffffffffffffffffffffffffffffffffffffff021916908373ffffffffffffffffffffffffffffffffffffffff1602179055508173ffffffffffffffffffffffffffffffffffffffff168173ffffffffffffffffffffffffffffffffffffffff167f8be0079c531659141344cd1fd0a4f28419497f9722a3daafe3b4186f6b6457e060405160405180910390a35050565b600033905090565b600081359050611088816115f9565b92915050565b60008135905061109d81611610565b92915050565b6000602082840312156110b9576110b8611440565b5b60006110c784828501611079565b91505092915050565b6000602082840312156110e6576110e5611440565b5b60006110f48482850161108e565b91505092915050565b6000806040838503121561111457611113611440565b5b60006111228582860161108e565b92505060206111338582860161108e565b9150509250929050565b611146816113c9565b82525050565b611155816113db565b82525050565b6000611168602a83611384565b915061117382611445565b604082019050919050565b600061118b602683611384565b915061119682611494565b604082019050919050565b60006111ae602083611384565b91506111b9826114e3565b602082019050919050565b60006111d1602383611384565b91506111dc8261150c565b604082019050919050565b60006111f4602883611384565b91506111ff8261155b565b604082019050919050565b6000611217602183611384565b9150611222826115aa565b604082019050919050565b61123681611407565b82525050565b6000602082019050611251600083018461113d565b92915050565b600060608201905061126c600083018661113d565b611279602083018561122d565b611286604083018461122d565b949350505050565b60006020820190506112a3600083018461114c565b92915050565b600060208201905081810360008301526112c28161115b565b9050919050565b600060208201905081810360008301526112e28161117e565b9050919050565b60006020820190508181036000830152611302816111a1565b9050919050565b60006020820190508181036000830152611322816111c4565b9050919050565b60006020820190508181036000830152611342816111e7565b9050919050565b600060208201905081810360008301526113628161120a565b9050919050565b600060208201905061137e600083018461122d565b92915050565b600082825260208201905092915050565b60006113a082611407565b91506113ab83611407565b9250828210156113be576113bd611411565b5b828203905092915050565b60006113d4826113e7565b9050919050565b60008115159050919050565b600073ffffffffffffffffffffffffffffffffffffffff82169050919050565b6000819050919050565b7f4e487b7100000000000000000000000000000000000000000000000000000000600052601160045260246000fd5b600080fd5b7f5768792061726520796f752074726164696e67206120746f6b656e20666f722060008201527f697473656c663f3f212100000000000000000000000000000000000000000000602082015250565b7f4f776e61626c653a206e6577206f776e657220697320746865207a65726f206160008201527f6464726573730000000000000000000000000000000000000000000000000000602082015250565b7f4f776e61626c653a2063616c6c6572206973206e6f7420746865206f776e6572600082015250565b7f43616e206f6e6c7920747261646520666f72207374617274657220746f6b656e60008201527f7321210000000000000000000000000000000000000000000000000000000000602082015250565b7f57726f6e6720696e70757420494420746f2066756e6374696f6e206d696e745360008201527f7461727465722121000000000000000000000000000000000000000000000000602082015250565b7f4e65656420746f207761697420666f7220746f6b656e20636f6f6c646f776e2160008201527f2100000000000000000000000000000000000000000000000000000000000000602082015250565b611602816113c9565b811461160d57600080fd5b50565b61161981611407565b811461162457600080fd5b5056fea2646970667358221220b07ff8bde0ba1466508c524858a00048d5e77ee5c54c0d08502d3fac740ec1ea64736f6c63430008070033",
  "linkReferences": {},
  "deployedLinkReferences": {}
}