{
  "_format": "hh-sol-artifact-1",
  "contractName": "ForgeToken",
  "sourceName": "contracts/ForgeToken.sol",
  "abi": [
    {
      "inputs": [],
      "stateMutability": "nonpayable",
      "type": "constructor"
    },
    {
      "anonymous": false,
      "inputs": [
        {
          "indexed": true,
          "internalType": "address",
          "name": "account",
          "type": "address"
        },
        {
          "indexed": true,
          "internalType": "address",
          "name": "operator",
          "type": "address"
        },
        {
          "indexed": false,
          "internalType": "bool",
          "name": "approved",
          "type": "bool"
        }
      ],
      "name": "ApprovalForAll",
      "type": "event"
    },
    {
      "anonymous": false,
      "inputs": [
        {
          "indexed": true,
          "internalType": "address",
          "name": "previousOwner",
          "type": "address"
        },
        {
          "indexed": true,
          "internalType": "address",
          "name": "newOwner",
          "type": "address"
        }
      ],
      "name": "OwnershipTransferred",
      "type": "event"
    },
    {
      "anonymous": false,
      "inputs": [
        {
          "indexed": true,
          "internalType": "address",
          "name": "operator",
          "type": "address"
        },
        {
          "indexed": true,
          "internalType": "address",
          "name": "from",
          "type": "address"
        },
        {
          "indexed": true,
          "internalType": "address",
          "name": "to",
          "type": "address"
        },
        {
          "indexed": false,
          "internalType": "uint256[]",
          "name": "ids",
          "type": "uint256[]"
        },
        {
          "indexed": false,
          "internalType": "uint256[]",
          "name": "values",
          "type": "uint256[]"
        }
      ],
      "name": "TransferBatch",
      "type": "event"
    },
    {
      "anonymous": false,
      "inputs": [
        {
          "indexed": true,
          "internalType": "address",
          "name": "operator",
          "type": "address"
        },
        {
          "indexed": true,
          "internalType": "address",
          "name": "from",
          "type": "address"
        },
        {
          "indexed": true,
          "internalType": "address",
          "name": "to",
          "type": "address"
        },
        {
          "indexed": false,
          "internalType": "uint256",
          "name": "id",
          "type": "uint256"
        },
        {
          "indexed": false,
          "internalType": "uint256",
          "name": "value",
          "type": "uint256"
        }
      ],
      "name": "TransferSingle",
      "type": "event"
    },
    {
      "anonymous": false,
      "inputs": [
        {
          "indexed": false,
          "internalType": "string",
          "name": "value",
          "type": "string"
        },
        {
          "indexed": true,
          "internalType": "uint256",
          "name": "id",
          "type": "uint256"
        }
      ],
      "name": "URI",
      "type": "event"
    },
    {
      "inputs": [],
      "name": "FIVE",
      "outputs": [
        {
          "internalType": "uint256",
          "name": "",
          "type": "uint256"
        }
      ],
      "stateMutability": "view",
      "type": "function"
    },
    {
      "inputs": [],
      "name": "FOUR",
      "outputs": [
        {
          "internalType": "uint256",
          "name": "",
          "type": "uint256"
        }
      ],
      "stateMutability": "view",
      "type": "function"
    },
    {
      "inputs": [],
      "name": "ONE",
      "outputs": [
        {
          "internalType": "uint256",
          "name": "",
          "type": "uint256"
        }
      ],
      "stateMutability": "view",
      "type": "function"
    },
    {
      "inputs": [],
      "name": "SIX",
      "outputs": [
        {
          "internalType": "uint256",
          "name": "",
          "type": "uint256"
        }
      ],
      "stateMutability": "view",
      "type": "function"
    },
    {
      "inputs": [],
      "name": "THREE",
      "outputs": [
        {
          "internalType": "uint256",
          "name": "",
          "type": "uint256"
        }
      ],
      "stateMutability": "view",
      "type": "function"
    },
    {
      "inputs": [],
      "name": "TWO",
      "outputs": [
        {
          "internalType": "uint256",
          "name": "",
          "type": "uint256"
        }
      ],
      "stateMutability": "view",
      "type": "function"
    },
    {
      "inputs": [],
      "name": "ZERO",
      "outputs": [
        {
          "internalType": "uint256",
          "name": "",
          "type": "uint256"
        }
      ],
      "stateMutability": "view",
      "type": "function"
    },
    {
      "inputs": [],
      "name": "_minter",
      "outputs": [
        {
          "internalType": "address",
          "name": "",
          "type": "address"
        }
      ],
      "stateMutability": "view",
      "type": "function"
    },
    {
      "inputs": [
        {
          "internalType": "address",
          "name": "account",
          "type": "address"
        },
        {
          "internalType": "uint256",
          "name": "id",
          "type": "uint256"
        }
      ],
      "name": "balanceOf",
      "outputs": [
        {
          "internalType": "uint256",
          "name": "",
          "type": "uint256"
        }
      ],
      "stateMutability": "view",
      "type": "function"
    },
    {
      "inputs": [
        {
          "internalType": "address[]",
          "name": "accounts",
          "type": "address[]"
        },
        {
          "internalType": "uint256[]",
          "name": "ids",
          "type": "uint256[]"
        }
      ],
      "name": "balanceOfBatch",
      "outputs": [
        {
          "internalType": "uint256[]",
          "name": "",
          "type": "uint256[]"
        }
      ],
      "stateMutability": "view",
      "type": "function"
    },
    {
      "inputs": [
        {
          "internalType": "address",
          "name": "from",
          "type": "address"
        },
        {
          "internalType": "uint256",
          "name": "id",
          "type": "uint256"
        },
        {
          "internalType": "uint256",
          "name": "amount",
          "type": "uint256"
        }
      ],
      "name": "burn",
      "outputs": [],
      "stateMutability": "nonpayable",
      "type": "function"
    },
    {
      "inputs": [
        {
          "internalType": "address",
          "name": "newMinter",
          "type": "address"
        }
      ],
      "name": "changeMinter",
      "outputs": [],
      "stateMutability": "nonpayable",
      "type": "function"
    },
    {
      "inputs": [
        {
          "internalType": "address",
          "name": "account",
          "type": "address"
        },
        {
          "internalType": "address",
          "name": "operator",
          "type": "address"
        }
      ],
      "name": "isApprovedForAll",
      "outputs": [
        {
          "internalType": "bool",
          "name": "",
          "type": "bool"
        }
      ],
      "stateMutability": "view",
      "type": "function"
    },
    {
      "inputs": [
        {
          "internalType": "address",
          "name": "to",
          "type": "address"
        },
        {
          "internalType": "uint256",
          "name": "id",
          "type": "uint256"
        },
        {
          "internalType": "uint256",
          "name": "amount",
          "type": "uint256"
        }
      ],
      "name": "mint",
      "outputs": [],
      "stateMutability": "nonpayable",
      "type": "function"
    },
    {
      "inputs": [],
      "name": "owner",
      "outputs": [
        {
          "internalType": "address",
          "name": "",
          "type": "address"
        }
      ],
      "stateMutability": "view",
      "type": "function"
    },
    {
      "inputs": [],
      "name": "renounceOwnership",
      "outputs": [],
      "stateMutability": "nonpayable",
      "type": "function"
    },
    {
      "inputs": [
        {
          "internalType": "address",
          "name": "from",
          "type": "address"
        },
        {
          "internalType": "address",
          "name": "to",
          "type": "address"
        },
        {
          "internalType": "uint256[]",
          "name": "ids",
          "type": "uint256[]"
        },
        {
          "internalType": "uint256[]",
          "name": "amounts",
          "type": "uint256[]"
        },
        {
          "internalType": "bytes",
          "name": "data",
          "type": "bytes"
        }
      ],
      "name": "safeBatchTransferFrom",
      "outputs": [],
      "stateMutability": "nonpayable",
      "type": "function"
    },
    {
      "inputs": [
        {
          "internalType": "address",
          "name": "from",
          "type": "address"
        },
        {
          "internalType": "address",
          "name": "to",
          "type": "address"
        },
        {
          "internalType": "uint256",
          "name": "id",
          "type": "uint256"
        },
        {
          "internalType": "uint256",
          "name": "amount",
          "type": "uint256"
        },
        {
          "internalType": "bytes",
          "name": "data",
          "type": "bytes"
        }
      ],
      "name": "safeTransferFrom",
      "outputs": [],
      "stateMutability": "nonpayable",
      "type": "function"
    },
    {
      "inputs": [
        {
          "internalType": "address",
          "name": "operator",
          "type": "address"
        },
        {
          "internalType": "bool",
          "name": "approved",
          "type": "bool"
        }
      ],
      "name": "setApprovalForAll",
      "outputs": [],
      "stateMutability": "nonpayable",
      "type": "function"
    },
    {
      "inputs": [
        {
          "internalType": "bytes4",
          "name": "interfaceId",
          "type": "bytes4"
        }
      ],
      "name": "supportsInterface",
      "outputs": [
        {
          "internalType": "bool",
          "name": "",
          "type": "bool"
        }
      ],
      "stateMutability": "view",
      "type": "function"
    },
    {
      "inputs": [
        {
          "internalType": "address",
          "name": "newOwner",
          "type": "address"
        }
      ],
      "name": "transferOwnership",
      "outputs": [],
      "stateMutability": "nonpayable",
      "type": "function"
    },
    {
      "inputs": [
        {
          "internalType": "uint256",
          "name": "",
          "type": "uint256"
        }
      ],
      "name": "uri",
      "outputs": [
        {
          "internalType": "string",
          "name": "",
          "type": "string"
        }
      ],
      "stateMutability": "view",
      "type": "function"
    }
  ],
  "bytecode": "0x60806040523480156200001157600080fd5b506040518060200160405280600081525062000033816200009c60201b60201c565b506200005462000048620000b860201b60201c565b620000c060201b60201c565b6000600460006101000a81548173ffffffffffffffffffffffffffffffffffffffff021916908373ffffffffffffffffffffffffffffffffffffffff1602179055506200029b565b8060029080519060200190620000b492919062000186565b5050565b600033905090565b6000600360009054906101000a900473ffffffffffffffffffffffffffffffffffffffff16905081600360006101000a81548173ffffffffffffffffffffffffffffffffffffffff021916908373ffffffffffffffffffffffffffffffffffffffff1602179055508173ffffffffffffffffffffffffffffffffffffffff168173ffffffffffffffffffffffffffffffffffffffff167f8be0079c531659141344cd1fd0a4f28419497f9722a3daafe3b4186f6b6457e060405160405180910390a35050565b828054620001949062000236565b90600052602060002090601f016020900481019282620001b8576000855562000204565b82601f10620001d357805160ff191683800117855562000204565b8280016001018555821562000204579182015b8281111562000203578251825591602001919060010190620001e6565b5b50905062000213919062000217565b5090565b5b808211156200023257600081600090555060010162000218565b5090565b600060028204905060018216806200024f57607f821691505b602082108114156200026657620002656200026c565b5b50919050565b7f4e487b7100000000000000000000000000000000000000000000000000000000600052602260045260246000fd5b6138c080620002ab6000396000f3fe608060405234801561001057600080fd5b50600436106101415760003560e01c80638da5cb5b116100b8578063c2ee3a081161007c578063c2ee3a0814610352578063d1ba825714610370578063e985e9c51461038e578063f242432a146103be578063f2fde38b146103da578063f5298aca146103f657610141565b80638da5cb5b146102be578063942c4d25146102dc578063979631fb146102fa578063a22cb46514610318578063b39450361461033457610141565b80632eb2c2d61161010a5780632eb2c2d61461020e57806334945b3a1461022a5780634e1273f414610248578063578ec33f1461027857806358fa63ca14610296578063715018a6146102b457610141565b8062fdd58e1461014657806301ffc9a7146101765780630e89341c146101a6578063156e29f6146101d65780632c4d4d18146101f2575b600080fd5b610160600480360381019061015b91906123b7565b610412565b60405161016d9190612d5f565b60405180910390f35b610190600480360381019061018b91906124c2565b6104db565b60405161019d9190612a82565b60405180910390f35b6101c060048036038101906101bb919061251c565b6105bd565b6040516101cd9190612a9d565b60405180910390f35b6101f060048036038101906101eb91906123f7565b610651565b005b61020c600480360381019061020791906121a4565b6107f1565b005b61022860048036038101906102239190612211565b61089b565b005b61023261093c565b60405161023f9190612d5f565b60405180910390f35b610262600480360381019061025d919061244a565b610941565b60405161026f9190612a29565b60405180910390f35b610280610a5a565b60405161028d919061294c565b60405180910390f35b61029e610a80565b6040516102ab9190612d5f565b60405180910390f35b6102bc610a85565b005b6102c6610a99565b6040516102d3919061294c565b60405180910390f35b6102e4610ac3565b6040516102f19190612d5f565b60405180910390f35b610302610ac8565b60405161030f9190612d5f565b60405180910390f35b610332600480360381019061032d9190612377565b610acd565b005b61033c610ae3565b6040516103499190612d5f565b60405180910390f35b61035a610ae8565b6040516103679190612d5f565b60405180910390f35b610378610aed565b6040516103859190612d5f565b60405180910390f35b6103a860048036038101906103a391906121d1565b610af2565b6040516103b59190612a82565b60405180910390f35b6103d860048036038101906103d391906122e0565b610b86565b005b6103f460048036038101906103ef91906121a4565b610c27565b005b610410600480360381019061040b91906123f7565b610cab565b005b60008073ffffffffffffffffffffffffffffffffffffffff168373ffffffffffffffffffffffffffffffffffffffff161415610483576040517f08c379a000000000000000000000000000000000000000000000000000000000815260040161047a90612bbf565b60405180910390fd5b60008083815260200190815260200160002060008473ffffffffffffffffffffffffffffffffffffffff1673ffffffffffffffffffffffffffffffffffffffff16815260200190815260200160002054905092915050565b60007fd9b67a26000000000000000000000000000000000000000000000000000000007bffffffffffffffffffffffffffffffffffffffffffffffffffffffff1916827bffffffffffffffffffffffffffffffffffffffffffffffffffffffff191614806105a657507f0e89341c000000000000000000000000000000000000000000000000000000007bffffffffffffffffffffffffffffffffffffffffffffffffffffffff1916827bffffffffffffffffffffffffffffffffffffffffffffffffffffffff1916145b806105b657506105b582610e3b565b5b9050919050565b6060600280546105cc90612fce565b80601f01602080910402602001604051908101604052809291908181526020018280546105f890612fce565b80156106455780601f1061061a57610100808354040283529160200191610645565b820191906000526020600020905b81548152906001019060200180831161062857829003601f168201915b50505050509050919050565b6106703373ffffffffffffffffffffffffffffffffffffffff16610ea5565b6106af576040517f08c379a00000000000000000000000000000000000000000000000000000000081526004016106a690612b5f565b60405180910390fd5b600460009054906101000a900473ffffffffffffffffffffffffffffffffffffffff1673ffffffffffffffffffffffffffffffffffffffff163373ffffffffffffffffffffffffffffffffffffffff161461073f576040517f08c379a000000000000000000000000000000000000000000000000000000000815260040161073690612b7f565b60405180910390fd5b600073ffffffffffffffffffffffffffffffffffffffff16600460009054906101000a900473ffffffffffffffffffffffffffffffffffffffff1673ffffffffffffffffffffffffffffffffffffffff1614156107d1576040517f08c379a00000000000000000000000000000000000000000000000000000000081526004016107c890612aff565b60405180910390fd5b6107ec83838360405180602001604052806000815250610ec8565b505050565b6107f9611079565b6108188173ffffffffffffffffffffffffffffffffffffffff16610ea5565b610857576040517f08c379a000000000000000000000000000000000000000000000000000000000815260040161084e90612c7f565b60405180910390fd5b80600460006101000a81548173ffffffffffffffffffffffffffffffffffffffff021916908373ffffffffffffffffffffffffffffffffffffffff16021790555050565b6108a36110f7565b73ffffffffffffffffffffffffffffffffffffffff168573ffffffffffffffffffffffffffffffffffffffff1614806108e957506108e8856108e36110f7565b610af2565b5b610928576040517f08c379a000000000000000000000000000000000000000000000000000000000815260040161091f90612bdf565b60405180910390fd5b61093585858585856110ff565b5050505050565b600281565b60608151835114610987576040517f08c379a000000000000000000000000000000000000000000000000000000000815260040161097e90612cbf565b60405180910390fd5b6000835167ffffffffffffffff8111156109a4576109a3613107565b5b6040519080825280602002602001820160405280156109d25781602001602082028036833780820191505090505b50905060005b8451811015610a4f57610a1f8582815181106109f7576109f66130d8565b5b6020026020010151858381518110610a1257610a116130d8565b5b6020026020010151610412565b828281518110610a3257610a316130d8565b5b60200260200101818152505080610a4890613031565b90506109d8565b508091505092915050565b600460009054906101000a900473ffffffffffffffffffffffffffffffffffffffff1681565b600081565b610a8d611079565b610a976000611421565b565b6000600360009054906101000a900473ffffffffffffffffffffffffffffffffffffffff16905090565b600581565b600381565b610adf610ad86110f7565b83836114e7565b5050565b600481565b600181565b600681565b6000600160008473ffffffffffffffffffffffffffffffffffffffff1673ffffffffffffffffffffffffffffffffffffffff16815260200190815260200160002060008373ffffffffffffffffffffffffffffffffffffffff1673ffffffffffffffffffffffffffffffffffffffff16815260200190815260200160002060009054906101000a900460ff16905092915050565b610b8e6110f7565b73ffffffffffffffffffffffffffffffffffffffff168573ffffffffffffffffffffffffffffffffffffffff161480610bd45750610bd385610bce6110f7565b610af2565b5b610c13576040517f08c379a0000000000000000000000000000000000000000000000000000000008152600401610c0a90612bdf565b60405180910390fd5b610c208585858585611654565b5050505050565b610c2f611079565b600073ffffffffffffffffffffffffffffffffffffffff168173ffffffffffffffffffffffffffffffffffffffff161415610c9f576040517f08c379a0000000000000000000000000000000000000000000000000000000008152600401610c9690612b1f565b60405180910390fd5b610ca881611421565b50565b610cca3373ffffffffffffffffffffffffffffffffffffffff16610ea5565b610d09576040517f08c379a0000000000000000000000000000000000000000000000000000000008152600401610d0090612d3f565b60405180910390fd5b600460009054906101000a900473ffffffffffffffffffffffffffffffffffffffff1673ffffffffffffffffffffffffffffffffffffffff163373ffffffffffffffffffffffffffffffffffffffff1614610d99576040517f08c379a0000000000000000000000000000000000000000000000000000000008152600401610d9090612b9f565b60405180910390fd5b600073ffffffffffffffffffffffffffffffffffffffff16600460009054906101000a900473ffffffffffffffffffffffffffffffffffffffff1673ffffffffffffffffffffffffffffffffffffffff161415610e2b576040517f08c379a0000000000000000000000000000000000000000000000000000000008152600401610e2290612adf565b60405180910390fd5b610e368383836118f0565b505050565b60007f01ffc9a7000000000000000000000000000000000000000000000000000000007bffffffffffffffffffffffffffffffffffffffffffffffffffffffff1916827bffffffffffffffffffffffffffffffffffffffffffffffffffffffff1916149050919050565b6000808273ffffffffffffffffffffffffffffffffffffffff163b119050919050565b600073ffffffffffffffffffffffffffffffffffffffff168473ffffffffffffffffffffffffffffffffffffffff161415610f38576040517f08c379a0000000000000000000000000000000000000000000000000000000008152600401610f2f90612cff565b60405180910390fd5b6000610f426110f7565b90506000610f4f85611b37565b90506000610f5c85611b37565b9050610f6d83600089858589611bb1565b8460008088815260200190815260200160002060008973ffffffffffffffffffffffffffffffffffffffff1673ffffffffffffffffffffffffffffffffffffffff1681526020019081526020016000206000828254610fcc9190612ec2565b925050819055508673ffffffffffffffffffffffffffffffffffffffff16600073ffffffffffffffffffffffffffffffffffffffff168473ffffffffffffffffffffffffffffffffffffffff167fc3d58168c5ae7397731d063d5bbf3d657854427343f4c083240f7aacaa2d0f62898960405161104a929190612d7a565b60405180910390a461106183600089858589611bb9565b61107083600089898989611bc1565b50505050505050565b6110816110f7565b73ffffffffffffffffffffffffffffffffffffffff1661109f610a99565b73ffffffffffffffffffffffffffffffffffffffff16146110f5576040517f08c379a00000000000000000000000000000000000000000000000000000000081526004016110ec90612c5f565b60405180910390fd5b565b600033905090565b8151835114611143576040517f08c379a000000000000000000000000000000000000000000000000000000000815260040161113a90612cdf565b60405180910390fd5b600073ffffffffffffffffffffffffffffffffffffffff168473ffffffffffffffffffffffffffffffffffffffff1614156111b3576040517f08c379a00000000000000000000000000000000000000000000000000000000081526004016111aa90612bff565b60405180910390fd5b60006111bd6110f7565b90506111cd818787878787611bb1565b60005b845181101561137e5760008582815181106111ee576111ed6130d8565b5b60200260200101519050600085838151811061120d5761120c6130d8565b5b60200260200101519050600080600084815260200190815260200160002060008b73ffffffffffffffffffffffffffffffffffffffff1673ffffffffffffffffffffffffffffffffffffffff168152602001908152602001600020549050818110156112ae576040517f08c379a00000000000000000000000000000000000000000000000000000000081526004016112a590612c3f565b60405180910390fd5b81810360008085815260200190815260200160002060008c73ffffffffffffffffffffffffffffffffffffffff1673ffffffffffffffffffffffffffffffffffffffff168152602001908152602001600020819055508160008085815260200190815260200160002060008b73ffffffffffffffffffffffffffffffffffffffff1673ffffffffffffffffffffffffffffffffffffffff16815260200190815260200160002060008282546113639190612ec2565b925050819055505050508061137790613031565b90506111d0565b508473ffffffffffffffffffffffffffffffffffffffff168673ffffffffffffffffffffffffffffffffffffffff168273ffffffffffffffffffffffffffffffffffffffff167f4a39dc06d4c0dbc64b70af90fd698a233a518aa5d07e595d983b8c0526c8f7fb87876040516113f5929190612a4b565b60405180910390a461140b818787878787611bb9565b611419818787878787611da8565b505050505050565b6000600360009054906101000a900473ffffffffffffffffffffffffffffffffffffffff16905081600360006101000a81548173ffffffffffffffffffffffffffffffffffffffff021916908373ffffffffffffffffffffffffffffffffffffffff1602179055508173ffffffffffffffffffffffffffffffffffffffff168173ffffffffffffffffffffffffffffffffffffffff167f8be0079c531659141344cd1fd0a4f28419497f9722a3daafe3b4186f6b6457e060405160405180910390a35050565b8173ffffffffffffffffffffffffffffffffffffffff168373ffffffffffffffffffffffffffffffffffffffff161415611556576040517f08c379a000000000000000000000000000000000000000000000000000000000815260040161154d90612c9f565b60405180910390fd5b80600160008573ffffffffffffffffffffffffffffffffffffffff1673ffffffffffffffffffffffffffffffffffffffff16815260200190815260200160002060008473ffffffffffffffffffffffffffffffffffffffff1673ffffffffffffffffffffffffffffffffffffffff16815260200190815260200160002060006101000a81548160ff0219169083151502179055508173ffffffffffffffffffffffffffffffffffffffff168373ffffffffffffffffffffffffffffffffffffffff167f17307eab39ab6107e8899845ad3d59bd9653f200f220920489ca2b5937696c31836040516116479190612a82565b60405180910390a3505050565b600073ffffffffffffffffffffffffffffffffffffffff168473ffffffffffffffffffffffffffffffffffffffff1614156116c4576040517f08c379a00000000000000000000000000000000000000000000000000000000081526004016116bb90612bff565b60405180910390fd5b60006116ce6110f7565b905060006116db85611b37565b905060006116e885611b37565b90506116f8838989858589611bb1565b600080600088815260200190815260200160002060008a73ffffffffffffffffffffffffffffffffffffffff1673ffffffffffffffffffffffffffffffffffffffff1681526020019081526020016000205490508581101561178f576040517f08c379a000000000000000000000000000000000000000000000000000000000815260040161178690612c3f565b60405180910390fd5b85810360008089815260200190815260200160002060008b73ffffffffffffffffffffffffffffffffffffffff1673ffffffffffffffffffffffffffffffffffffffff168152602001908152602001600020819055508560008089815260200190815260200160002060008a73ffffffffffffffffffffffffffffffffffffffff1673ffffffffffffffffffffffffffffffffffffffff16815260200190815260200160002060008282546118449190612ec2565b925050819055508773ffffffffffffffffffffffffffffffffffffffff168973ffffffffffffffffffffffffffffffffffffffff168573ffffffffffffffffffffffffffffffffffffffff167fc3d58168c5ae7397731d063d5bbf3d657854427343f4c083240f7aacaa2d0f628a8a6040516118c1929190612d7a565b60405180910390a46118d7848a8a86868a611bb9565b6118e5848a8a8a8a8a611bc1565b505050505050505050565b600073ffffffffffffffffffffffffffffffffffffffff168373ffffffffffffffffffffffffffffffffffffffff161415611960576040517f08c379a000000000000000000000000000000000000000000000000000000000815260040161195790612c1f565b60405180910390fd5b600061196a6110f7565b9050600061197784611b37565b9050600061198484611b37565b90506119a483876000858560405180602001604052806000815250611bb1565b600080600087815260200190815260200160002060008873ffffffffffffffffffffffffffffffffffffffff1673ffffffffffffffffffffffffffffffffffffffff16815260200190815260200160002054905084811015611a3b576040517f08c379a0000000000000000000000000000000000000000000000000000000008152600401611a3290612b3f565b60405180910390fd5b84810360008088815260200190815260200160002060008973ffffffffffffffffffffffffffffffffffffffff1673ffffffffffffffffffffffffffffffffffffffff16815260200190815260200160002081905550600073ffffffffffffffffffffffffffffffffffffffff168773ffffffffffffffffffffffffffffffffffffffff168573ffffffffffffffffffffffffffffffffffffffff167fc3d58168c5ae7397731d063d5bbf3d657854427343f4c083240f7aacaa2d0f628989604051611b08929190612d7a565b60405180910390a4611b2e84886000868660405180602001604052806000815250611bb9565b50505050505050565b60606000600167ffffffffffffffff811115611b5657611b55613107565b5b604051908082528060200260200182016040528015611b845781602001602082028036833780820191505090505b5090508281600081518110611b9c57611b9b6130d8565b5b60200260200101818152505080915050919050565b505050505050565b505050505050565b611be08473ffffffffffffffffffffffffffffffffffffffff16610ea5565b15611da0578373ffffffffffffffffffffffffffffffffffffffff1663f23a6e6187878686866040518663ffffffff1660e01b8152600401611c269594939291906129cf565b602060405180830381600087803b158015611c4057600080fd5b505af1925050508015611c7157506040513d601f19601f82011682018060405250810190611c6e91906124ef565b60015b611d1757611c7d613136565b806308c379a01415611cda5750611c92613798565b80611c9d5750611cdc565b806040517f08c379a0000000000000000000000000000000000000000000000000000000008152600401611cd19190612a9d565b60405180910390fd5b505b6040517f08c379a0000000000000000000000000000000000000000000000000000000008152600401611d0e90612d1f565b60405180910390fd5b63f23a6e6160e01b7bffffffffffffffffffffffffffffffffffffffffffffffffffffffff1916817bffffffffffffffffffffffffffffffffffffffffffffffffffffffff191614611d9e576040517f08c379a0000000000000000000000000000000000000000000000000000000008152600401611d9590612abf565b60405180910390fd5b505b505050505050565b611dc78473ffffffffffffffffffffffffffffffffffffffff16610ea5565b15611f87578373ffffffffffffffffffffffffffffffffffffffff1663bc197c8187878686866040518663ffffffff1660e01b8152600401611e0d959493929190612967565b602060405180830381600087803b158015611e2757600080fd5b505af1925050508015611e5857506040513d601f19601f82011682018060405250810190611e5591906124ef565b60015b611efe57611e64613136565b806308c379a01415611ec15750611e79613798565b80611e845750611ec3565b806040517f08c379a0000000000000000000000000000000000000000000000000000000008152600401611eb89190612a9d565b60405180910390fd5b505b6040517f08c379a0000000000000000000000000000000000000000000000000000000008152600401611ef590612d1f565b60405180910390fd5b63bc197c8160e01b7bffffffffffffffffffffffffffffffffffffffffffffffffffffffff1916817bffffffffffffffffffffffffffffffffffffffffffffffffffffffff191614611f85576040517f08c379a0000000000000000000000000000000000000000000000000000000008152600401611f7c90612abf565b60405180910390fd5b505b505050505050565b6000611fa2611f9d84612dc8565b612da3565b90508083825260208201905082856020860282011115611fc557611fc461315d565b5b60005b85811015611ff55781611fdb88826120b1565b845260208401935060208301925050600181019050611fc8565b5050509392505050565b600061201261200d84612df4565b612da3565b905080838252602082019050828560208602820111156120355761203461315d565b5b60005b85811015612065578161204b888261218f565b845260208401935060208301925050600181019050612038565b5050509392505050565b600061208261207d84612e20565b612da3565b90508281526020810184848401111561209e5761209d613162565b5b6120a9848285612f8c565b509392505050565b6000813590506120c08161382e565b92915050565b600082601f8301126120db576120da613158565b5b81356120eb848260208601611f8f565b91505092915050565b600082601f83011261210957612108613158565b5b8135612119848260208601611fff565b91505092915050565b60008135905061213181613845565b92915050565b6000813590506121468161385c565b92915050565b60008151905061215b8161385c565b92915050565b600082601f83011261217657612175613158565b5b813561218684826020860161206f565b91505092915050565b60008135905061219e81613873565b92915050565b6000602082840312156121ba576121b961316c565b5b60006121c8848285016120b1565b91505092915050565b600080604083850312156121e8576121e761316c565b5b60006121f6858286016120b1565b9250506020612207858286016120b1565b9150509250929050565b600080600080600060a0868803121561222d5761222c61316c565b5b600061223b888289016120b1565b955050602061224c888289016120b1565b945050604086013567ffffffffffffffff81111561226d5761226c613167565b5b612279888289016120f4565b935050606086013567ffffffffffffffff81111561229a57612299613167565b5b6122a6888289016120f4565b925050608086013567ffffffffffffffff8111156122c7576122c6613167565b5b6122d388828901612161565b9150509295509295909350565b600080600080600060a086880312156122fc576122fb61316c565b5b600061230a888289016120b1565b955050602061231b888289016120b1565b945050604061232c8882890161218f565b935050606061233d8882890161218f565b925050608086013567ffffffffffffffff81111561235e5761235d613167565b5b61236a88828901612161565b9150509295509295909350565b6000806040838503121561238e5761238d61316c565b5b600061239c858286016120b1565b92505060206123ad85828601612122565b9150509250929050565b600080604083850312156123ce576123cd61316c565b5b60006123dc858286016120b1565b92505060206123ed8582860161218f565b9150509250929050565b6000806000606084860312156124105761240f61316c565b5b600061241e868287016120b1565b935050602061242f8682870161218f565b92505060406124408682870161218f565b9150509250925092565b600080604083850312156124615761246061316c565b5b600083013567ffffffffffffffff81111561247f5761247e613167565b5b61248b858286016120c6565b925050602083013567ffffffffffffffff8111156124ac576124ab613167565b5b6124b8858286016120f4565b9150509250929050565b6000602082840312156124d8576124d761316c565b5b60006124e684828501612137565b91505092915050565b6000602082840312156125055761250461316c565b5b60006125138482850161214c565b91505092915050565b6000602082840312156125325761253161316c565b5b60006125408482850161218f565b91505092915050565b6000612555838361292e565b60208301905092915050565b61256a81612f18565b82525050565b600061257b82612e61565b6125858185612e8f565b935061259083612e51565b8060005b838110156125c15781516125a88882612549565b97506125b383612e82565b925050600181019050612594565b5085935050505092915050565b6125d781612f2a565b82525050565b60006125e882612e6c565b6125f28185612ea0565b9350612602818560208601612f9b565b61260b81613171565b840191505092915050565b600061262182612e77565b61262b8185612eb1565b935061263b818560208601612f9b565b61264481613171565b840191505092915050565b600061265c602883612eb1565b91506126678261318f565b604082019050919050565b600061267f601d83612eb1565b915061268a826131de565b602082019050919050565b60006126a2601d83612eb1565b91506126ad82613207565b602082019050919050565b60006126c5602683612eb1565b91506126d082613230565b604082019050919050565b60006126e8602483612eb1565b91506126f38261327f565b604082019050919050565b600061270b602883612eb1565b9150612716826132ce565b604082019050919050565b600061272e602883612eb1565b91506127398261331d565b604082019050919050565b6000612751602883612eb1565b915061275c8261336c565b604082019050919050565b6000612774602a83612eb1565b915061277f826133bb565b604082019050919050565b6000612797602e83612eb1565b91506127a28261340a565b604082019050919050565b60006127ba602583612eb1565b91506127c582613459565b604082019050919050565b60006127dd602383612eb1565b91506127e8826134a8565b604082019050919050565b6000612800602a83612eb1565b915061280b826134f7565b604082019050919050565b6000612823602083612eb1565b915061282e82613546565b602082019050919050565b6000612846602d83612eb1565b91506128518261356f565b604082019050919050565b6000612869602983612eb1565b9150612874826135be565b604082019050919050565b600061288c602983612eb1565b91506128978261360d565b604082019050919050565b60006128af602883612eb1565b91506128ba8261365c565b604082019050919050565b60006128d2602183612eb1565b91506128dd826136ab565b604082019050919050565b60006128f5603483612eb1565b9150612900826136fa565b604082019050919050565b6000612918602883612eb1565b915061292382613749565b604082019050919050565b61293781612f82565b82525050565b61294681612f82565b82525050565b60006020820190506129616000830184612561565b92915050565b600060a08201905061297c6000830188612561565b6129896020830187612561565b818103604083015261299b8186612570565b905081810360608301526129af8185612570565b905081810360808301526129c381846125dd565b90509695505050505050565b600060a0820190506129e46000830188612561565b6129f16020830187612561565b6129fe604083018661293d565b612a0b606083018561293d565b8181036080830152612a1d81846125dd565b90509695505050505050565b60006020820190508181036000830152612a438184612570565b905092915050565b60006040820190508181036000830152612a658185612570565b90508181036020830152612a798184612570565b90509392505050565b6000602082019050612a9760008301846125ce565b92915050565b60006020820190508181036000830152612ab78184612616565b905092915050565b60006020820190508181036000830152612ad88161264f565b9050919050565b60006020820190508181036000830152612af881612672565b9050919050565b60006020820190508181036000830152612b1881612695565b9050919050565b60006020820190508181036000830152612b38816126b8565b9050919050565b60006020820190508181036000830152612b58816126db565b9050919050565b60006020820190508181036000830152612b78816126fe565b9050919050565b60006020820190508181036000830152612b9881612721565b9050919050565b60006020820190508181036000830152612bb881612744565b9050919050565b60006020820190508181036000830152612bd881612767565b9050919050565b60006020820190508181036000830152612bf88161278a565b9050919050565b60006020820190508181036000830152612c18816127ad565b9050919050565b60006020820190508181036000830152612c38816127d0565b9050919050565b60006020820190508181036000830152612c58816127f3565b9050919050565b60006020820190508181036000830152612c7881612816565b9050919050565b60006020820190508181036000830152612c9881612839565b9050919050565b60006020820190508181036000830152612cb88161285c565b9050919050565b60006020820190508181036000830152612cd88161287f565b9050919050565b60006020820190508181036000830152612cf8816128a2565b9050919050565b60006020820190508181036000830152612d18816128c5565b9050919050565b60006020820190508181036000830152612d38816128e8565b9050919050565b60006020820190508181036000830152612d588161290b565b9050919050565b6000602082019050612d74600083018461293d565b92915050565b6000604082019050612d8f600083018561293d565b612d9c602083018461293d565b9392505050565b6000612dad612dbe565b9050612db98282613000565b919050565b6000604051905090565b600067ffffffffffffffff821115612de357612de2613107565b5b602082029050602081019050919050565b600067ffffffffffffffff821115612e0f57612e0e613107565b5b602082029050602081019050919050565b600067ffffffffffffffff821115612e3b57612e3a613107565b5b612e4482613171565b9050602081019050919050565b6000819050602082019050919050565b600081519050919050565b600081519050919050565b600081519050919050565b6000602082019050919050565b600082825260208201905092915050565b600082825260208201905092915050565b600082825260208201905092915050565b6000612ecd82612f82565b9150612ed883612f82565b9250827fffffffffffffffffffffffffffffffffffffffffffffffffffffffffffffffff03821115612f0d57612f0c61307a565b5b828201905092915050565b6000612f2382612f62565b9050919050565b60008115159050919050565b60007fffffffff0000000000000000000000000000000000000000000000000000000082169050919050565b600073ffffffffffffffffffffffffffffffffffffffff82169050919050565b6000819050919050565b82818337600083830152505050565b60005b83811015612fb9578082015181840152602081019050612f9e565b83811115612fc8576000848401525b50505050565b60006002820490506001821680612fe657607f821691505b60208210811415612ffa57612ff96130a9565b5b50919050565b61300982613171565b810181811067ffffffffffffffff8211171561302857613027613107565b5b80604052505050565b600061303c82612f82565b91507fffffffffffffffffffffffffffffffffffffffffffffffffffffffffffffffff82141561306f5761306e61307a565b5b600182019050919050565b7f4e487b7100000000000000000000000000000000000000000000000000000000600052601160045260246000fd5b7f4e487b7100000000000000000000000000000000000000000000000000000000600052602260045260246000fd5b7f4e487b7100000000000000000000000000000000000000000000000000000000600052603260045260246000fd5b7f4e487b7100000000000000000000000000000000000000000000000000000000600052604160045260246000fd5b600060033d11156131555760046000803e613152600051613182565b90505b90565b600080fd5b600080fd5b600080fd5b600080fd5b600080fd5b6000601f19601f8301169050919050565b60008160e01c9050919050565b7f455243313135353a204552433131353552656365697665722072656a6563746560008201527f6420746f6b656e73000000000000000000000000000000000000000000000000602082015250565b7f6275726e6572207374696c6c2073657420746f20302061646472657373000000600082015250565b7f4d696e746572207374696c6c2073657420746f20302061646472657373000000600082015250565b7f4f776e61626c653a206e6577206f776e657220697320746865207a65726f206160008201527f6464726573730000000000000000000000000000000000000000000000000000602082015250565b7f455243313135353a206275726e20616d6f756e7420657863656564732062616c60008201527f616e636500000000000000000000000000000000000000000000000000000000602082015250565b7f43616e206f6e6c79206d696e74207468726f75676820616e6f7468657220636f60008201527f6e74726163742121000000000000000000000000000000000000000000000000602082015250565b7f43616c6c696e6720636f6e7472616374206e6f7420736574206173207468652060008201527f6d696e7465722121000000000000000000000000000000000000000000000000602082015250565b7f43616c6c696e6720636f6e7472616374206e6f7420736574206173207468652060008201527f6275726e65722121000000000000000000000000000000000000000000000000602082015250565b7f455243313135353a2061646472657373207a65726f206973206e6f742061207660008201527f616c6964206f776e657200000000000000000000000000000000000000000000602082015250565b7f455243313135353a2063616c6c6572206973206e6f7420746f6b656e206f776e60008201527f6572206f7220617070726f766564000000000000000000000000000000000000602082015250565b7f455243313135353a207472616e7366657220746f20746865207a65726f20616460008201527f6472657373000000000000000000000000000000000000000000000000000000602082015250565b7f455243313135353a206275726e2066726f6d20746865207a65726f206164647260008201527f6573730000000000000000000000000000000000000000000000000000000000602082015250565b7f455243313135353a20696e73756666696369656e742062616c616e636520666f60008201527f72207472616e7366657200000000000000000000000000000000000000000000602082015250565b7f4f776e61626c653a2063616c6c6572206973206e6f7420746865206f776e6572600082015250565b7f4e6577204d696e7465722041646472657373206d75737420626520616e6f746860008201527f657220636f6e7472616374212100000000000000000000000000000000000000602082015250565b7f455243313135353a2073657474696e6720617070726f76616c2073746174757360008201527f20666f722073656c660000000000000000000000000000000000000000000000602082015250565b7f455243313135353a206163636f756e747320616e6420696473206c656e67746860008201527f206d69736d617463680000000000000000000000000000000000000000000000602082015250565b7f455243313135353a2069647320616e6420616d6f756e7473206c656e6774682060008201527f6d69736d61746368000000000000000000000000000000000000000000000000602082015250565b7f455243313135353a206d696e7420746f20746865207a65726f2061646472657360008201527f7300000000000000000000000000000000000000000000000000000000000000602082015250565b7f455243313135353a207472616e7366657220746f206e6f6e2d4552433131353560008201527f526563656976657220696d706c656d656e746572000000000000000000000000602082015250565b7f43616e206f6e6c79206275726e207468726f75676820616e6f7468657220636f60008201527f6e74726163742121000000000000000000000000000000000000000000000000602082015250565b600060443d10156137a85761382b565b6137b0612dbe565b60043d036004823e80513d602482011167ffffffffffffffff821117156137d857505061382b565b808201805167ffffffffffffffff8111156137f6575050505061382b565b80602083010160043d03850181111561381357505050505061382b565b61382282602001850186613000565b82955050505050505b90565b61383781612f18565b811461384257600080fd5b50565b61384e81612f2a565b811461385957600080fd5b50565b61386581612f36565b811461387057600080fd5b50565b61387c81612f82565b811461388757600080fd5b5056fea2646970667358221220ac59a7c271ed7d7725212e5a656ae612f2cdd091a447d7f006b17a42da42976264736f6c63430008070033",
  "linkReferences": {},
  "deployedLinkReferences": {}
}