{
  "_format": "hh-sol-artifact-1",
  "contractName": "ForgeLogic",
  "sourceName": "contracts/ForgeLogic.sol",
  "abi": [
    {
      "inputs": [
        {
          "internalType": "address",
          "name": "_tokenContract",
          "type": "address"
        }
      ],
      "stateMutability": "nonpayable",
      "type": "constructor"
    },
    {
      "anonymous": false,
      "inputs": [
        {
          "indexed": true,
          "internalType": "address",
          "name": "previousOwner",
          "type": "address"
        },
        {
          "indexed": true,
          "internalType": "address",
          "name": "newOwner",
          "type": "address"
        }
      ],
      "name": "OwnershipTransferred",
      "type": "event"
    },
    {
      "inputs": [],
      "name": "WITHDRAWAL_WAIT",
      "outputs": [
        {
          "internalType": "uint256",
          "name": "",
          "type": "uint256"
        }
      ],
      "stateMutability": "view",
      "type": "function"
    },
    {
      "inputs": [
        {
          "internalType": "uint256",
          "name": "id",
          "type": "uint256"
        }
      ],
      "name": "burnToken",
      "outputs": [
        {
          "internalType": "bool",
          "name": "",
          "type": "bool"
        }
      ],
      "stateMutability": "nonpayable",
      "type": "function"
    },
    {
      "inputs": [],
      "name": "mint3",
      "outputs": [
        {
          "internalType": "bool",
          "name": "",
          "type": "bool"
        }
      ],
      "stateMutability": "nonpayable",
      "type": "function"
    },
    {
      "inputs": [],
      "name": "mint4",
      "outputs": [
        {
          "internalType": "bool",
          "name": "",
          "type": "bool"
        }
      ],
      "stateMutability": "nonpayable",
      "type": "function"
    },
    {
      "inputs": [],
      "name": "mint5",
      "outputs": [
        {
          "internalType": "bool",
          "name": "",
          "type": "bool"
        }
      ],
      "stateMutability": "nonpayable",
      "type": "function"
    },
    {
      "inputs": [],
      "name": "mint6",
      "outputs": [
        {
          "internalType": "bool",
          "name": "",
          "type": "bool"
        }
      ],
      "stateMutability": "nonpayable",
      "type": "function"
    },
    {
      "inputs": [
        {
          "internalType": "uint256",
          "name": "id",
          "type": "uint256"
        }
      ],
      "name": "mintStarter",
      "outputs": [
        {
          "internalType": "bool",
          "name": "",
          "type": "bool"
        }
      ],
      "stateMutability": "nonpayable",
      "type": "function"
    },
    {
      "inputs": [],
      "name": "owner",
      "outputs": [
        {
          "internalType": "address",
          "name": "",
          "type": "address"
        }
      ],
      "stateMutability": "view",
      "type": "function"
    },
    {
      "inputs": [],
      "name": "renounceOwnership",
      "outputs": [],
      "stateMutability": "nonpayable",
      "type": "function"
    },
    {
      "inputs": [],
      "name": "tokenAmount",
      "outputs": [
        {
          "internalType": "uint256",
          "name": "",
          "type": "uint256"
        }
      ],
      "stateMutability": "view",
      "type": "function"
    },
    {
      "inputs": [
        {
          "internalType": "address",
          "name": "newOwner",
          "type": "address"
        }
      ],
      "name": "transferOwnership",
      "outputs": [],
      "stateMutability": "nonpayable",
      "type": "function"
    },
    {
      "inputs": [
        {
          "internalType": "uint256",
          "name": "from_id",
          "type": "uint256"
        },
        {
          "internalType": "uint256",
          "name": "to_id",
          "type": "uint256"
        }
      ],
      "name": "transferToken",
      "outputs": [
        {
          "internalType": "bool",
          "name": "",
          "type": "bool"
        }
      ],
      "stateMutability": "nonpayable",
      "type": "function"
    }
  ],
  "bytecode": "0x60806040523480156200001157600080fd5b5060405162002049380380620020498339818101604052810190620000379190620007d8565b620000576200004b6200065660201b60201c565b6200065e60201b60201c565b620000838173ffffffffffffffffffffffffffffffffffffffff166200072260201b62000f0a1760201c565b620000c5576040517f08c379a0000000000000000000000000000000000000000000000000000000008152600401620000bc9062000891565b60405180910390fd5b80600160006101000a81548173ffffffffffffffffffffffffffffffffffffffff021916908373ffffffffffffffffffffffffffffffffffffffff160217905550620001166200074560201b60201c565b73ffffffffffffffffffffffffffffffffffffffff16600160009054906101000a900473ffffffffffffffffffffffffffffffffffffffff1673ffffffffffffffffffffffffffffffffffffffff16638da5cb5b6040518163ffffffff1660e01b8152600401602060405180830381865afa1580156200019a573d6000803e3d6000fd5b505050506040513d601f19601f82011682018060405250810190620001c09190620007d8565b73ffffffffffffffffffffffffffffffffffffffff161462000219576040517f08c379a000000000000000000000000000000000000000000000000000000000815260040162000210906200094f565b60405180910390fd5b600160009054906101000a900473ffffffffffffffffffffffffffffffffffffffff1673ffffffffffffffffffffffffffffffffffffffff166358fa63ca6040518163ffffffff1660e01b8152600401602060405180830381865afa15801562000287573d6000803e3d6000fd5b505050506040513d601f19601f82011682018060405250810190620002ad9190620009ac565b600281905550600160009054906101000a900473ffffffffffffffffffffffffffffffffffffffff1673ffffffffffffffffffffffffffffffffffffffff1663c2ee3a086040518163ffffffff1660e01b8152600401602060405180830381865afa15801562000321573d6000803e3d6000fd5b505050506040513d601f19601f82011682018060405250810190620003479190620009ac565b600381905550600160009054906101000a900473ffffffffffffffffffffffffffffffffffffffff1673ffffffffffffffffffffffffffffffffffffffff166334945b3a6040518163ffffffff1660e01b8152600401602060405180830381865afa158015620003bb573d6000803e3d6000fd5b505050506040513d601f19601f82011682018060405250810190620003e19190620009ac565b600481905550600160009054906101000a900473ffffffffffffffffffffffffffffffffffffffff1673ffffffffffffffffffffffffffffffffffffffff1663979631fb6040518163ffffffff1660e01b8152600401602060405180830381865afa15801562000455573d6000803e3d6000fd5b505050506040513d601f19601f820116820180604052508101906200047b9190620009ac565b600581905550600160009054906101000a900473ffffffffffffffffffffffffffffffffffffffff1673ffffffffffffffffffffffffffffffffffffffff1663b39450366040518163ffffffff1660e01b8152600401602060405180830381865afa158015620004ef573d6000803e3d6000fd5b505050506040513d601f19601f82011682018060405250810190620005159190620009ac565b600681905550600160009054906101000a900473ffffffffffffffffffffffffffffffffffffffff1673ffffffffffffffffffffffffffffffffffffffff1663942c4d256040518163ffffffff1660e01b8152600401602060405180830381865afa15801562000589573d6000803e3d6000fd5b505050506040513d601f19601f82011682018060405250810190620005af9190620009ac565b600781905550600160009054906101000a900473ffffffffffffffffffffffffffffffffffffffff1673ffffffffffffffffffffffffffffffffffffffff1663d1ba82576040518163ffffffff1660e01b8152600401602060405180830381865afa15801562000623573d6000803e3d6000fd5b505050506040513d601f19601f82011682018060405250810190620006499190620009ac565b60088190555050620009de565b600033905090565b60008060009054906101000a900473ffffffffffffffffffffffffffffffffffffffff169050816000806101000a81548173ffffffffffffffffffffffffffffffffffffffff021916908373ffffffffffffffffffffffffffffffffffffffff1602179055508173ffffffffffffffffffffffffffffffffffffffff168173ffffffffffffffffffffffffffffffffffffffff167f8be0079c531659141344cd1fd0a4f28419497f9722a3daafe3b4186f6b6457e060405160405180910390a35050565b6000808273ffffffffffffffffffffffffffffffffffffffff163b119050919050565b60008060009054906101000a900473ffffffffffffffffffffffffffffffffffffffff16905090565b600080fd5b600073ffffffffffffffffffffffffffffffffffffffff82169050919050565b6000620007a08262000773565b9050919050565b620007b28162000793565b8114620007be57600080fd5b50565b600081519050620007d281620007a7565b92915050565b600060208284031215620007f157620007f06200076e565b5b60006200080184828501620007c1565b91505092915050565b600082825260208201905092915050565b7f546f6b656e20436f6e747261637420617267756d656e74206d7573742062652060008201527f61206465706c6f79656420636f6e747261637421210000000000000000000000602082015250565b6000620008796035836200080a565b915062000886826200081b565b604082019050919050565b60006020820190508181036000830152620008ac816200086a565b9050919050565b7f546865206f776e6572206f6620746865204552433131353520746f6b656e206360008201527f6f6e7472616374206d757374206265207468652073616d65206173207468697360208201527f20636f6e74726163742121000000000000000000000000000000000000000000604082015250565b600062000937604b836200080a565b91506200094482620008b3565b606082019050919050565b600060208201905081810360008301526200096a8162000928565b9050919050565b6000819050919050565b620009868162000971565b81146200099257600080fd5b50565b600081519050620009a6816200097b565b92915050565b600060208284031215620009c557620009c46200076e565b5b6000620009d58482850162000995565b91505092915050565b61165b80620009ee6000396000f3fe608060405234801561001057600080fd5b50600436106100b45760003560e01c80638da5cb5b116100715780638da5cb5b1461017d578063a9decdda1461019b578063ab455eb8146101b9578063c2a25828146101e9578063eec7faa114610207578063f2fde38b14610225576100b4565b80630788ce79146100b95780632cf5ac3a146100d75780632e760746146100f55780634b8fd9e614610125578063715018a6146101435780637b47ec1a1461014d575b600080fd5b6100c1610241565b6040516100ce9190611092565b60405180910390f35b6100df610406565b6040516100ec91906110c6565b60405180910390f35b61010f600480360381019061010a9190611112565b61040b565b60405161011c9190611092565b60405180910390f35b61012d6105d9565b60405161013a9190611092565b60405180910390f35b61014b610832565b005b61016760048036038101906101629190611152565b610846565b6040516101749190611092565b60405180910390f35b6101856108e3565b60405161019291906111c0565b60405180910390f35b6101a361090c565b6040516101b09190611092565b60405180910390f35b6101d360048036038101906101ce9190611152565b610ad1565b6040516101e09190611092565b60405180910390f35b6101f1610cbd565b6040516101fe9190611092565b60405180910390f35b61020f610e82565b60405161021c91906110c6565b60405180910390f35b61023f600480360381019061023a9190611207565b610e87565b005b6000600160009054906101000a900473ffffffffffffffffffffffffffffffffffffffff1673ffffffffffffffffffffffffffffffffffffffff1663f5298aca3360025460016040518463ffffffff1660e01b81526004016102a593929190611234565b600060405180830381600087803b1580156102bf57600080fd5b505af11580156102d3573d6000803e3d6000fd5b50505050600160009054906101000a900473ffffffffffffffffffffffffffffffffffffffff1673ffffffffffffffffffffffffffffffffffffffff1663f5298aca3360035460016040518463ffffffff1660e01b815260040161033993929190611234565b600060405180830381600087803b15801561035357600080fd5b505af1158015610367573d6000803e3d6000fd5b50505050600160009054906101000a900473ffffffffffffffffffffffffffffffffffffffff1673ffffffffffffffffffffffffffffffffffffffff1663156e29f63360055460016040518463ffffffff1660e01b81526004016103cd93929190611234565b600060405180830381600087803b1580156103e757600080fd5b505af11580156103fb573d6000803e3d6000fd5b505050506001905090565b603c81565b600081830361044f576040517f08c379a0000000000000000000000000000000000000000000000000000000008152600401610446906112ee565b60405180910390fd5b600254821480610460575060035482145b8061046c575060045482145b6104ab576040517f08c379a00000000000000000000000000000000000000000000000000000000081526004016104a290611380565b60405180910390fd5b600160009054906101000a900473ffffffffffffffffffffffffffffffffffffffff1673ffffffffffffffffffffffffffffffffffffffff1663f5298aca338560016040518463ffffffff1660e01b815260040161050b93929190611234565b600060405180830381600087803b15801561052557600080fd5b505af1158015610539573d6000803e3d6000fd5b50505050600160009054906101000a900473ffffffffffffffffffffffffffffffffffffffff1673ffffffffffffffffffffffffffffffffffffffff1663156e29f6338460016040518463ffffffff1660e01b815260040161059d93929190611234565b600060405180830381600087803b1580156105b757600080fd5b505af11580156105cb573d6000803e3d6000fd5b505050506001905092915050565b6000600160009054906101000a900473ffffffffffffffffffffffffffffffffffffffff1673ffffffffffffffffffffffffffffffffffffffff1663f5298aca3360025460016040518463ffffffff1660e01b815260040161063d93929190611234565b600060405180830381600087803b15801561065757600080fd5b505af115801561066b573d6000803e3d6000fd5b50505050600160009054906101000a900473ffffffffffffffffffffffffffffffffffffffff1673ffffffffffffffffffffffffffffffffffffffff1663f5298aca3360035460016040518463ffffffff1660e01b81526004016106d193929190611234565b600060405180830381600087803b1580156106eb57600080fd5b505af11580156106ff573d6000803e3d6000fd5b50505050600160009054906101000a900473ffffffffffffffffffffffffffffffffffffffff1673ffffffffffffffffffffffffffffffffffffffff1663f5298aca3360045460016040518463ffffffff1660e01b815260040161076593929190611234565b600060405180830381600087803b15801561077f57600080fd5b505af1158015610793573d6000803e3d6000fd5b50505050600160009054906101000a900473ffffffffffffffffffffffffffffffffffffffff1673ffffffffffffffffffffffffffffffffffffffff1663156e29f63360085460016040518463ffffffff1660e01b81526004016107f993929190611234565b600060405180830381600087803b15801561081357600080fd5b505af1158015610827573d6000803e3d6000fd5b505050506001905090565b61083a610f2d565b6108446000610fab565b565b6000600160009054906101000a900473ffffffffffffffffffffffffffffffffffffffff1673ffffffffffffffffffffffffffffffffffffffff1663f5298aca338460016040518463ffffffff1660e01b81526004016108a893929190611234565b600060405180830381600087803b1580156108c257600080fd5b505af11580156108d6573d6000803e3d6000fd5b5050505060019050919050565b60008060009054906101000a900473ffffffffffffffffffffffffffffffffffffffff16905090565b6000600160009054906101000a900473ffffffffffffffffffffffffffffffffffffffff1673ffffffffffffffffffffffffffffffffffffffff1663f5298aca3360025460016040518463ffffffff1660e01b815260040161097093929190611234565b600060405180830381600087803b15801561098a57600080fd5b505af115801561099e573d6000803e3d6000fd5b50505050600160009054906101000a900473ffffffffffffffffffffffffffffffffffffffff1673ffffffffffffffffffffffffffffffffffffffff1663f5298aca3360045460016040518463ffffffff1660e01b8152600401610a0493929190611234565b600060405180830381600087803b158015610a1e57600080fd5b505af1158015610a32573d6000803e3d6000fd5b50505050600160009054906101000a900473ffffffffffffffffffffffffffffffffffffffff1673ffffffffffffffffffffffffffffffffffffffff1663156e29f63360075460016040518463ffffffff1660e01b8152600401610a9893929190611234565b600060405180830381600087803b158015610ab257600080fd5b505af1158015610ac6573d6000803e3d6000fd5b505050506001905090565b6000600254821480610ae4575060035482145b80610af0575060045482145b610b2f576040517f08c379a0000000000000000000000000000000000000000000000000000000008152600401610b2690611412565b60405180910390fd5b603c6009600084815260200190815260200160002060003373ffffffffffffffffffffffffffffffffffffffff1673ffffffffffffffffffffffffffffffffffffffff1681526020019081526020016000205442610b8d9190611461565b11610bcd576040517f08c379a0000000000000000000000000000000000000000000000000000000008152600401610bc490611507565b60405180910390fd5b600160009054906101000a900473ffffffffffffffffffffffffffffffffffffffff1673ffffffffffffffffffffffffffffffffffffffff1663156e29f6338460016040518463ffffffff1660e01b8152600401610c2d93929190611234565b600060405180830381600087803b158015610c4757600080fd5b505af1158015610c5b573d6000803e3d6000fd5b50505050426009600084815260200190815260200160002060003373ffffffffffffffffffffffffffffffffffffffff1673ffffffffffffffffffffffffffffffffffffffff1681526020019081526020016000208190555060019050919050565b6000600160009054906101000a900473ffffffffffffffffffffffffffffffffffffffff1673ffffffffffffffffffffffffffffffffffffffff1663f5298aca3360035460016040518463ffffffff1660e01b8152600401610d2193929190611234565b600060405180830381600087803b158015610d3b57600080fd5b505af1158015610d4f573d6000803e3d6000fd5b50505050600160009054906101000a900473ffffffffffffffffffffffffffffffffffffffff1673ffffffffffffffffffffffffffffffffffffffff1663f5298aca3360045460016040518463ffffffff1660e01b8152600401610db593929190611234565b600060405180830381600087803b158015610dcf57600080fd5b505af1158015610de3573d6000803e3d6000fd5b50505050600160009054906101000a900473ffffffffffffffffffffffffffffffffffffffff1673ffffffffffffffffffffffffffffffffffffffff1663156e29f63360065460016040518463ffffffff1660e01b8152600401610e4993929190611234565b600060405180830381600087803b158015610e6357600080fd5b505af1158015610e77573d6000803e3d6000fd5b505050506001905090565b600181565b610e8f610f2d565b600073ffffffffffffffffffffffffffffffffffffffff168173ffffffffffffffffffffffffffffffffffffffff1603610efe576040517f08c379a0000000000000000000000000000000000000000000000000000000008152600401610ef590611599565b60405180910390fd5b610f0781610fab565b50565b6000808273ffffffffffffffffffffffffffffffffffffffff163b119050919050565b610f3561106f565b73ffffffffffffffffffffffffffffffffffffffff16610f536108e3565b73ffffffffffffffffffffffffffffffffffffffff1614610fa9576040517f08c379a0000000000000000000000000000000000000000000000000000000008152600401610fa090611605565b60405180910390fd5b565b60008060009054906101000a900473ffffffffffffffffffffffffffffffffffffffff169050816000806101000a81548173ffffffffffffffffffffffffffffffffffffffff021916908373ffffffffffffffffffffffffffffffffffffffff1602179055508173ffffffffffffffffffffffffffffffffffffffff168173ffffffffffffffffffffffffffffffffffffffff167f8be0079c531659141344cd1fd0a4f28419497f9722a3daafe3b4186f6b6457e060405160405180910390a35050565b600033905090565b60008115159050919050565b61108c81611077565b82525050565b60006020820190506110a76000830184611083565b92915050565b6000819050919050565b6110c0816110ad565b82525050565b60006020820190506110db60008301846110b7565b92915050565b600080fd5b6110ef816110ad565b81146110fa57600080fd5b50565b60008135905061110c816110e6565b92915050565b60008060408385031215611129576111286110e1565b5b6000611137858286016110fd565b9250506020611148858286016110fd565b9150509250929050565b600060208284031215611168576111676110e1565b5b6000611176848285016110fd565b91505092915050565b600073ffffffffffffffffffffffffffffffffffffffff82169050919050565b60006111aa8261117f565b9050919050565b6111ba8161119f565b82525050565b60006020820190506111d560008301846111b1565b92915050565b6111e48161119f565b81146111ef57600080fd5b50565b600081359050611201816111db565b92915050565b60006020828403121561121d5761121c6110e1565b5b600061122b848285016111f2565b91505092915050565b600060608201905061124960008301866111b1565b61125660208301856110b7565b61126360408301846110b7565b949350505050565b600082825260208201905092915050565b7f5768792061726520796f752074726164696e67206120746f6b656e20666f722060008201527f697473656c663f3f212100000000000000000000000000000000000000000000602082015250565b60006112d8602a8361126b565b91506112e38261127c565b604082019050919050565b60006020820190508181036000830152611307816112cb565b9050919050565b7f43616e206f6e6c7920747261646520666f72207374617274657220746f6b656e60008201527f7321210000000000000000000000000000000000000000000000000000000000602082015250565b600061136a60238361126b565b91506113758261130e565b604082019050919050565b600060208201905081810360008301526113998161135d565b9050919050565b7f57726f6e6720696e70757420494420746f2066756e6374696f6e206d696e745360008201527f7461727465722121000000000000000000000000000000000000000000000000602082015250565b60006113fc60288361126b565b9150611407826113a0565b604082019050919050565b6000602082019050818103600083015261142b816113ef565b9050919050565b7f4e487b7100000000000000000000000000000000000000000000000000000000600052601160045260246000fd5b600061146c826110ad565b9150611477836110ad565b925082820390508181111561148f5761148e611432565b5b92915050565b7f4e65656420746f207761697420666f7220746f6b656e20636f6f6c646f776e2160008201527f2100000000000000000000000000000000000000000000000000000000000000602082015250565b60006114f160218361126b565b91506114fc82611495565b604082019050919050565b60006020820190508181036000830152611520816114e4565b9050919050565b7f4f776e61626c653a206e6577206f776e657220697320746865207a65726f206160008201527f6464726573730000000000000000000000000000000000000000000000000000602082015250565b600061158360268361126b565b915061158e82611527565b604082019050919050565b600060208201905081810360008301526115b281611576565b9050919050565b7f4f776e61626c653a2063616c6c6572206973206e6f7420746865206f776e6572600082015250565b60006115ef60208361126b565b91506115fa826115b9565b602082019050919050565b6000602082019050818103600083015261161e816115e2565b905091905056fea26469706673582212208260135a83537e4cd1cd56975313b68eec102bd2de35c05453f788a5c44a771164736f6c63430008110033",
  "linkReferences": {},
  "deployedLinkReferences": {}
}